S01800006275696C642F6D6963617A2F6D61696E2E73726563E5
S11300000C946A010C9464080C946E080C9478089F
S11300100C9482080C948C080C9496080C94A30FEE
S11300200C94A0080C9489010C9489010C9423135A
S11300300C9446150C94AA080C94C0080C94E00C7B
S11300400C94CA070C9479170C94A60A0C94890191
S11300500C94220B0C94DB070C9489010C948901F9
S11300600C94B5080C94750C0C94540C0C945F0C03
S11300700C946A0C0C94880C0C94370C0C94890125
S11300800C94490C0C9489010C9489010A183D18AC
S11300909618BB18BE18C718DA185D198E1991196D
S11300A0B619B919C419D7195F1AAD1AB31A041BB2
S11300B01F1B251B5E1B191C3C1C4E1CD01D01184C
S11300C01C1E2A1E0F1F201F221F251F2D1F00006C
S11300D02110422063308440A550C660E770088137
S11300E029914AA16BB18CC1ADD1CEE1EFF13112AE
S11300F0100273325222B5529442F772D662399387
S113010018837BB35AA3BDD39CC3FFF3DEE36224FD
S1130110433420040114E664C774A44485546AA5D6
S11301204BB528850995EEE5CFF5ACC58DD553368D
S1130130722611163006D776F6669556B4465BB726
S11301407AA719973887DFF7FEE79DD7BCC7C4485D
S1130150E5588668A7784008611802282338CCC976
S1130160EDD98EE9AFF9488969990AA92BB9F55AED
S1130170D44AB77A966A711A500A333A122AFDDBC6
S1130180DCCBBFFB9EEB799B588B3BBB1AABA66CBD
S1130190877CE44CC55C222C033C600C411CAEED16
S11301A08FFDECCDCDDD2AAD0BBD688D499D977ECD
S11301B0B66ED55EF44E133E322E511E700E9FFF66
S11301C0BEEFDDDFFCCF1BBF3AAF599F788F88911C
S11301D0A981CAB1EBA10CD12DC14EF16FE1801000
S11301E0A100C230E3200450254046706760B98303
S11301F09893FBA3DAB33DC31CD37FE35EF3B10250
S11302009012F322D2323542145277625672EAB512
S1130210CBA5A89589856EF54FE52CD50DC5E2349F
S1130220C324A01481046674476424540544DBA7E2
S1130230FAB79987B8975FE77EF71DC73CD7D326EF
S1130240F2369106B01657667676154634564CD972
S11302506DC90EF92FE9C899E9898AB9ABA944583F
S1130260654806782768C018E1088238A3287DCB42
S11302705CDB3FEB1EFBF98BD89BBBAB9ABB754A8F
S1130280545A376A167AF10AD01AB32A923A2EFDD2
S11302900FED6CDD4DCDAABD8BADE89DC98D267CDF
S11302A0076C645C454CA23C832CE01CC10C1FEF22
S11302B03EFF5DCF7CDF9BAFBABFD98FF89F176E2F
S11302C0367E554E745E932EB23ED10EF01E00085B
S11302D01C18141011241FBECFEFD0E1DEBFCDBF18
S11302E011E0A0E0B1E0ECE8F8E400E00BBF02C0EC
S11302F007900D92A831B107D9F713E0A8E1B1E056
S113030001C01D92A034B107E1F70E949C1F0C9418
S113031045240C9400008FB7F894992708958FBF53
S11303200895282F9FB7F894E82FFF27EB59FE4F25
S113033080818F3F81F4E0913903E21771F40BC09F
S11303402093240304C0FF27EB59FE4F20832093FE
S1130350390320E007C025E005C0809124038F3FC6
S113036091F7EECF892F99278FBF822F9927089570
S1130370809173028A3021F480919901843021F0B4
S113038081E08093320108958DE10E9491011092E1
S1130390320108952FB7F89433278CB95E9A2FBF92
S11303A00895FC016115710519F481E090E0089548
S11303B08091BC019091BD01892B19F085E090E0FA
S11303C008957093C9026093C802F093BD01E0934D
S11303D0BC0110929B0110929A0181E080939C01D0
S11303E05E9A569A808121E030E030939B012093FD
S11303F09A010E94CA0180E090E008958FB7F894B2
S11304009927209143012E7F209343012EE72093C7
S11304108A018FBF61E070E08AE891E00E94D10117
S1130420992708951F931FB7F89480913503882363
S113043041F48BE10E949101882319F481E08093B7
S11304403503812F99278FBF1F91089522E08239A8
S11304509207A1F41092A2010C9690934701809305
S113046046018091000180939E028FEF8093A00249
S113047080939F028093A2028093A1020895FC01BD
S113048082819927582F442781819927482B592BFA
S1130490CA01892F9927869586958370907082303A
S11304A0910559F08330910559F0892B19F420E016
S11304B030E008C02CE93FEF05C022E030E002C084
S11304C028E030E0CA0184E0989F812D9927112407
S11304D08230910559F08330910559F0892B19F434
S11304E080E090E008C08CE99FEF05C082E090E0D6
S11304F002C088E090E0280F391F2A5F3F4FCF01E8
S1130500820F931F0895282F9FB7F894662349F00C
S1130510E82FFF27E558FD4F8081882311F021E063
S113052006C0E22FFF27E558FD4F608320E0892FA6
S113053099278FBF822F99270895E82F8FB7F894B2
S1130540282F332790E0FF27E558FD4F8081861739
S113055009F491E02FBF892F99270895882311F07A
S11305606E9A08956E980895882311F06F9A0895ED
S11305706F98089580E00E94AE02BA9ABB98B99A27
S1130580B89A6C9A80E00E94B4026B986A9881E0F1
S11305900E94AE02709A8DB18C7F8DB908950F932D
S11305A01F93CF93DF93182F8FB7F894C82FDD27AD
S11305B00C2F61E080E00E948302882321F0CFBFEA
S11305C085E090E024C0809108018823A1F4809103
S11305D02B01823081F409C082E080932B011092B8
S11305E008010E94BA02B89AC0981093050180E0ED
S11305F00FBF99270CC080912B01882369F38FB713
S1130600F894992710927B028FBF81E0F1CFDF919C
S1130610CF911F910F9108951F93182F81E00E948D
S1130620AE021FB9779BFECF8FB199271F91089512
S11306308F929F92AF92BF92CF92DF92EF92FF92EE
S11306400F931F93CF93DF938FB7F8949927C0909C
S11306503103D090320380906E0290906F02C0916B
S1130660D401D091D5012091480130914901EAE0AB
S1130670AE2EB12CAC0EBD1E2A153B0508F4590153
S11306808FBF7401EC0EFD1E86010C0F1D1F14C0DC
S1130690C114D10419F0F801808101C080E00E94E6
S11306A00C038114910411F0F701808321960894BE
S11306B0E11CF11C0F5F1F4FC5010197C817D90733
S11306C038F381E00E94B4029FB7F894C114D104B6
S11306D031F0CC0EDD1EF60180818FB901C01FB848
S11306E0D093D501C093D401892F99278FBF80E07F
S11306F090E0DF91CF911F910F91FF90EF90DF90E9
S1130700CF90BF90AF909F908F9008952FB7F8949B
S113071033275093490140934801909332038093C7
S1130720310370936F0260936E021092D5011092A0
S1130730D4012FBF452B29F08FB10E9418039927AC
S1130740089585E10E94910180E090E008958FB7BB
S1130750F894992710927D028FBF089580E88093C2
S113076061011092980110922903109223031092B0
S113077093010895CF93DF93FC0115A6DC019E96A7
S1130780ED011B821A82198280E886A7DF91CF913E
S113079008952F923F924F925F926F927F928F9221
S11307A09F92AF92BF92CF92DF92EF92FF920F93FC
S11307B01F93CF93DF93CDB7DEB728970FB6F89486
S11307C0DEBF0FBECDBF2090A5013090A6014090A2
S11307D0A7015090A801662477248824BEE4AB2E98
S11307E0A3E8BA2ECC24DD24EE24FF2400E010E09C
S11307F0222D332D442D552D662D772D882D90E0F7
S11308000E94052229833A834B835C836D837E8314
S11308108F839887822E932EA42EB52E2401350122
S113082000E20E940323A22EB32EC42ED52EC301B0
S1130830B20196958795779567956A0D7B1D8C1DFA
S11308409D1D97FF05C09F776F5F7F4F8F4F9F4F11
S11308506093A5017093A6018093A7019093A801CA
S113086028960FB6F894DEBF0FBECDBFDF91CF91AF
S11308701F910F91FF90EF90DF90CF90BF90AF90BA
S11308809F908F907F906F905F904F903F902F90AC
S113089008958FB7F8946091D8017091D9012CB55F
S11308A03DB506B602FE04C06F5F7F4F2CB53DB563
S11308B099278FBF88279927CB0177276627442755
S11308C05527622B732B842B952B0895EF92FF925F
S11308D00F931F930E9449047B018C012091B40162
S11308E03091B5014091B6015091B7018091AE01AC
S11308F09091AF01A091B001B091B101820F931F0B
S1130900A41FB51FE216F3060407150730F082177B
S11309109307A407B50758F005C082179307A407E7
S1130920B507E0F5E816F9060A071B07B8F59C01B8
S1130930AD012E193F09400B510B213060E83607F9
S113094060E0460760E0560768F180E090E8A0E0C8
S1130950B0E0E80EF91E0A1F1B1FE092B401F092EA
S1130960B5010093B6011093B70180E090E8AFEFB2
S1130970BFEFE80EF91E0A1F1B1F205030484040ED
S113098050402093AE013093AF014093B001509397
S1130990B10120E030E840E050E014C020E030E055
S11309A040E050E08093B4019093B501A093B60168
S11309B0B093B7011092AE011092AF011092B00142
S11309C01092B101A901B7012CB53DB5C9018E1929
S11309D09F0903968417950720F0B9016D5F7F4F37
S11309E002C0640F751F6115710511F461E070E0B8
S11309F0615070407BBD6ABD80E186BF87B780616E
S1130A0087BF1F910F91FF90EF9008950F931F934D
S1130A100FB7F89411276093B4017093B5018093D4
S1130A20B6019093B7012093AE013093AF01409388
S1130A30B0015093B1010E9466040FBF1F910F9142
S1130A400895CF92DF92EF92FF920F931F93CF936B
S1130A50DF938C01F62E6A01E22E8FB7F894C82F2B
S1130A60DD2760E080E00E949D02882321F0CFBF53
S1130A7080E090E01EC0CFBF0F0D111D802F806855
S1130A800E940C03F82E16950795802F807C0E94F7
S1130A900C030E2D0AC0EE2DFF27E01BF109EC0D0F
S1130AA0FD1D80810E940C0301500023A1F78F2DAE
S1130AB09927DF91CF911F910F91FF90EF90DF90D5
S1130AC0CF90089597B79F7D97BF90E296BF8823F4
S1130AD019F08EB5806402C08EB58F7B8EBD87B74A
S1130AE0806287BF80E090E00895982F9695969550
S1130AF09695E3E6F1E0E90FF11D877021E030E01F
S1130B0002C0220F331F8A95E2F78081822399273E
S1130B1008950F931F93CF93DF93182F8FB7F894F3
S1130B20282F3327022F80911F01882359F581E054
S1130B3080931F011093A0012FBF8FB7F8949927BA
S1130B40379A8FBF8FB7F894C82FDD279C2F8091D9
S1130B5003018230A9F480911F01813021F487E0E0
S1130B600E94910109C0823059F48091A0018093C0
S1130B70030183E080931F01CFBF80E090E025C094
S1130B809FBFFBCF8091A001811711F42FBFF5CF38
S1130B90812F0E947505882319F085E090E014C028
S1130BA0E12FE695E695E695FF27ED59FE4F177080
S1130BB081E090E002C0880F991F1A95E2F7208126
S1130BC0282B208380E090E00FBFDF91CF911F910D
S1130BD00F91089580912401882319F081E090E019
S1130BE0089581E00E9489059927282F882319F404
S1130BF081E080932401822F99270895982F969558
S1130C0096959695E1E9F1E0E90FF11D877021E0F1
S1130C1030E002C0220F331F8A95E2F780818223DD
S1130C20992708958FB7F89499272BB332E0232797
S1130C302BBB8FBF08959FB7F894292F3327422FDA
S1130C4090910301981741F480911F01833021F49E
S1130C502FBF81E090E008954FBF80E090E00895B9
S1130C6080912803882311F0813011F478E008C0C2
S1130C70882329F0813019F02FE170E002C070E080
S1130C8021E0622FEFB7F894809190018E7F8093DA
S1130C90900187B1982F9F71829586958695837070
S1130CA019F080E090E012C0822F8850863118F04D
S1130CB081E090E00BC040E050E03327892F992772
S1130CC02817390711F441E050E0CA01982F9170B8
S1130CD0990F809190018178262F2F71422F440F14
S1130CE0440F892B842B80939001332727B97830C4
S1130CF059F5809125039091260321E086389207C7
S1130D0018F087E090E01FC0833C910518F086E05E
S1130D1090E019C08136910518F085E090E013C089
S1130D208033910518F084E090E00DC0883191057E
S1130D3018F083E090E007C00C9718F082E090E090
S1130D4002C080E090E0782F7770887D872B886DD3
S1130D50992786B98E2F99278FBF08957FB7F89466
S1130D6062B720914B0130914C0140914D0150915B
S1130D704E0106B601FE0FC081B792B7280F311D90
S1130D80411D511D2F5F3F4F4F4F5F4F290F311DA5
S1130D90411D511D04C0260F311D411D511D872FBA
S1130DA099278FBFCA01B901089580911C01882336
S1130DB019F081E090E0089580E00E948905992768
S1130DC0282F882319F481E080931C01822F99270E
S1130DD00895982F969596959695E1EEF1E0E90F92
S1130DE0F11D877021E030E002C0220F331F8A9585
S1130DF0E2F78081822399270895DF92EF92FF9290
S1130E000F931F938FB7F894282F3327D22E91B7BF
S1130E1082B746B7981711F041FF02C02FBF6AC0CE
S1130E208091CB018823E1F10E94AE06E090770225
S1130E30F09078020091790210917A0220915D017C
S1130E4030915E0140915F01509160016E197F09FC
S1130E50800B910B621773078407950720F010929B
S1130E60CB0171E01EC02E0D3F1D401F511F80910C
S1130E704B0190914C01A0914D01B0914E01281B62
S1130E80390B4A0B5B0B273E31054105510540F4F4
S1130E90822F223010F070E005C070E082E002C0C2
S1130EA070E086EE682F615000B601FCFDCF82B77A
S1130EB0681709F46F5F20914B0130914C01409108
S1130EC04D0150914E01DA01C9010196A11DB11DD8
S1130ED0860F911DA11DB11D82179307A407B507A5
S1130EE010F4622F609561BFDFBE772319F080E0B4
S1130EF00E9491011F910F91FF90EF90DF90089550
S1130F00AFB7F894BB27E1E0E093CB01609377029D
S1130F10709378028093790290937A0220935D0112
S1130F2030935E0140935F0150936001AFBF0E9414
S1130F30FD060895AF92BF92CF92DF92EF92FF9297
S1130F400F931F93CF93DF93CDB7DEB728970FB6D8
S1130F50F894DEBF0FBECDBF20E070E0E091000149
S1130F60F091010132E14DE65CE46FE4809101010E
S1130F709E2F28960FB6F894DEBF0FBECDBFDF912B
S1130F80CF911F910F91FF90EF90DF90CF90BF9082
S1130F90AF9008951F920F920FB60F9211248F9362
S1130FA083B783BF00B600FCFDCF8F910F900FBEB7
S1130FB00F901F9018951F920F920FB60F92112445
S1130FC02F933F934F935F936F937F938F939F934D
S1130FD0AF93BF93EF93FF9344B155B178948FB718
S1130FE0F894992720919001322F36953170217011
S1130FF08FBF222391F533988091C601813021F06F
S1131000823009F050C008C0332341F0509372027B
S11310104093710288E01EC0332319F40E94300605
S113102042C01092C60180912803882321F08130A8
S113103009F039C008C01092A90150938C01409363
S11310408B0186E007C01092950150932B034093C7
S11310502A038DE00E94910126C08FB7F894992746
S11310608FBF2FB7F894332786B1582F5770482F66
S11310704072987D942B952B8074977B982B90616C
S11310809F77892F992786B9887D842B852B877331
S11310908061992786B9887D842B852B877B80691D
S11310A0992786B92FBFFF91EF91BF91AF919F917F
S11310B08F917F916F915F914F913F912F910F90FD
S11310C00FBE0F901F9018951F920F920FB60F929C
S11310D011240F900FBE0F901F9018951F920F921E
S11310E00FB60F9211240F900FBE0F901F901895FA
S11310F01F920F920FB60F9211240F900FBE0F90F4
S11311001F9018951F920F920FB60F9211240F90F3
S11311100FBE0F901F9018951F920F920FB60F924B
S113112011240F900FBE0F901F9018951F920F92CD
S11311300FB60F9211240F900FBE0F901F901895A9
S11311401F920F920FB60F9211240F900FBE0F90A3
S11311501F90189578941F920F920FB60F92112436
S11311600F900FBE0F901F90189578941F920F92B6
S11311700FB60F9211240F900FBE0F901F90189569
S113118078941F920F920FB60F9211242F933F93CE
S11311908F939F932FB7F89433278091D801909120
S11311A0D90101969093D9018093D8012FBF9F91C3
S11311B08F913F912F910F900FBE0F901F90189514
S11311C0EEECF0E06927660FF11DE60FF11DC895FE
S11311D0982F802D3196C89590250895982F809149
S11311E03E01882389F5992379F531E030933E0156
S11311F08091100180933F0120913301822F8170EF
S113120080936201809115019091160190934101A0
S113121080934001809134018093420132273170E0
S1131220267EE32FFF27EE0FFF1FEF5EFE4F808128
S113123091819093160180931501232B2093330100
S113124080E20E94910108958091330180FF02C0E1
S11312508B7F01C08D7F8093330108950F931F937B
S1131260082F162F809199018130D9F0813038F000
S1131270823009F448C0833009F02AC157C00023E2
S113128009F461C110928E0210928D0210927502BF
S11312901092CA0210929D011092DB011092DA01A1
S11312A03BC1002309F04FC16093CA02862F8454C6
S11312B0823008F00DC132C182E001C083E0809326
S11312C0990180913301982F917080FF03C0869516
S11312D0869501C08695817009F0FAC0809133012A
S11312E0992311F0846001C082608093330180915E
S11312F03301877E886080933301109234018FEF2D
S11313008093100120C1002309F0E2C060939D0185
S11313108091DA019091DB010E94E0089093DB0157
S11313208093DA0183E0809399010DC18091750265
S11313308F3F09F4CDC0002309F465C0823008F45E
S1131340C7C0E0918D02EE2309F4F6C04E2F415040
S1131350E42FFF27E357FD4F82819927382F222757
S1131360442311F4E2E002C0E42FE150FF27E357E5
S1131370FD4F82819927282B392B8091DA01909196
S1131380DB012817390709F0A3C080E00E94EE08AA
S11313908091CA028434D9F430919D018091CC01AA
S11313A02091CD01982F9F5F963008F090E092171E
S11313B071F0E82FFF27E453FE4F32838F5F809351
S11313C0CC01863010F01092CC010E9412021092CF
S11313D08E0210928D0294E09093990110927502FE
S11313E01092CA0210929D011092DB011092DA0150
S11313F0809143018D7F8093430180913201882342
S113140009F4A1C084C0823008F44EC0E0918E0279
S1131410FF27E357FD4F8281482F5527342F209112
S11314203301822F8695869586958370992781301E
S1131430910519F00297F9F40EC0277E20612093DC
S11314403301442311F485E001C080E0809334012A
S11314503093100110C080913401843360F4E09122
S11314601501F0911601E80FF11D408380913401BC
S11314708F5F8093340180918E02E82FFF27E3571A
S1131480FD4F62818F5F80938E02833010F0109243
S11314908E0277278091DA019091DB010E94E008A7
S11314A09093DB018093DA0180918D02E82FFF276E
S11314B0E357FD4F12838F5F80938D02833010F0CA
S11314C010928D02809175028F5F809375023BC0EC
S11314D010928E0210928D0214E0109399011092D2
S11314E075021092CA0210929D011092DB011092B3
S11314F0DA01809143018D7F8093430181E00E9452
S1131500EE0880913201882329F0109399010E94FA
S1131510B80119C00023B9F081E005CF8091DA0148
S11315209091DB010E94E0089093DB018093DA0143
S1131530143409F0C3CEC0CE809191029927382F7C
S1131540222742E011CF1F910F9108951F920F920D
S11315500FB60F9211242F933F934F935F936F9382
S11315607F938F939F93AF93BF93EF93FF935F9B6F
S11315703DC06CB1E091DC01F091DD013097F9F0F0
S11315808091330390913403E80FF91F608301962F
S1131590909334038093330320913E0330913F03AF
S11315A08217930718F11092DD011092DC018091EB
S11315B070028330D9F057981092700217C06E37BA
S11315C019F460E081E010C0809143016D3721F48B
S11315D08260809343010AC081FF05C08D7F8093A0
S11315E0430180E2682780E00E942E09FF91EF9179
S11315F0BF91AF919F918F917F916F915F914F9127
S11316003F912F910F900FBE0F901F901895982F18
S11316108D57823068F48091430181608093430147
S113162080E28927809374028DE780938A0102C047
S113163090938A0161E070E08AE891E00E94D10110
S11316409927089578941F920F920FB60F92112440
S1131650FF920F931F932F933F934F935F936F9337
S11316607F938F939F93AF93BF93CF93DF93EF9326
S1131670FF9320919A0130919B018091C80290912F
S1131680C9022817390780F4E091BC01F091BD012B
S1131690E20FF31F80812F5F3F4F30939B01209314
S11316A09A010E94CA01CDC01092BD011092BC01E2
S11316B010929C015698FFB6F8948091430180FFE4
S11316C00EC08E7F809343018091740280938A01BF
S11316D061E070E08AE891E00E94D101AFC080919E
S11316E07302843009F48CC0853040F4823021F1D7
S11316F08330B8F5813009F09CC00DC0863009F400
S11317008DC0863008F483C0873009F48EC08830D9
S113171009F08FC091C08091B3010E94070B082F7C
S113172083E0809373026091B30180913C039091B4
S11317303D030E94E00810C0809127030E94070B1C
S1131740082F83E0809373026091270380913C0308
S113175090913D030E94E00890933D0380933C03E5
S113176066C0E091DE01FF27EE0FFF1FED53FE4F31
S113177080810E94070B082F1091DE01C12FDD2705
S1131780FE01EE0FFF1FED53FE4F608180913C037D
S113179090913D030E94E00890933D0380933C03A5
S11317A02091AD012F5F2093AD01113039F5809167
S11317B03A01E0913501F0913601E80FF11DE08125
S11317C08F5F80933A0190913901981730F482E049
S11317D08093C40140E050E002C04E2F5527DE0143
S11317E0AA0FBB1FFD01EE53FE4F8081823031F002
S11317F02F3F21F0AD53BE4F4C9319C084E012C06B
S113180080913C030E94070B082F85E00BC0809158
S11318103D030E94070B082F86E004C00E94FE01CE
S1131820082F87E08093730202C088E003C000237E
S113183029F089E0809373020E9412028F2D992768
S11318408FBFFF91EF91DF91CF91BF91AF919F91A6
S11318508F917F916F915F914F913F912F911F9144
S11318600F91FF900F900FBE0F901F9018951F922D
S11318700F920FB60F9211248F9380919B0087FFD4
S113188002C080919C008F910F900FBE0F901F900B
S1131890189578941F920F920FB60F9211240F90FF
S11318A00FBE0F901F90189578941F920F920FB649
S11318B00F9211240F900FBE0F901F9018957894DB
S11318C01F920F920FB60F9211240F900FBE0F901C
S11318D01F90189578941F920F920FB60F921124AF
S11318E00F900FBE0F901F90189578941F920F922F
S11318F00FB60F9211248F939F9380918000909143
S113190081009F918F910F900FBE0F901F9018959B
S113191078941F920F920FB60F9211242F933F9336
S11319208F939F932FB7F89433278091AB019091B5
S1131930AC0101969093AC018093AB012FBF9F91B2
S11319408F913F912F910F900FBE0F901F9018957C
S1131950CF93DF93CDB7DEB72C970FB6F894DEBFE5
S11319600FBECDBF8FB7F894282FAE014F5F5F4FE6
S1131970DA01E1E8F2E088E001900D928150E1F7AC
S113198080919E0190919F018987892F99278A8749
S11319908091B8019091B9018B87892F99278C8701
S11319A02FBF2CE060E080E691E00E9421052C9698
S11319B00FB6F894DEBF0FBECDBFDF91CF9108956F
S11319C01F920F920FB60F9211242F933F934F93B0
S11319D05F936F937F938F939F93AF93BF93EF9393
S11319E0FF9383B783BF00B600FCFDCF81B799276F
S11319F00196AA27BB2720914B0130914C014091BD
S1131A004D0150914E01280F391F4A1F5B1F20932F
S1131A104B0130934C0140934D0150934E01789407
S1131A200E94FD06FF91EF91BF91AF919F918F911D
S1131A307F916F915F914F913F912F910F900FBEC6
S1131A400F901F9018950F931F93182F0FB7F894AA
S1131A5061E080E00E948302882341F51093050130
S1131A6080910801882379F580912B01823059F502
S1131A7084E106C081E080932B011092080186E185
S1131A800E9491012AC08091B2018F3F31F5E0910B
S1131A900701EE2311F11CC01092060104C0FF27B8
S1131AA0EE54FE4F10821092070117C081E090E0BF
S1131AB002C0880F991F1A95E2F720912A01282B5A
S1131AC020932A010AC080912B018823E1F6D2CF0A
S1131AD0809106018F3F19F7DFCF802F99278FBFA1
S1131AE080E090E01F910F9108951F9383E00E947E
S1131AF0CF029927182F882319F083E00E94230D21
S1131B00812F99271F910895EF92FF920F931F93AE
S1131B10CF93DF93982F8FB7F894E82E80911F010D
S1131B20833009F045C080910301891709F040C052
S1131B3080916301882309F046C03EC0EF2DE695ED
S1131B40E695E695FF274F2D5527ED59FE4F9A014F
S1131B502770307081E090E002C0880F991F2A95A9
S1131B60E2F78095208128232083C0931E0111C0B1
S1131B702196C230D10511F4C0E0D0E0FC2E8C2FA8
S1131B800E9475058823D1F6C017D10789F74FEF56
S1131B9050E04093A0018FEF8093030181E0809394
S1131BA01F0187E00E949101EFBE80E090E011C028
S1131BB0EFBE81E090E00DC082E0809303011092BB
S1131BC01F013798F1CF80911E01082F1127E801DA
S1131BD0CFCFDF91CF911F910F91FF90EF90089598
S1131BE0AF92BF92CF92DF92EF92FF920F931F9327
S1131BF0CF93DF935B016C01C0E0D0E0E2EEF1E053
S1131C00608561FFF7C02081318142815381E48086
S1131C10F58006811781D601C501821B930BA40BA5
S1131C20B50B8E159F05A007B10708F4E3C060FF4C
S1131C3003C06D7F608708C02E0D3F1D401F511FDC
S1131C402083318342835383C13009F45FC0C130A0
S1131C5020F0C23009F0D4C095C02FB7F8943327D0
S1131C608BB394E089278BBB2FBF8FB7F894082FD1
S1131C70112780911901882389F491E09093190127
S1131C80109289020FBF80911A01882321F483E006
S1131C900E94910112C090931B010FC08091890290
S1131CA0882351F080E00E94E906882329F480917A
S1131CB0E10181608093E1010FBF8FB7F894082F91
S1131CC0112780912101882389F491E090932101C7
S1131CD0109288010FBF80912201882321F48AE0A9
S1131CE00E9491018DC0909323018AC08091880144
S1131CF0882309F43AC080E00E94FE058823A9F5F0
S1131D00809191018160809391012FC09FB7F894D5
S1131D1020911901222319F421E030E00FC08091B1
S1131D200201813019F020E030E008C040E050E0CA
S1131D302150223010F441E050E09A01892F992774
S1131D408FBF222309F45CC08FB7F894082F1127A2
S1131D50902F80910201813009F04AC080911901CD
S1131D60813029F482E00E9491010FBF49C0823082
S1131D7009F03EC0809189028093020183E0809340
S1131D801901F3CF9FB7F89420912101222319F46C
S1131D9021E030E00FC080910401813019F020E08F
S1131DA030E008C040E050E02150223010F441E01F
S1131DB050E09A01892F99278FBF222309F18FB709
S1131DC0F894082F1127902F80910401813081F419
S1131DD080912101813011F489E0C5CF823041F432
S1131DE0809188018093040183E080932101BDCF19
S1131DF09FBF06C021963996C430D10509F000CFA3
S1131E0081E00E949101DF91CF911F910F91FF908A
S1131E10EF90DF90CF90BF90AF900895EF920F9323
S1131E201F93AE2D99E0899FF0011124EE51FE4FCE
S1131E3040835183628373830483158326833783AA
S1131E40A17080858E7F8A2B8260808781E00E94CA
S1131E5091011F910F91EF9008951F93CF93DF93FA
S1131E60182F8FB7F894C82FDD2760E080E00E9418
S1131E709D02882321F0CFBF80E090E005C0CFBF52
S1131E80812F0E940C039927DF91CF911F91089510
S1131E90EF92FF920F931F93CF93DF93182F7B0141
S1131EA0042F8FB7F894C82FDD2760E080E00E94EC
S1131EB09D02882321F0CFBF80E090E014C0CFBF03
S1131EC01064812F99279093BF018093BE010E94D3
S1131ED00C03182F402F5527B70180E090E00E9493
S1131EE08603812F9927DF91CF911F910F91FF9046
S1131EF0EF900895C098609144017091450141E0CC
S1131F008FE30E94480F089582E090E09093870148
S1131F108093860181E08093980120E030E08091F5
S1131F200501843011F421E030E0232B29F484E00E
S1131F300E94CF02882319F40E947A0F089584E046
S1131F400E94230D08951F920F920FB60F92112431
S1131F502F933F934F935F936F937F938F939F93AD
S1131F60AF93BF93EF93FF93809186019091870184
S1131F70019749F482E090E0909387018093860171
S1131F800E94840F05C0809193018F5F8093930119
S1131F90FF91EF91BF91AF919F918F917F916F913D
S1131FA05F914F913F912F910F900FBE0F901F9013
S1131FB018951F9380912A01882309F048C0109135
S1131FC005011F3F09F043C060E00E949D02882381
S1131FD0F1F181E080938B02809164018823D1F137
S1131FE010928B0285E090E03BC080912B018230FF
S1131FF0A9F5C09A8091060120E030E08F3F11F4EA
S113200021E030E0232BD9F48F3F19F42FEF30E097
S11320100DC0282F3327F901EE54FE4F80818093A1
S113202006018F3F11F48093070110832093080168
S113203081E080932B0186E10E94910104C01093FA
S1132040080110922B0180E00E94AE0207C081E0DB
S113205090E006C080910801882339F280E090E086
S11320601F9108951F93CF93DF939FB7F894C92FBF
S1132070DD271C2F90910501981721F0CFBF81E037
S113208090E03AC08FEF8093050130912A01332309
S1132090F1F48FB7F894992710927B028FBF0E94B6
S11320A0D90FCFBF11C02093050181E090E002C099
S11320B0880F991F4A95E2F78095382330932A01B7
S11320C084E10E9491011FBF80E090E015C080E090
S11320D065E0E32FFF270E949A23292F492F5527D4
S11320E0CF01042E02C0959587950A94E2F780FDEE
S11320F0DACF822F8F5FEFCFDF91CF911F910895B9
S11321001F93CF93DF938FB7F894C82FDD271C2F2D
S11321108091860190918701892B29F484E00E94A3
S11321203210CFBF1EC01092980180919301882372
S113213011F0B79904C00E9908C0882319F0815092
S1132140809393010E94840F0BC081E090E09093F0
S11321508701809386011092930184E00E943210DB
S11321601FBFDF91CF911F9108950E94AE03C09AC3
S1132170C09888E00E942D0F88E00E942D0FC09A1D
S113218084E00E9432100E9480100895FF920F9301
S11321901F93CF93DF93F82E8B018FB7F894C82F3A
S11321A0DD2760E080E00E949D02882321F0CFBFFC
S11321B080E090E00CC0CFBF8F2D0E940C03812FD4
S11321C099270E940C03802F0E940C039927DF910A
S11321D0CF911F910F91FF9008951F931FB7F8940B
S11321E080919201882319F460E070E009C060E0F6
S11321F080913003882309F461E081E06827772720
S11322008091A101882319F480E090E00AC090E055
S113221080918002882309F491E081E09827892F36
S11322209927762F6627770F770F770FE4E0880FCB
S1132230991FEA95E1F7826E9262682B792B81E10E
S11322400E94C610812F99278FBF1F9108958FB7C1
S1132250F894992760918A028FBF85E0689FB00146
S11322601124625D7E4F706488E10E94C610089557
S1132270EF92FF921F93CF93DF93E090A301F0902E
S1132280A401F70182A59927182F882309F41FE1D7
S1132290C09880918F01811749F0612F77276F7162
S11322A07070606E706885E10E94C61010938F0193
S11322B0F70110818FB7F894C82FDD2760E080E024
S11322C00E949D02882311F0CFBF12C0CFBF8EE3BE
S11322D090E09093BF018093BE018EE30E940C03B3
S11322E01150412F552760E070E0C7010E9486031A
S11322F0DF91CF911F91FF90EF9008950F931F935B
S1132300CF93DF93EC010FB7F89411270E943F029B
S1132310FC018FE380830FBF10922E0310922D03D4
S113232061E082E00E948302882319F085E090E056
S113233072C080918C028F5F80938C0281508B835A
S11323408FB7F894082F112762E081E00E949D0264
S1132350882329F40FBF0E94A70381E05BC08FB7D5
S1132360F894992724E020937C028FBFD093CA016C
S1132370C093C9010FBFFE0131968181298199273C
S1132380982F88273327822B932B80729C7C8983F8
S1132390892F992781832981982F882733272164BE
S11323A0822B932B8983892F992781831CA618A6B6
S11323B019A619AA18AA1FA680E88EA761E060933F
S11323C07F024091C9015091CA018FB7F894282F18
S11323D0332780912C0190912D018830910511F0C3
S11323E0019711F02FBF15C082E090E090932D016A
S11323F080932C0160933A035093A4014093A3016A
S113240010924A012FBF0E94750D882311F40E9477
S1132410381180E09927DF91CF911F910F91089592
S1132420CF93DF93DA01422F2D3118F082E090E050
S11324305EC0ED018B876E83872F99278F832FB71B
S1132440F894332780919E0190919F012FBFFD0145
S11324508483892F992785832FB7F8943327809114
S1132460090190910A012FBF8887892F99278987AD
S11324703196818129819927982F882733272064D1
S11324803868822B932B8983892F99278183435F13
S11324904C934D5080910C01882359F010920C01FB
S11324A0642FCD010E947E119927282F8823A9F437
S11324B017C0842F99279093C8018093C701B093C4
S11324C03101A093300188E10E94910180910C01B7
S11324D0882349F489E090E00AC08FEF80930C01CF
S11324E0822F992704C01092AA0180E090E0DF9126
S11324F0CF910895CF93DF93FB01DB01169686837A
S1132500892F9927ED01898389E083878091D601FA
S11325109091D701892B19F085E090E02BC070933E
S1132520D7016093D601435F40834D5080910F01E2
S1132530882319F480E090E01DC08385ED01698152
S11325407727762F662726813327622B732B1092E9
S11325500F01242FAF010E9410129927282F8823DE
S113256039F081E080930F011092D7011092D601C7
S1132570822F9927DF91CF9108950F931F93CF93C3
S1132580DF93182FEB01042FE82FFF27EE0FFF1F17
S1132590EA52FE4F1182108210920F01E091D6018F
S11325A0F091D701309721F080912C0380FF0EC069
S11325B081E080930F0103C08AE10E9491011123FD
S11325C0B9F4602FCE010E94260212C020812D5042
S11325D0332767817727762F662786819927682B8B
S11325E0792BAF0183850E941012882341F3E4CF35
S11325F0DF91CF911F910F9108959B0180910F015D
S1132600882349F46091D6017091D701621773074A
S113261011F40E94BD1208951F93182F81E090E0D9
S113262090932D0180932C01109264010E94D90F84
S11326308FB7F8949927109326018FBF80E10E94E9
S113264091011F91089578941F920F920FB60F92E3
S113265011242F923F924F925F926F927F928F92AA
S11326609F92AF92BF92CF92DF92EF92FF920F931D
S11326701F932F933F934F935F936F937F938F9306
S11326809F93AF93BF93CF93DF93EF93FF93C6B51D
S1132690D7B58FB7F894282E0E9449049B012C1BB0
S11326A03D0B442755272B013C01421A530A640A67
S11326B0750A80912C0190912D018530910521F0AE
S11326C0069709F0E0C0BFC086E090E090932D012A
S11326D080932C0131E0332E3092960110922E011A
S11326E080E00E946205E091A301F091A40141AA57
S11326F0BB27A72D962D852D80ABC301AA27BB2709
S113270087A7872D9927AA27BB2786A7E091A3012E
S1132710F091A40185A5882309F484C060816550E3
S113272077274F01860E971EF4012081E180828174
S1132730A3809927AA27BB27BA2FA92F982F8827C8
S1132740332744275527522F442733272227FF2492
S1132750002711278701FF24EE242E293F29402B2F
S1132760512BBB24CC24DD242A293B294C295D2967
S1132770822B932BA42BB52B84199509A609B70991
S11327808383292F3A2F4B2F552722839D014427DA
S1132790552721838B2F9927AA27BB278083C0988D
S11327A024E0A40180E090E00E942105C09AF40195
S11327B02081E1808281A3809927AA27BB27BA2F91
S11327C0A92F982F8827332744275527522F44278A
S11327D033272227FF24002711278701FF24EE2413
S11327E02E293F29402B512BBB24CC24DD242A291C
S11327F03B294C295D29822B932BA42BB52B840DCB
S1132800951DA61DB71D8383292F3A2F4B2F5527BE
S113281022839D014427552721838B2F9927AA279B
S1132820BB278083E091A301F091A401818185FFFE
S113283002C03092640183E00E94321087B78F7E19
S113284087BF84997AC01092960181E00E94620544
S1132850E091A301F091A401818185FF0FC087E07D
S113286090E090932D0180932C010E94490420E074
S113287031E040E050E00E94060503C080E00E9481
S11328800C13849B5AC080912E01882391F580916A
S11328909601882371F511E0109396010E94620558
S11328A080B320912303283098F4E0912903E20FA8
S11328B0FF27E770F070EE0FFF1FEE0FFF1FE153CD
S11328C0FD4F40825182628273822F5F20932303E3
S11328D010932E01D093C101C093C00184992DC0DF
S11328E0992754E0969587955A95E1F7182F11701A
S11328F001C010E0809196018130F9F410929601A4
S11329000E94620510922E011123B9F48091C00136
S11329109091C101C81BD90B2A9778F480912303A5
S1132920882319F08150809323038091A30190910F
S1132930A401009711F00E94BA032FBEFF91EF91FA
S1132940DF91CF91BF91AF919F918F917F916F91C3
S11329505F914F913F912F911F910F91FF90EF90B5
S1132960DF90CF90BF90AF909F908F907F906F90AB
S11329705F904F903F902F900F900FBE0F901F903D
S11329801895CF92DF92EF92FF920F931F93CFB6D9
S1132990F894DD240E94C903DC01CB0166E470E0F5
S11329A00E94A6234BE0E42EF12CE80EF91EF092CF
S11329B03703E09236030E94490400271127A80137
S11329C097010E940605CFBE1F910F91FF90EF90D3
S11329D0DF90CF9008951F93CF93DF938FB7F89430
S11329E0C82FDD271C2F80912C0190912D01089771
S11329F0C9F489E00E942D0F83E00E943210C09A2E
S1132A0081E090E090932D0180932C018FB7F8948E
S1132A10992723E0209326018FBF80E10E94910132
S1132A20CFBF30C0C09880913A03882311F085E06D
S1132A3001C084E00E942D0F83FD09C080E00E9444
S1132A402D0F83FF04C085E090E020E003C083E005
S1132A5090E021E090932D0180932C01C09A1FBF38
S1132A60222341F010924A0183E00E9432100E9416
S1132A70C11408C00E94490420E431E040E050E061
S1132A800E940605DF91CF911F91089578941F92BB
S1132A900F920FB60F9211241F932F933F934F93CE
S1132AA05F936F937F938F939F93AF93BF93EF93B2
S1132AB0FF9387B78F7E87BF1FB7F8948091AE01CD
S1132AC09091AF01A091B001B091B1010097A1051F
S1132AD0B10509F051C080912C0190912D018530F0
S1132AE0910561F18630910530F48330910549F008
S1132AF0049781F51AC087309105F1F0089751F5D4
S1132B0014C0869B0FC084E090E090932D018093C5
S1132B102C010E94490427E030E040E050E00E948C
S1132B20060518C00E94C11415C00E94750D8823A3
S1132B3089F40E94EB140EC080E00AC089E00E9470
S1132B402D0F81E00E94620583E00E94321087E02D
S1132B500E940C138091270190912801019771F430
S1132B6082E090E09093280180932701DE98DE9A1A
S1132B7080E00E94230D02C00E946604812F9927E1
S1132B808FBFFF91EF91BF91AF919F918F917F91F3
S1132B906F915F914F913F912F911F910F900FBEB5
S1132BA00F901F901895EF92FF920F931F93CF935E
S1132BB0DF938B018091BE019091BF0186FF40C1DC
S1132BC08F7B8F3309F08EC1C0914401D0914501B0
S1132BD058815093890180918601909187018530B5
S1132BE0910509F443C08630910509F48AC002971F
S1132BF009F01FC185E090E09093870180938601DE
S1132C0040916101852F99270196242F3327281796
S1132C1039074CF1B79906C00E9904C0451B4150C1
S1132C2040936101409189014A32E8F44423A1F0C0
S1132C30BE016F5F7F4F483018F047E050E007C097
S1132C4086E090E09093870180938601552780E089
S1132C5090E00E94860346C110929801C09A84E0D5
S1132C600E943210E3C00E94B5103CC186E090E09F
S1132C7090938701809386018091A101882309F4B0
S1132C8039C0809180028823A9F5898185FF32C0EB
S1132C908F814E812FB7F89433276091B8017091DA
S1132CA0B9012FBF9927982F88275527842B952B57
S1132CB08617970759F08F812E819927982F882797
S1132CC03327822B932B8F5F9F4FA1F489818770C9
S1132CD0813081F4C09AC0988AE00E942D0FC09A76
S1132CE0C0984091890147502896BE018FE30E9405
S1132CF0480FF8C040918901475055272896BE01D6
S1132D00A6CFC09A80919301882339F484E00E946D
S1132D10321080919301882311F0B7990AC00E9B59
S1132D2008C090912303992321F0809189018B306D
S1132D3038F480914401909145010E94BA033DC04A
S1132D40913001F5E0912903FF27EE0FFF1FEE0FED
S1132D50FF1FE153FD4F2081318142815381E09176
S1132D604401F091450121ABBB27A52F942F832F5C
S1132D7080ABCA01AA27BB2787A7252F332744275F
S1132D80552726A7809129039927019668E070E0CA
S1132D900E94BA2380932903809123038150809356
S1132DA02303882351F080914401909145010E94AE
S1132DB0BA03109229031092230380918901FE0122
S1132DC0E80FF11D808187FF31C0012B79F1698102
S1132DD06770E0914401F0914501623019F5A091CA
S1132DE0A301B091A401109709F180912C01909155
S1132DF02D010797D9F4ED019B8183819817B1F4D4
S1132E0087B78F7E87BF908181E08CA7E90FF11D82
S1132E108291319688A780818F7789A780E00E946C
S1132E200C1304C0613011F487E12AC00E948010A1
S1132E3059C010929801C09A84E00E94321052C086
S1132E408E3309F04FC0C09A80912C0190912D01CE
S1132E500897C9F4C09889E00E942D0FC09A83E0B6
S1132E600E94321081E090E090932D0180932C0118
S1132E708FB7F894992723E0209326018FBF80E130
S1132E800E9491012FC080913A03882349F484E081
S1132E9090E090932D0180932C010E94EB1422C0AA
S1132EA083E00E94321083E090E090932D018093A0
S1132EB02C010E94C903DC01CB0166E371E00E948E
S1132EC0A6235BE0E52EF12CE80EF91EF0925C01DE
S1132ED0E0925B010E94490400271127A801970191
S1132EE00E940605DF91CF911F910F91FF90EF9003
S1132EF008951F920F920FB60F9211242F933F93B0
S1132F004F935F936F937F938F939F93AF93BF93ED
S1132F10EF93FF932FB1E0916E02F0916F0230971F
S1132F2039F08091D4019091D501E80FF91F2083E5
S1132F308091D4019091D50101969093D50180930D
S1132F40D40180E00E94B4024091480150914901AB
S1132F508091D4019091D5018417950718F40E94AB
S1132F6018031CC060916E0270916F02809131034E
S1132F709091320310926F0210926E0210923203FB
S1132F801092310310924901109248011092D50118
S1132F901092D4012FB120E00E94D315FF91EF913C
S1132FA0BF91AF919F918F917F916F915F914F915D
S1132FB03F912F910F900FBE0F901F9018959F92E5
S1132FC0AF92BF92CF92DF92EF92FF920F931F9333
S1132FD0CF93DF93CDB7DEB7A8970FB6F894DEBFD3
S1132FE00FBECDBFE82FFF27E132F10510F00C949E
S1132FF06D1FEA5BFF4FEE0FFF1F0590F491E02D6C
S1133000099480912C03882311F40C946D1F90E093
S113301011E0EFC580918D01882361F52091CB02E9
S11330203091CC024091CD025091CE02EFB7F8948A
S1133030FF276091770270917802809179029091D4
S11330407A02E0905D01F0905E0100915F011091C1
S113305060016E0D7F1D801F911FEFBF2093CB0277
S11330603093CC024093CD025093CE0210928D0146
S11330700E9480070E94AE0644C00E94AE065B0117
S11330806C018FB7F89499271092CB018FBF0FEF83
S1133090E02E0FEFF02E0FEF002F0FE7102F60E060
S11330A0E2EEF1E0808581FF1CC080819181A281E4
S11330B0B381A6019501281B390B4A0B5B0BDA017E
S11330C0C9012481358146815781281B390B4A0B5C
S11330D05B0B2E153F05400751071CF479018A014B
S11330E061E0399632E0E630F307E1F6662311F445
S11330F00C946D1F1E141F04100611062CF0C6013B
S1133100B5010E94F00DE9C6E092CB02F092CC0228
S11331100093CD021093CE0281E080938D01A8012B
S11331209701C601B5010E948007D7C68FB7F894EE
S11331309927209189022093020123E02093190109
S11331408FBF1091020180E00E941B06882309F4BE
S1133150C4C680911D01882309F0BFC682E0809314
S1133160C601109228030E94300681E080931D015D
S113317010938E01B2C60E94D506AFC680911C0181
S1133180813009F0AAC61E98169885E0FAC080E03E
S11331900E94840D10921C0180911B01813011F456
S11331A00E94D5068FB7F894992710921B011092AC
S11331B01A0152C610921D01A0908B01B0908C018F
S11331C090908E018FB7F894C82E809119018330A6
S11331D009F041C0809102018915E9F58091E1016E
S11331E0882309F065C65BC6ED2DE695E695E69560
S11331F0FF274D2D5527EF51FE4F9A012770307050
S113320081E090E002C0880F991F2A95E2F780952B
S11332102081282320830093180112C00F5F1F4FC1
S11332200130110511F400E010E0D02E802F0E942F
S1133230E9068823C9F60E151F0581F74FEF50E004
S1133240409389028FEF8093020181E080931901FA
S113325082E00E949101CFBE992009F03EC66EE93A
S113326072E070934701609346018091000180935E
S11332709E02A092A0028B2D992780939F02809199
S1133280A1022091A2029927982F88273327822B05
S1133290932B8F5F9F4F09F420C68091A20188234E
S11332A009F01BC645E06C5070408FE190E00E942D
S11332B07A12882309F011C6FCC08FB7F8949927B5
S11332C02091A0012093030123E020931F018FBFCD
S11332D080910301882321F0813009F0FEC50EC0DE
S11332E0169A1E9A0E94AE06AB01BC01A1E0EA2E1A
S11332F00AE010E020E030E081E00DC0159A1D9A4C
S11333000E94AE06AB01BC01F1E0EF2E0AE010E032
S113331020E030E082E00E940E0FDFC51092C6016B
S1133320DCC58FB7F8949927209188012093040174
S113333023E0209321018FBF0091040181E00E94CA
S11333401B06882309F4C9C580912501882309F047
S1133350C4C582E08093C60111E0109328030E9443
S113336030061093250100933B03B7C50E94EA057C
S1133370B4C580912401813009F0AFC51D9815981A
S11333808CE00E949101A9C581E00E94840D1092F5
S1133390240180912301813011F40E94EA058FB742
S11333A0F8949927109223011092220155C5109286
S11333B02501A0902A03B0902B0390903B038FB774
S11333C0F894C82E80912101833009F041C0809186
S11333D004018915E9F580919101882309F077C5E5
S11333E06DC5ED2DE695E695E695FF274D2D552700
S11333F0EF56FE4F9A012770307081E090E002C0D2
S1133400880F991F2A95E2F780952081282320832D
S11334100093200112C00F5F1F4F0130110511F4FA
S113342000E010E0D02E802F0E94FE058823C9F60C
S11334300E151F0581F74FEF50E0409388018FEF81
S11334408093040181E08093210189E00E9491012D
S1133450CFBE992009F041C56EE972E0709347012F
S1133460609346018091000180939E02A092A20283
S11334708B2D99278093A10280919F022091A00215
S11334809927982F88273327822B932B8F5F9F4F61
S113349009F423C58091A201882309F01EC545E0E3
S11334A06C5070408FE190E00E947A12882309F0FA
S11334B014C581E08093A2010E9412060EC50FB7C5
S11334C0F894112781E00E94620541E0E42EF12C7A
S11334D0F0922D01E0922C0110922E0110926401C1
S11334E010928F010FBF0FB7F89411270E94AE03FB
S11334F0F0928701E09286011092980189B78F7B40
S113350089BF80E488BF8AB780628ABF8AB78F7E0A
S11335108ABF89B7806489BF0FBF8FB7F894082F1B
S113352011278091270190912801049719F483E0D1
S11335300E942D0F0FBF0FB7F8941127C09A80E097
S11335400E9432100FBF8FB7F894992722E020937E
S11335507C028FBF1092A201C0C48FB7F894992740
S113356010927C0279C48FB7F8949927F0902601C1
S11335708FBF63E081E00E949D02882359F10FB759
S1133580F894112710922D0110922C0187B78F7E89
S113359087BF87B78F7D87BF83E00E943210C09AB0
S11335A00FBF0FB7F894112710928701109286016C
S11335B00E94AE03C09A89B78F7B89BF0FBF109258
S11335C0280110922701DE98DD98DE9A8FE00E9490
S11335D0910107C08FB7F894992722E020937C02C9
S11335E08FBF0091C9011091CA010E94A703809165
S11335F02D0390912E03892B09F06FC48FEF8093D4
S11336000C014F2DB801ECC28FB7F894282F332743
S1133610122F80913803882301F581E080933803C9
S11336208091270190912801049721F481E00E9460
S1133630230D03C082E10E9491011FBF4EC48FB7C6
S1133640F89499271092380307C48FB7F894282F59
S1133650332780912901882311F02FBF3EC42FBF47
S113366080B3992736E0969587953A95E1F7182F18
S113367011709091BA018091BB018917D9F0191783
S1133680C9F484E090E090932801809327018FB7D8
S1133690F894992721E0209329018FBF60E070E01E
S11336A08DE10E94C6100E94A80CC09AC0988EE0BA
S11336B00E9491011093BB0183E163CE8FB7F8940C
S11336C09927109105018FBF123009F465C013309A
S11336D030F4112359F0113009F0FFC348C01330FE
S11336E009F474C0143009F0F8C3A0C0C0988FB7AF
S11336F0F894082F112780912701909128010297AF
S113370009F06BC383E090E0909328018093270134
S113371068E170E08DE10E94C61081E08093BA01F7
S11337201092290180B3992726E0969587952A95CA
S1133730E1F7817090708093BB0183E10E94910155
S113374081E00E942D0F6FE772E08CE10E94C610A9
S11337500E9427110E94ED1066E57AE287E10E943B
S1133760C6106FEF70E885E10E94C61036C3C0989A
S113377086E00E942D0F0E9427110E94ED100E94E6
S1133780A80CC09AC09883E00E942D0FC09A81E0D3
S11337900E94321082E1F5CDC0988FB7F894082FBB
S11337A0112760E080E00E949D02882311F00FBF82
S11337B00AC00FBF83E50E940C0380E00E940C0343
S11337C080E00E940C03C09A82E02DC08FB7F89469
S11337D0992720912C018FBF243039F0283041F0F3
S11337E0223001F50E94381178C30E94EB1475C38E
S11337F0C09889E00E942D0FC09A83E00E94321085
S11338008FB7F894992721E030E030932D0120936D
S11338102C018FBF8FB7F8949927109326018FBF7F
S113382080E1AFCD83E00E94321057C30E947A0F2B
S113383054C30FB7F894112740914801509149019E
S113384060916E0270916F02809131039091320306
S113385010926F0210926E02109232031092310392
S113386010924901109248011092D5011092D4018E
S113387020E00E94D315B1C20FB7F894112782E05B
S113388080932B010E94BA020FBF80910801882304
S113389009F023C3B89AC09884E173CDA091440180
S11338A0B09145011C919D01210F311DF9018081C9
S11338B0881F8827881FFD0183A7F90180818F77DE
S11338C0FD0181A721503040F9018081FD0180A7CD
S11338D0A0914401B0914501FD0132818FB7F89464
S11338E09927209192018FBF222309F490C0832F3E
S11338F099279695879596958795837090708230D1
S1133900910541F5878146812FB7F894332760915B
S1133910B8017091B9012FBF9927982F882755278F
S1133920842B952B8617970719F481E090E06CC0DF
S1133930FD018781268140E050E09927982F882750
S11339403327822B932B8F5F9F4F11F441E050E07C
S1133950CA015AC0039709F01AC19E012F5F3F4F55
S113396041E852E088E0FA010190AF01F9010192C7
S11339709F018150C1F79E012F5D3F4FAE014F5F04
S11339805F4F88E0FA010190AF01F90101929F01B4
S11339908150C1F79E01275F3F4FAE014F5D5F4FDE
S11339A088E0FA010190AF01F90101929F01815071
S11339B0C1F79E012F5E3F4FAE01475F5F4F88E026
S11339C0FA010190AF01F90101929F018150C1F701
S11339D09E01275E3F4FAE014F5E5F4F88E0FA01C4
S11339E00190AF01F90101929F018150C1F748E0B4
S11339F050E0BE01675E7F4FCD0106960E9486238C
S1133A00892B09F0C4C003C0882309F4C0C01D3049
S1133A1008F4BDC0E0904401F0904501F701228113
S1133A20822F992736E0969587953A95E1F7039783
S1133A3019F468E070E002C062E070E0822F992718
S1133A40969587959695879583709070039719F44A
S1133A5088E090E002C082E090E026E030E0E20EF0
S1133A60F31E40E050E020E030E0F701E80FF91FDA
S1133A708AEF9FEFE80EF91E05C08191480F511D92
S1133A802F5F3F4F26173707C4F3F70163818FEF8A
S1133A9080932F038FB7F894782F20E030E0EFE481
S1133AA0F1E0808191818417950729F4828186173A
S1133AB031F120932F032F5F3F4F3396243031058C
S1133AC081F77FBF90912F033FB7F8949F3F21F078
S1133AD080912F018917A9F420912F01822F992712
S1133AE0FC01EE0FFF1FE80FF91FE15BFE4F51834E
S1133AF0408362832F5F237020932F010EC07FBF0A
S1133B0042C0892F9927FC01EE0FFF1FE80FF91F10
S1133B10E15BFE4F518340836283832F99278FBFDC
S1133B200FB7F8941127C7010E943F02FC0190814E
S1133B300FBFF70183A5882331F19F3321F58781D6
S1133B4046812FB7F89433276091090170910A01D7
S1133B502FBF9927982F88275527842B952B8617B5
S1133B60970759F0878126819927982F882733272B
S1133B70822B932B8F5F9F4F31F4F701838589301C
S1133B8011F4EE24FF24F0924501E09244018FB732
S1133B90F8949927109298018FBF0E9480109DC1BC
S1133BA09091AA0180910C01981709F496C1909301
S1133BB00C019923D1F400913001109131016091ED
S1133BC0C701C8010E947E11482F5527442309F4D8
S1133BD084C18FEF80930C016091300170913101A9
S1133BE0F80183850E94FD1278C18FEF80930C0148
S1133BF074C120912C03812F8223C1F0E92FFF2768
S1133C00EE0FFF1FEA52FE4F408151811182108254
S1133C10812F8095282320932C03992339F463E082
S1133C20CA010E942602110F91E0E3CF9F5F9830F2
S1133C3008F053C1110FDDCF80910F01E82FFF274A
S1133C40EE0FFF1FEA52FE4F6081718141E00E9436
S1133C50BD1243C18FB7F8941092350320917302BB
S1133C6040E0283009F441E030E0293009F431E043
S1133C70442311F4332351F010927302E091DE01D6
S1133C80FF27EE0FFF1FEE53FE4F108299278FBFC1
S1133C90442311F4332331F19FB7F894809127031F
S1133CA08F5F809327038091B301833479F420914B
S1133CB0CD018091CC01821779F0822F8F5F8093A0
S1133CC0CD01863048F01092CD0106C0A0E0442317
S1133CD009F4A1E071E002C0A0E070E0892F992707
S1133CE08FBF06C0222311F0FF246DC0A0E070E056
S1133CF08FB7F8949927209132018FBF222341F086
S1133D008FB7F89499272AE0209373028FBF42C09B
S1133D108FB7F89499276091C2014091C4018FBF75
S1133D208FB7F894282F332750E09091CC018091DD
S1133D30CD01981709F451E02FBF552341F56623AF
S1133D4031F55FB7F89482E08093C2018FB7F8949D
S1133D50282F332740E09091CC018091CD01981712
S1133D6009F441E02FBF442311F080E006C0E09144
S1133D70CD01FF27E453FE4F82818093C30183E486
S1133D808093B3011092DE01852F99270EC0415014
S1133D90423010F0FF240CC08FB7F894992725E423
S1133DA02093B30121E02093DE018FBF21E0F22EA6
S1133DB0772349F08FB7F8949927A0933B018FBFDD
S1133DC08FE10E9491018FB7F894082F11278091F9
S1133DD073028A3021F40E94B8010FBF7EC00FBF66
S1133DE0FF2009F47AC02FB7F894332710923D03CB
S1133DF010923C031092AD0181E0809373022FBFB7
S1133E000E94FE01882309F468C08FB7F8949927AB
S1133E1029E0209373028FBF0E9412025EC056985D
S1133E2057981092700210929C01539A549A579A80
S1133E308FB7F894992710927302109299010CC0CD
S1133E408EE19FCA5398549848C01092380110923A
S1133E5037018FB7F894992720C08FB7F894992722
S1133E602091400130914101409162018FBF8FB791
S1133E70F894E42FFF27EE0FFF1FEF5EFE4F318310
S1133E80208320913301442311F02B7F01C02D7F27
S1133E902093330110923E0199278FBF1EC081E009
S1133EA0809302011092190180931A0184E0D1C910
S1133EB080911801E82EFF248701B0C981E0809326
S1133EC0040110922101809322018BE0BFCA8091EA
S1133ED02001E82EFF2487019ECAA8960FB6F89405
S1133EE0DEBF0FBECDBFDF91CF911F910F91FF9029
S1133EF0EF90DF90CF90BF90AF909F900895809106
S1133F0024038F3FB1F0282F3327F901EB59FE4FDB
S1133F108081809324038F3F11F4809339038FEFC2
S1133F2080832F3F31F0822F0E94DF1781E090E0E1
S1133F30089580E090E00895CFECD0E1DEBFCDBFDE
S1133F40EFB6F89441E250E06FEF70E085E691E05F
S1133F500E9493238FEF809324038093390381E09D
S1133F608EBD88E080BF83E083BF8CB59DB54AE7F2
S1133F702CB53DB52817390708F44150442311F0F6
S1133F80C901F6CF92B782B78917E9F32CB53DB5CD
S1133F9092B782B78917E9F38CB59DB5821B930B51
S1133FA0409635E0969587953A95E1F790932603E8
S1133FB08093250313BE83B78EBD8EB580BF12BE1A
S1133FC01DBC1CBC8FEF86BF86B780937C0080B776
S1133FD0992787709070892BD1F7D29AD19AD09A69
S1133FE0DA9AD99AD89A15BA8FEF84BBD498DC9808
S1133FF0109289001092880080917D0084608093E3
S11340007D0080918A00887F826080938A001DBC35
S11340101CBC87B7846087BF8EB5887F84608EBDE3
S113402016B80E947F1F8823E1F712E006E0609132
S1134030250370912603882799272CE0660F771FA4
S1134040881F991F2A95D1F720E031EE40E050E017
S11340500E94CD232150304029B9832F9927809382
S113406090001BB9009395001AB82093990080938F
S1134070980010939B0000939D0010929A0084E492
S113408090E09093C7028093C6021092C2011092EE
S1134090C4018AE0809373021092AD011092B301BF
S11340A01092270310923D0310923C0310923503A3
S11340B01092DE0110928E0210928D0284E08093A1
S11340C09901109275021092CA0210929D011092E9
S11340D0DB011092DA011092CD011092CC018FEF26
S11340E080939401EFE4F1E08FEF9FEF918380835D
S11340F01282339621E0EB35F207C1F70E94C9031F
S113410060938C0280910001909101010196AA278D
S1134110BB278093A5019093A601A093A701B09318
S1134120A8018FEE92E090934501809344018E980C
S1134130B89A8C988FEF8093B20110927B02109200
S11341407C0210927D0210927E02B89AD69AD59A79
S11341508FB7F89499272091090130910A018FBFF4
S11341603093B9012093B8010E949A0729A73AA76E
S11341704BA75CA76DA77EA78FA798ABDE0191968E
S1134180FE01B99688E001900D928150E1F7DE01BD
S11341905196FE01B19688E001900D928150E1F7AD
S11341A0DE015996FE01719688E001900D928150CE
S11341B0E1F7A1E8B2E0FE01799688E001900D9262
S11341C08150E1F780910B01992790939F0180938F
S11341D09E018FE1809376028AE180938A020E9495
S11341E09A0729A73AA74BA75CA76DA77EA78FA715
S11341F098ABDE019196FE01B99688E001900D928C
S11342008150E1F7DE011196FE01B19688E001903C
S11342100D928150E1F7DE011996FE01319688E096
S113422001900D928150E1F7A1E8B2E0FE013996C8
S113423088E001900D928150E1F7A1E8B2E0FD0120
S113424037969C9180818D939083319782E0E438F6
S1134250F807B9F781E080939201109230038093BC
S1134260A1011092800210929101109263011092A8
S1134270E10180B7886080BF8BE083BF86EE81BF99
S113428087B7826087BF0E94FD060E947F1F882334
S1134290E1F78E2D99278FBF78941092E001109248
S11342A0DF018EE992E0909347018093460180916B
S11342B0000180939E028FEF8093A00280939F025F
S11342C00E94AE06AB01BC01EE2400E014E020E045
S11342D030E080E00E940E0F61E081E00E948302E2
S11342E08823E9F48FB7F894282F33278091270186
S11342F090912801892B11F02FBF1BC081E090E021
S113430090932801809327012FBFDD9A0E944904CE
S113431024E130E040E050E00E9406050AC062E07B
S113432081E00E949D02882321F461E081E00E94E3
S11343309D028FB7F894482F55274CC087B799270B
S113434083709070892B19F4E5E0F0E013C080B716
S1134350992787709070892BD1F781B792B7891B01
S11343608C3030F082B7853F18F4E3E0F0E002C00F
S1134370E2E0F0E087B7887BC1F480917D008B7F19
S1134380A1F46E9912C08AB190919A00892B887118
S113439061F48091740082FD08C0379B03C081E002
S11343A090E005C085E090E002C080E090E025B791
S11343B08E1708F4E82FFF27E253FD4FC895E02D30
S11343C0237E2062E22BE5BF78948895F89485B724
S11343D08F7D85BF809124038F3F09F4AFCF282FB1
S11343E03327F901EB59FE4F8081809324038F3FDB
S11343F011F4809339038FEF80832F3F09F49ECF0C
S11344004FBF822F0E94DF1794CFACE2B0E0EBE005
S1134410F2E20C940E24222E332E442E552E662EB8
S1134420772E882E992EFE013196A8E01192AA9536
S1134430E9F729823A824B825C826D827E828F8286
S11344409886FE013996B8E01192BA95E9F7A986E3
S1134450BA86CB86DC86ED86FE860F87188B89812B
S11344609A81AB81BC8189A79AA7ABA7BCA77C0121
S11344708D018FEF9FEFA0E0B0E0E822F9220A233C
S11344801B2389A59AA5ABA5BCA51D0144245524CD
S113449089859A85AB85BC858DA39EA3AFA3B8A758
S11344A05C016D018FEF9FEFA0E0B0E0A822B9227C
S11344B0CA22DB228DA19EA1AFA1B8A53D0188240B
S11344C09924C801B701A60195010E94EF2369A3AD
S11344D07AA38BA39CA3C801B701A40193010E94F2
S11344E0EF237B018C01C201B101A60195010E9459
S11344F0EF235B016C01C201B101A40193010E948D
S1134500EF233B014C01EA0CFB1C0C1D1D1D89A172
S11345109AA1ABA1BCA19D01442755272E0D3F1D97
S1134520401F511F2A153B054C055D0540F480E0F2
S113453090E0A1E0B0E0680E791E8A1E9B1ECA01BD
S1134540AA27BB27860D971DA81DB91D8D8F9E8F89
S1134550AF8FB8A3A9013327222789A19AA1ABA1C0
S1134560BCA1A070B070280F391F4A1F5B1F298F90
S11345703A8F4B8F5C8FA98CBA8CCB8CDC8CED8CF6
S1134580FE8C0F8D18A1FE01719698E011929A95F8
S1134590E9F7ED8AFE8A0F8B188F2D813E814F81BA
S11345A058856DA17EA18FA198A50E94EF233B01A0
S11345B04C012D853E854F85588969A57AA58BA523
S11345C09CA50E94EF232D893E894F89588D260F83
S11345D0371F481F591F260D371D481D591D2D8B88
S11345E03E8B4F8B588F6D887E888F88988C2A2DB0
S11345F03B2D4C2D5D2D662D772D882D992DE2E1D7
S1134600AC960C942A24A0E1B0E0E9E0F3E20C9427
S11346100E24222E332E442E552E662E772E882ECF
S1134620992E002309F466C088E0FE0131961192A8
S11346308A95E9F729833A834B835C836D837E8370
S11346408F829887E0E2E01B1E16CCF52D813E8117
S11346504F815885602F772767FD7095DA01C9016E
S1134660062E04C0B695A795979587950A94D2F718
S11346708D879E87AF87B88B04C0220F331F441FDA
S1134680551FEA95D2F789819A81AB81BC8104C018
S1134690B695A795979587956A95D2F7282B392BC8
S11346A04A2B5B2B29873A874B875C8729843A847A
S11346B04B845C846D847E848F8498881BC01D86A3
S11346C01E861F86188A2E2F332727FD3095309596
S11346D021953F4F8D819E81AF81B88504C0B695E9
S11346E0A795979587952A95D2F789879A87AB8757
S11346F0BC87DCCF222D332D442D552D662D772DEF
S1134700882D992DE2E160960C942A24FB01DC01AA
S113471004C08D910190801921F441505040C8F794
S1134720881B990B0895DC0101C06D9341505040E2
S1134730E0F70895991B79E004C0991F961708F0D3
S1134740961B881F7A95C9F780950895AA1BBB1BF1
S113475051E107C0AA1FBB1FA617B70710F0A61B7D
S1134760B70B881F991F5A95A9F780959095BC019E
S1134770CD01089597FB092E07260AD077FD04D0B2
S1134780E5DF06D000201AF4709561957F4F0895F7
S1134790F6F7909581959F4F0895A1E21A2EAA1BD2
S11347A0BB1BFD010DC0AA1FBB1FEE1FFF1FA217DD
S11347B0B307E407F50720F0A21BB30BE40BF50BDA
S11347C0661F771F881F991F1A9469F76095709563
S11347D0809590959B01AC01BD01CF010895629F26
S11347E0D001739FF001829FE00DF11D649FE00DE5
S11347F0F11D929FF00D839FF00D749FF00D659F46
S1134800F00D9927729FB00DE11DF91F639FB00D44
S1134810E11DF91FBD01CF01112408952F923F928C
S11348204F925F926F927F928F929F92AF92BF92BC
S1134830CF92DF92EF92FF920F931F93CF93DF9368
S1134840CDB7DEB7CA1BDB0B0FB6F894DEBF0FBEC5
S1134850CDBF09942A88398848885F846E847D8412
S11348608C849B84AA84B984C884DF80EE80FD8014
S11348700C811B81AA81B981CE0FD11D0FB6F8948A
S10F4880DEBF0FBECDBFED010895FFCFD9
S113488C0100010201FFFFFFFF010022FFFFFF01F6
S10B489CFF06023A02060200C5
S9030000FC
