S01800006275696C642F6D6963617A2F6D61696E2E73726563E5
S11300000C945A000C94DD050C94E7050C94F1054E
S11300100C94FB050C9405060C940F060C946608CE
S11300200C9419060C9479000C9479000C94A10B8F
S11300300C9449170C94A7050C94BD050C94230645
S11300400C9496050C946A0F0C9479000C94790026
S11300500C9479000C9424050C9479000C94790088
S11300600C94B2050C9479000C9479000C947900EA
S11300700C9479000C9479000C9479000C94790018
S11300800C9479000C9479000C947900F80F1010FA
S1130090B2100A11101161117C118311BC11791273
S11300A09C12AE124B147E14D614F00F20150008C7
S11300B01C18141011241FBECFEFD0E1DEBFCDBF3A
S11300C011E0A0E0B1E0EAEEF3E300E00BBF02C010
S11300D007900D92AE30B107D9F712E0AEE0B1E06F
S11300E001C01D92A536B107E1F70E946C150C946E
S11300F0F4190C9400008FB7F894992708958FBFD2
S11301000895FC0182819927582F442781819927DA
S1130110482B592BCA01892F992786958695837078
S113012090708230910559F08330910559F0892BF4
S113013019F420E030E008C02CE93FEF05C022E0CC
S113014030E002C028E030E0CA0184E0989F812DAD
S1130150992711248230910559F08330910559F083
S1130160892B19F480E090E008C08CE99FEF05C06A
S113017082E090E002C088E090E0280F391F2A5FF7
S11301803F4FCF01820F931F0895282F9FB7F894F4
S1130190662349F0E82FFF27E751FE4F808188232B
S11301A011F021E006C0E22FFF27E751FE4F6083E4
S11301B020E0892F99278FBF822F99270895E82F50
S11301C08FB7F894282F332790E0FF27E751FE4F8D
S11301D08081861709F491E02FBF892F992708950C
S11301E0882311F06E9A08956E980895882311F06B
S11301F06F9A08956F98089580E00E94F000BA9A6B
S1130200BB98B99AB89A6C9A80E00E94F6006B98F1
S11302106A9881E00E94F000709A8DB18C7F8DB94C
S113022008950F931F93CF93DF93182F8FB7F894EC
S1130230C82FDD270C2F61E080E00E94C5008823D1
S113024021F0CFBF85E090E024C08091060188238F
S1130250A1F480911601823081F409C082E0809378
S11302601601109206010E94FC00B89AC0981093DF
S1130270030180E00FBF99270CC0809116018823E9
S113028069F38FB7F89499271092E9018FBF81E041
S1130290F1CFDF91CF911F910F910895282F9FB730
S11302A0F894E82FFF27E259FE4F80818F3F81F4B5
S11302B0E0916302E21771F40BC02093540204C06E
S11302C0FF27E259FE4F20832093630220E007C0FA
S11302D025E005C0809154028F3F91F7EECF892F1E
S11302E099278FBF822F992708951F93182F81E094
S11302F00E94F0001FB9779BFECF8FB199271F9101
S113030008958F929F92AF92BF92CF92DF92EF9215
S1130310FF920F931F93CF93DF938FB7F89499278E
S1130320C0905E02D0905F028090E0019090E10165
S1130330C091AC01D091AD0120911F0130912001F9
S1130340EAE0AE2EB12CAC0EBD1E2A153B0508F416
S113035059018FBF7401EC0EFD1E86010C0F1D1F89
S113036014C0C114D10419F0F801808101C080E0E7
S11303700E9475018114910411F0F7018083219684
S11303800894E11CF11C0F5F1F4FC5010197C817AA
S1130390D90738F381E00E94F6009FB7F894C1149E
S11303A0D10431F0CC0EDD1EF60180818FB901C07D
S11303B01FB8D093AD01C093AC01892F99278FBF8B
S11303C080E090E0DF91CF911F910F91FF90EF902B
S11303D0DF90CF90BF90AF909F908F9008952FB7EC
S11303E0F89433275093200140931F0190935F02A8
S11303F080935E027093E1016093E0011092AD017D
S11304001092AC012FBF452B29F08FB10E948101BE
S11304109927089589E00E944E0180E090E00895B4
S11304208FB7F89499271092EB018FBF08957FB787
S1130430F89462B720912201309123014091240164
S11304405091250106B601FE0FC081B792B7280F5F
S1130450311D411D511D2F5F3F4F4F4F5F4F290FDE
S1130460311D411D511D04C0260F311D411D511D5B
S1130470872F99278FBFCA01B90108958FB7F894C0
S113048099272BB331E023272BBB8FBF0895982FD7
S1130490969596959695E2EBF1E0E90FF11D87703C
S11304A021E030E002C0220F331F8A95E2F78081F9
S11304B0822399270895DF92EF92FF920F931F935F
S11304C08FB7F894282F3327D22E91B782B746B727
S11304D0981711F041FF02C02FBF6AC08091AB0191
S11304E08823E1F10E941702E090E501F090E60113
S11304F00091E7011091E8012091680130916901B0
S113050040916A0150916B016E197F09800B910B28
S1130510621773078407950720F01092AB0171E00E
S11305201EC02E0D3F1D401F511F8091220190912E
S11305302301A0912401B0912501281B390B4A0BFA
S11305405B0B273E31054105510540F4822F2230D3
S113055010F070E005C070E082E002C070E086EE4A
S1130560682F615000B601FCFDCF82B7681709F40B
S11305706F5F209122013091230140912401509119
S11305802501DA01C9010196A11DB11D860F911D36
S1130590A11DB11D82179307A407B50710F4622F9C
S11305A0609561BFDFBE772319F08CE00E944E0195
S11305B01F910F91FF90EF90DF900895AFB7F894DB
S11305C0BB27E1E0E093AB016093E5017093E601A2
S11305D08093E7019093E8012093680130936901C7
S11305E040936A0150936B01AFBF0E945B02089570
S11305F080E880936C0110928A0110925802109244
S11306005302109286010895CF93DF93FC0115A63F
S1130610DC019E96ED011B821A82198280E886A76E
S1130620DF91CF9108952F923F924F925F926F92F4
S11306307F928F929F92AF92BF92CF92DF92EF926E
S1130640FF920F931F93CF93DF93CDB7DEB7289715
S11306500FB6F894DEBF0FBECDBF2090900130904E
S1130660910140909201509093016624772488244C
S1130670BEE4AB2EA3E8BA2ECC24DD24EE24FF2462
S113068000E010E0222D332D442D552D662D772DBD
S1130690882D90E00E94D61729833A834B835C838C
S11306A06D837E838F839887822E932EA42EB52EFE
S11306B02401350100E20E94D418A22EB32EC42EC8
S11306C0D52EC301B20196958795779567956A0DE6
S11306D07B1D8C1D9D1D97FF05C09F776F5F7F4F0E
S11306E08F4F9F4F6093900170939101809392017B
S11306F09093930128960FB6F894DEBF0FBECDBF3A
S1130700DF91CF911F910F91FF90EF90DF90CF90E9
S1130710BF90AF909F908F907F906F905F904F901D
S11307203F902F9008958FB7F8946091B001709125
S1130730B1012CB53DB506B602FE04C06F5F7F4F14
S11307402CB53DB599278FBF88279927CB017727EB
S1130750662744275527622B732B842B952B0895EA
S1130760EF92FF920F931F930E9493037B018C01DE
S113077020919A0130919B0140919C0150919D01DF
S11307808091950190919601A0919701B091980163
S1130790820F931FA41FB51FE216F3060407150763
S11307A030F082179307A407B50758F005C08217E5
S11307B09307A407B507E0F5E816F9060A071B072F
S11307C0B8F59C01AD012E193F09400B510B2130A6
S11307D060E8360760E0460760E0560768F180E0AD
S11307E090E8A0E0B0E0E80EF91E0A1F1B1FE0929B
S11307F09A01F0929B0100939C0110939D0180E06B
S113080090E8AFEFBFEFE80EF91E0A1F1B1F205040
S113081030484040504020939501309396014093D6
S113082097015093980120E030E840E050E014C074
S113083020E030E040E050E080939A0190939B01E7
S1130840A0939C01B0939D01109295011092960182
S11308501092970110929801A901B7012CB53DB5EA
S1130860C9018E199F0903968417950720F0B901D1
S11308706D5F7F4F02C0640F751F6115710511F420
S113088061E070E0615070407BBD6ABD80E186BF6D
S113089087B7806187BF1F910F91FF90EF900895F4
S11308A00F931F930FB7F894112760939A017093D5
S11308B09B0180939C0190939D012093950130931B
S11308C0960140939701509398010E94B0030FBF83
S11308D01F910F91089597B79F7D97BF90E296BFA0
S11308E0882319F08EB5806402C08EB58F7B8EBDCF
S11308F087B7806287BF80E090E0089580915702B7
S1130900882319F02FE170E002C078E02EE1622F15
S1130910EFB7F894809184018E7F8093840187B12E
S1130920982F9F71829586958695837019F080E043
S113093090E012C0822F8850863118F081E090E058
S11309400BC040E050E03327892F99272817390737
S113095011F441E050E0CA01982F9170990F8091F1
S113096084018178262F2F71422F440F440F892B45
S1130970842B80938401332727B9783059F58091EB
S113098055029091560221E08638920718F087E0CC
S113099090E01FC0833C910518F086E090E019C0F8
S11309A08136910518F085E090E013C080339105FD
S11309B018F084E090E00DC08831910518F083E0D0
S11309C090E007C00C9718F082E090E002C080E04D
S11309D090E0782F7770887D872B886D992786B96A
S11309E08E2F99278FBF0895AF92BF92CF92DF9237
S11309F0EF92FF920F931F93CF93DF93CDB7DEB7A0
S1130A0028970FB6F894DEBF0FBECDBF20E070E08C
S1130A10E0910001F091010132E14DE65CE46FE404
S1130A20809101019E2F28960FB6F894DEBF0FBE69
S1130A30CDBFDF91CF911F910F91FF90EF90DF9089
S1130A40CF90BF90AF9008951F920F920FB60F9260
S1130A5011242F933F934F935F936F937F938F93BF
S1130A609F93AF93BF93EF93FF9344B155B17894A1
S1130A708FB7F894992720918401322F36953170DD
S1130A8021708FBF2223D9F433988091A60181303D
S1130A9021F0823009F039C00AC0332351F0509359
S1130AA0E3014093E20181E00E944E012EC0332312
S1130AB019F40E947E0429C01092A60126C08FB7A3
S1130AC0F89499278FBF2FB7F894332786B1582FFE
S1130AD05770482F4072987D942B952B8074977B88
S1130AE0982B90619F77892F992786B9887D842BCD
S1130AF0852B87738061992786B9887D842B852B04
S1130B00877B8069992786B92FBFFF91EF91BF91A9
S1130B10AF919F918F917F916F915F914F913F9191
S1130B202F910F900FBE0F901F9018951F920F9248
S1130B300FB60F9211248F9383B783BF00B600FCC6
S1130B40FDCF8F910F900FBE0F901F901895789442
S1130B501F920F920FB60F9211240F900FBE0F9099
S1130B601F90189578941F920F920FB60F9211242C
S1130B700F900FBE0F901F90189578941F920F92AC
S1130B800FB60F9211242F933F938F939F932FB7F8
S1130B90F89433278091B0019091B101019690931C
S1130BA0B1018093B0012FBF9F918F913F912F91FD
S1130BB00F900FBE0F901F9018951F920F920FB6B3
S1130BC00F9211240F900FBE0F901F9018951F9233
S1130BD00F920FB60F9211240F900FBE0F901F901B
S1130BE018951F920F920FB60F9211240F900FBEFB
S1130BF00F901F9018951F920F920FB60F92112409
S1130C000F900FBE0F901F9018951F920F920FB662
S1130C100F9211240F900FBE0F901F9018951F92E2
S1130C200F920FB60F9211240F900FBE0F901F90CA
S1130C3018951F920F920FB60F9211240F900FBEAA
S1130C400F901F9018951F920F920FB60F921124B8
S1130C502F933F934F935F936F937F938F939F93C0
S1130C60AF93BF93EF93FF9383B783BF00B600FCAA
S1130C70FDCF81B799270196AA27BB27209122018E
S1130C80309123014091240150912501280F391FEF
S1130C904A1F5B1F209322013093230140932401B8
S1130CA05093250178940E945B02FF91EF91BF91CC
S1130CB0AF919F918F917F916F915F914F913F91F0
S1130CC02F910F900FBE0F901F901895AF92BF9267
S1130CD0CF92DF92EF92FF920F931F93CF93DF9304
S1130CE05B016C01C0E0D0E0E3EBF1E0608561FF03
S1130CF06AC02081318142815381E480F58006817C
S1130D001781D601C501821B930BA40BB50B8E155D
S1130D109F05A007B10708F456C060FF03C06D7FAC
S1130D20608708C02E0D3F1D401F511F2083318353
S1130D3042835383C13021F0C43009F04AC040C01B
S1130D408FB7F894082F112780911001882349F553
S1130D5081E0809310011092F7010FBF8FB7F894D0
S1130D609927379A8FBF8FB7F894082F1127902FA0
S1130D7080910201813099F480911001813021F435
S1130D8080E00E944E0109C0823049F48091F7014D
S1130D908093020183E0809310010FBF1AC09FBFAC
S1130DA018C08091F7018823C1F380E00E944702B4
S1130DB0882399F78091B20181608093B201EDCFCD
S1130DC00E943E0206C021963996C530D10509F02D
S1130DD08DCF8DE00E944E01DF91CF911F910F9135
S1130DE0FF90EF90DF90CF90BF90AF900895EF9277
S1130DF00F931F93AE2D99E0899FF0011124ED54B8
S1130E00FE4F408351836283738304831583268357
S1130E103783A17080858E7F8A2B826080878DE0E6
S1130E200E944E011F910F91EF9008950F931F930D
S1130E30182F0FB7F89461E080E00E94C500882362
S1130E4041F51093030180910601882379F580917F
S1130E501601823059F588E006C081E080931601BE
S1130E60109206018AE00E944E012AC080919901E5
S1130E708F3F31F5E0910501EE2311F11CC0109272
S1130E80040104C0FF27E756FE4F108210920501AB
S1130E9017C081E090E002C0880F991F1A95E2F70D
S1130EA020911501282B209315010AC08091160169
S1130EB08823E1F6D2CF809104018F3F19F7DFCF69
S1130EC0802F99278FBF80E090E01F910F910895A4
S1130ED01F9383E00E9411019927182F882319F08A
S1130EE083E00E941607812F99271F910895CF92BE
S1130EF0DF92EF92FF920F931F93CF93DF938C01B6
S1130F00F62E6A01E22E8FB7F894C82FDD2760E031
S1130F1080E00E94DF00882321F0CFBF80E090E0D2
S1130F201EC0CFBF0F0D111D802F80680E94750158
S1130F30F82E16950795802F807C0E9475010E2D42
S1130F400AC0EE2DFF27E01BF109EC0DFD1D808189
S1130F500E94750101500023A1F78F2D9927DF917D
S1130F60CF911F910F91FF90EF90DF90CF90089554
S1130F70CF93DF93CDB7DEB72C970FB6F894DEBFCF
S1130F800FBECDBF8FB7F894282FAE014F5F5F4FD0
S1130F90DA01EFEEF1E088E001900D928150E1F783
S1130FA080918B0190918C018987892F99278A8759
S1130FB080919E0190919F018B87892F99278C871F
S1130FC02FBF2CE060E080E691E00E9477072C962A
S1130FD00FB6F894DEBF0FBECDBFDF91CF91089559
S1130FE01F93CF93DF93182F8FB7F894C82FDD2763
S1130FF060E080E00E94DF00882321F0CFBF80E022
S113100090E005C0CFBF812F0E9475019927DF9121
S1131010CF911F910895EF92FF920F931F93CF9357
S1131020DF93182F7B01042F8FB7F894C82FDD2787
S113103060E080E00E94DF00882321F0CFBF80E0E1
S113104090E014C0CFBF1064812F99279093A3011F
S11310508093A2010E947501182F402F5527B701D4
S113106080E090E00E94EF01812F9927DF91CF91DA
S11310701F910F91FF90EF900895C09860911D010A
S113108070911E0141E08FE30E940B08089582E0F5
S113109090E09093800180937F0181E080938A01A6
S11310A020E030E080910301843011F421E030E04D
S11310B0232B29F484E00E941101882319F40E944F
S11310C03D08089584E00E94160708951F920F9228
S11310D00FB60F9211242F933F934F935F936F9307
S11310E07F938F939F93AF93BF93EF93FF938091DD
S11310F07F0190918001019749F482E090E0909300
S1131100800180937F010E94470805C08091860179
S11311108F5F80938601FF91EF91BF91AF919F9173
S11311208F917F916F915F914F913F912F910F908C
S11311300FBE0F901F9018951F938091150188235F
S113114009F048C0109103011F3F09F043C060E05B
S11311500E94DF008823F1F181E08093F9018091FE
S11311606D018823D1F11092F90185E090E03BC034
S1131170809116018230A9F5C09A8091040120E083
S113118030E08F3F11F421E030E0232BD9F48F3F7E
S113119019F42FEF30E00DC0282F3327F901E7565B
S11311A0FE4F8081809304018F3F11F480930501E9
S11311B010832093060181E0809316018AE00E9447
S11311C04E0104C0109306011092160180E00E94A3
S11311D0F00007C081E090E006C0809106018823FA
S11311E039F280E090E01F9108951F93CF93DF932D
S11311F09FB7F894C92FDD271C2F909103019817EE
S113120021F0CFBF81E090E03AC08FEF80930301DB
S1131210309115013323F1F48FB7F8949927109284
S1131220E9018FBF0E949C08CFBF11C02093030126
S113123081E090E002C0880F991F4A95E2F78095FB
S113124038233093150188E00E944E011FBF80E0CF
S113125090E015C080E065E0E32FFF270E946B1942
S1131260292F492F5527CF01042E02C09595879524
S11312700A94E2F780FDDACF822F8F5FEFCFDF9100
S1131280CF911F9108951F93CF93DF938FB7F89455
S1131290C82FDD271C2F80917F0190918001892B1D
S11312A029F484E00E94F508CFBF1EC010928A0181
S11312B080918601882311F0B79904C00E9908C063
S11312C0882319F08150809386010E9447080BC03F
S11312D081E090E09093800180937F0110928601D9
S11312E084E00E94F5081FBFDF91CF911F910895FC
S11312F00E94F802C09AC09888E00E94F00788E033
S11313000E94F007C09A84E00E94F5080E944309F5
S11313100895FF920F931F93CF93DF93F82E8B01C1
S11313208FB7F894C82FDD2760E080E00E94DF00CB
S1131330882321F0CFBF80E090E00CC0CFBF8F2D79
S11313400E947501812F99270E947501802F0E94A8
S113135075019927DF91CF911F910F91FF90089507
S11313601F931FB7F89480918501882319F460E0D6
S113137070E009C060E080915D02882309F461E0B7
S113138081E06827772780918D01882319F480E014
S113139090E00AC090E08091EE01882309F491E086
S11313A081E09827892F9927762F6627770F770F63
S11313B0770FF4E0880F991FFA95E1F7826E926235
S11313C0682B792B81E10E948909812F99278FBF8E
S11313D01F9108958FB7F89499276091F8018FBFF2
S11313E085E0689FB0011124625D7E4F706488E1DE
S11313F00E9489090895EF92FF921F93CF93DF9380
S1131400E0908E01F0908F01F70182A59927182FA3
S1131410882309F41FE1C09880918301811749F062
S1131420612F77276F717070606E706885E10E941C
S1131430890910938301F70110818FB7F894C82F9D
S1131440DD2760E080E00E94DF00882311F0CFBF39
S113145012C0CFBF8EE390E09093A3018093A201CA
S11314608EE30E9475011150412F552760E070E012
S1131470C7010E94EF01DF91CF911F91FF90EF9080
S113148008950F931F93CF93DF93EC010FB7F89454
S113149011270E948100FC018FE380830FBF10920B
S11314A05B0210925A0261E082E00E94C500882328
S11314B019F085E090E072C08091FA018F5F80930B
S11314C0FA0181508B838FB7F894082F112762E0BB
S11314D081E00E94DF00882329F40FBF0E941002DC
S11314E081E05BC08FB7F894992724E02093EA0148
S11314F08FBFD093AA01C093A9010FBFFE013196FB
S1131500818129819927982F88273327822B932B30
S113151080729C7C8983892F992781832981982FC4
S1131520882733272164822B932B8983892F99273A
S113153081831CA618A619A619AA18AA1FA680E8B2
S11315408EA761E06093ED014091A9015091AA0139
S11315508FB7F894282F33278091170190911801A1
S11315608830910511F0019711F02FBF15C082E06A
S113157090E0909318018093170160936402509354
S11315808F0140938E01109221012FBF0E946807A2
S1131590882311F40E94FB0980E09927DF91CF9101
S11315A01F910F910895CF93DF93DA01422F2D31CC
S11315B018F082E090E05EC0ED018B876E83872F88
S11315C099278F832FB7F894332780918B019091BB
S11315D08C012FBFFD018483892F992785832FB721
S11315E0F894332780910701909108012FBF8887D1
S11315F0892F992789873196818129819927982F65
S11316008827332720643868822B932B8983892F7A
S113161099278183435F4C934D5080910A0188231D
S113162059F010920A01642FCD010E94410A9927B2
S1131630282F8823A9F417C0842F99279093A801F1
S11316408093A701B0931C01A0931B018EE00E941C
S11316504E0180910A01882349F489E090E00AC090
S11316608FEF80930A01822F992704C0109294016E
S113167080E090E0DF91CF9108951F93CF93DF93A3
S1131680182FEB01E82FFF27EE0FFF1FE255FE4F47
S11316901182108210920D01E091AE01F091AF0120
S11316A0309721F08091590280FF0FC081E0809330
S11316B00D0103C080E10E944E011123C1F4C45303
S11316C0D140A9F410920E0112C020812D5033276D
S11316D067817727762F662786819927682B792B50
S11316E0AF0183850E94D30A882339F3E3CFDF91C6
S11316F0CF911F9108959B0180910D01882349F496
S11317006091AE017091AF016217730711F40E94EA
S11317103D0B08951F93182F81E090E090931801DA
S11317208093170110926D010E949C088FB7F89462
S11317309927109311018FBF84E00E944E011F91DD
S1131740089578941F920F920FB60F9211242F923E
S11317503F924F925F926F927F928F929F92AF923D
S1131760BF92CF92DF92EF92FF920F931F932F932A
S11317703F934F935F936F937F938F939F93AF9315
S1131780BF93CF93DF93EF93FF93C6B5D7B58FB7CE
S1131790F894282E0E9493039B012C1B3D0B442795
S11317A055272B013C01421A530A640A750A809199
S11317B01701909118018530910521F0069709F0E1
S11317C0E0C0BFC086E090E09093180180931701B9
S11317D031E0332E309288011092190180E00E948A
S11317E06B04E0918E01F0918F0141AABB27A72DD4
S11317F0962D852D80ABC301AA27BB2787A7872DEC
S11318009927AA27BB2786A7E0918E01F0918F0123
S113181085A5882309F484C06081655077274F012A
S1131820860E971EF4012081E1808281A38099278E
S1131830AA27BB27BA2FA92F982F882733274427F5
S11318405527522F442733272227FF240027112707
S11318508701FF24EE242E293F29402B512BBB2442
S1131860CC24DD242A293B294C295D29822B932B66
S1131870A42BB52B84199509A609B7098383292FAD
S11318803A2F4B2F552722839D0144275527218327
S11318908B2F9927AA27BB278083C09824E0A40113
S11318A080E090E00E947707C09AF4012081E180F3
S11318B08281A3809927AA27BB27BA2FA92F982F03
S11318C08827332744275527522F44273327222795
S11318D0FF24002711278701FF24EE242E293F2906
S11318E0402B512BBB24CC24DD242A293B294C2911
S11318F05D29822B932BA42BB52B840D951DA61D3E
S1131900B71D8383292F3A2F4B2F552722839D01FF
S11319104427552721838B2F9927AA27BB27808308
S1131920E0918E01F0918F01818185FF02C0309298
S11319306D0183E00E94F50887B78F7E87BF849985
S11319407AC01092880181E00E946B04E0918E01BC
S1131950F0918F01818185FF0FC087E090E0909323
S11319601801809317010E94930320E031E040E0C6
S113197050E00E94500403C080E00E948A0B849BC4
S11319805AC080911901882391F580918801882398
S113199071F511E0109388010E946B0480B32091CB
S11319A05302283098F4E0915802E20FFF27E770C1
S11319B0F070EE0FFF1FEE0FFF1FE150FE4F40824D
S11319C05182628273822F5F209353021093190114
S11319D0D093A501C093A40184992DC0992764E0F4
S11319E0969587956A95E1F7182F117001C010E05C
S11319F0809188018130F9F4109288010E946B046F
S1131A00109219011123B9F48091A4019091A501B8
S1131A10C81BD90B2A9778F480915302882319F0B4
S1131A2081508093530280918E0190918F01009791
S1131A3011F00E9404032FBEFF91EF91DF91CF912B
S1131A40BF91AF919F918F917F916F915F914F91D2
S1131A503F912F911F910F91FF90EF90DF90CF90C6
S1131A60BF90AF909F908F907F906F905F904F90BA
S1131A703F902F900F900FBE0F901F901895CF920C
S1131A80DF92EF92FF920F931F93CFB6F894DD2469
S1131A900E941303DC01CB0166E470E00E94771915
S1131AA04BE0E42EF12CE80EF91EF0926102E09274
S1131AB060020E94930300271127A80197010E9446
S1131AC05004CFBE1F910F91FF90EF90DF90CF9005
S1131AD008951F93CF93DF938FB7F894C82FDD2712
S1131AE01C2F80911701909118010897C9F489E07F
S1131AF00E94F00783E00E94F508C09A81E090E01C
S1131B0090931801809317018FB7F894992723E0D5
S1131B10209311018FBF84E00E944E01CFBF30C0DB
S1131B20C09880916402882311F085E001C084E0AC
S1131B300E94F00783FD09C080E00E94F00783FF44
S1131B4004C085E090E020E003C083E090E021E061
S1131B509093180180931701C09A1FBF222341F06C
S1131B601092210183E00E94F5080E943F0D08C0F5
S1131B700E94930320E431E040E050E00E945004CE
S1131B80DF91CF911F910895EF92FF920F931F93CE
S1131B90CF93DF938B018091A2019091A30186FFE3
S1131BA040C18F7B8F3309F08EC1C0911D01D0914C
S1131BB01E0158815093810180917F019091800191
S1131BC08530910509F443C08630910509F48AC033
S1131BD0029709F01FC185E090E090938001809303
S1131BE07F0140916C01852F99270196242F33277B
S1131BF0281739074CF1B79906C00E9904C0451B44
S1131C00415040936C01409181014A32E8F44423ED
S1131C10A1F0BE016F5F7F4F483018F047E050E0FD
S1131C2007C086E090E09093800180937F01552760
S1131C3080E090E00E94EF0146C110928A01C09AB0
S1131C4084E00E94F508E3C00E9478093CC186E064
S1131C5090E09093800180937F0180918D0188238F
S1131C6009F439C08091EE018823A9F5898185FFA3
S1131C7032C08F814E812FB7F894332760919E0133
S1131C8070919F012FBF9927982F88275527842B60
S1131C90952B8617970759F08F812E819927982FB6
S1131CA088273327822B932B8F5F9F4FA1F4898141
S1131CB08770813081F4C09AC0988AE00E94F0074E
S1131CC0C09AC0984091810147502896BE018FE385
S1131CD00E940B08F8C0409181014750552728966F
S1131CE0BE01A6CFC09A80918601882339F484E08E
S1131CF00E94F50880918601882311F0B7990AC0E3
S1131D000E9B08C090915302992321F08091810188
S1131D108B3038F480911D0190911E010E940403C0
S1131D203DC0913001F5E0915802FF27EE0FFF1FEF
S1131D30EE0FFF1FE150FE4F20813181428153811C
S1131D40E0911D01F0911E0121ABBB27A52F942F1B
S1131D50832F80ABCA01AA27BB2787A7252F332748
S1131D604427552726A7809158029927019668E0B1
S1131D7070E00E948B198093580280915302815025
S1131D8080935302882351F080911D0190911E018C
S1131D900E94040310925802109253028091810110
S1131DA0FE01E80FF11D808187FF31C0012B79F11D
S1131DB069816770E0911D01F0911E01623019F58F
S1131DC0A0918E01B0918F01109709F180911701B4
S1131DD0909118010797D9F4ED019B81838198179D
S1131DE0B1F487B78F7E87BF908181E08CA7E90F1C
S1131DF0F11D8291319688A780818F7789A780E031
S1131E000E948A0B04C0613011F48BE02AC00E9446
S1131E10430959C010928A01C09A84E00E94F508CF
S1131E2052C08E3309F04FC0C09A8091170190912F
S1131E3018010897C9F4C09889E00E94F007C09A75
S1131E4083E00E94F50881E090E09093180180936C
S1131E5017018FB7F894992723E0209311018FBFBE
S1131E6084E00E944E012FC080916402882349F4CB
S1131E7084E090E090931801809317010E94690D0B
S1131E8022C083E00E94F50883E090E0909318015B
S1131E90809317010E941303DC01CB0166E371E018
S1131EA00E9477195BE0E52EF12CE80EF91EF09202
S1131EB03301E09232010E94930300271127A80105
S1131EC097010E945004DF91CF911F910F91FF90D1
S1131ED0EF9008951F920F920FB60F9211242F9333
S1131EE03F934F935F936F937F938F939F93AF939E
S1131EF0BF93EF93FF932FB1E091E001F091E101E3
S1131F00309739F08091AC019091AD01E80FF91F41
S1131F1020838091AC019091AD0101969093AD0125
S1131F208093AC0180E00E94F60040911F01509123
S1131F3020018091AC019091AD018417950718F4AC
S1131F400E9481011CC06091E0017091E1018091C7
S1131F505E0290915F021092E1011092E0011092F2
S1131F605F0210925E021092200110921F011092E3
S1131F70AD011092AC012FB120E00E94C40DFF917D
S1131F80EF91BF91AF919F918F917F916F915F91ED
S1131F904F913F912F910F900FBE0F901F90189566
S1131FA0AF92BF92CF92DF92EF92FF920F931F9363
S1131FB0CF93DF93CDB7DEB7A8970FB6F894DEBF03
S1131FC00FBECDBFE82FFF27E131F10508F056C55C
S1131FD0EA5BFF4FEE0FFF1F0590F491E02D09948B
S1131FE080915902882309F449C540E051E008C5AD
S1131FF02FB7F89433278091F7018093020183E08F
S1132000809310012FBF80910201882309F036C507
S113201081E08093A601109257020E947E042EC58F
S11320201092A601A090E201B090E30180915702C2
S1132030882309F023C58FB7F894C82E8091100126
S1132040833009F041C0809102018823E9F5809131
S1132050B201882309F009C501C5ED2DE695E69581
S1132060E695FF274D2D5527EE54FE4F9A01277014
S1132070307081E090E002C0880F991F2A95E2F742
S1132080809520812823208300930F0112C00F5FC5
S11320901F4F0130110511F400E010E0D02E802F05
S11320A00E9447028823C9F60E151F0581F74FEFDA
S11320B050E04093F7018FEF8093020181E0809319
S11320C0100180E00E944E01CFBE2FB7F894332751
S11320D08BB394E089278BBB2FBF80910E0188239B
S11320E009F0CCC41092410110924001A092430126
S11320F08B2D99278093420144E351E08FEF809325
S11321003A0180933B0187E080933F018091AE01C7
S11321109091AF01892B09F0B1C45093AF01409362
S1132120AE0181E18093340180910D018823B1F0E7
S113213010920D0124E06FEF7FEF87E00E94D30A35
S11321409927282F882351F081E080930D01109264
S1132150AF011092AE01222309F090C481E0809374
S11321600E018CC40FB7F894112781E00E946B0410
S113217041E0E42EF12CF0921801E0921701109244
S1132180190110926D01109283010FBF0FB7F894DB
S113219011270E94F802F0928001E0927F011092D0
S11321A08A0189B78F7B89BF80E488BF8AB7806240
S11321B08ABF8AB78F7E8ABF89B7806489BF0FBF01
S11321C08FB7F894082F1127809112019091130171
S11321D0049719F483E00E94F0070FBF0FB7F89437
S11321E01127C09A80E00E94F5080FBF8FB7F894BA
S11321F0992722E02093EA018FBF0E941702AB01C6
S1132200BC01EE240AEF10E020E030E081E00E94FF
S1132210F70634C48FB7F89499271092EA0171C075
S11322208FB7F8949927F09011018FBF63E081E094
S11322300E94DF00882359F10FB7F89411271092F8
S113224018011092170187B78F7E87BF87B78F7DDC
S113225087BF83E00E94F508C09A0FBF0FB7F894B8
S113226011271092800110927F010E94F802C09AF7
S113227089B78F7B89BF0FBF10921301109212018F
S1132280DE98DD98DE9A83E00E944E0107C08FB786
S1132290F894992722E02093EA018FBF0091A901C5
S11322A01091AA010E94100280915A0290915B023F
S11322B0892B09F0E3C38FEF80930A014F2DB801F6
S11322C095C38FB7F894282F3327122F8091620279
S11322D0882309F581E08093620280911201909134
S11322E01301049721F481E00E94160703C086E0DD
S11322F00E944E011FBFC2C38FB7F8949927109252
S113230062028FBFBBC38FB7F894282F3327809105
S11323101401882311F02FBFB1C32FBF80B39927B5
S113232036E0969587953A95E1F7182F11709091BC
S1132330A0018091A1018917D9F01917C9F484E08B
S113234090E090931301809312018FB7F89499272A
S113235021E0209314018FBF60E070E08DE10E94C2
S113236089090E94B807C09AC09882E00E944E0171
S11323701093A10187E06DC08FB7F894992710914D
S113238003018FBF123009F467C0133030F41123F6
S113239059F0113009F072C348C0133009F476C003
S11323A0143009F06BC3A2C0C0988FB7F894082FFB
S11323B0112780911201909113010297A1F583E0F6
S11323C090E0909313018093120168E170E08DE135
S11323D00E94890981E08093A0011092140180B3C6
S11323E0992726E0969587952A95E1F78170907054
S11323F08093A10187E00E944E0181E00E94F007D2
S11324006FE772E08CE10E9489090E94EA090E9448
S1132410B00966E57AE287E10E9489096FEF70E806
S113242085E10E9489090FBF29C3C09886E00E94F4
S1132430F0070E94EA090E94B0090E94B807C09AF6
S1132440C09883E00E94F007C09A81E00E94F508DA
S113245086E00E944E0112C3C0988FB7F894082FEB
S1132460112760E080E00E94DF00882311F00FBF95
S11324700AC00FBF83E50E94750180E00E947501C8
S113248080E00E947501C09A82E02DC08FB7F89455
S11324909927209117018FBF243039F0283041F05B
S11324A0223001F50E94FB09E9C20E94690DE6C2CF
S11324B0C09889E00E94F007C09A83E00E94F50862
S11324C08FB7F894992721E030E0309318012093D6
S11324D017018FBF8FB7F8949927109311018FBFFD
S11324E084E0B7CF83E00E94F508C8C20E943D088B
S11324F0C5C20FB7F894112740911F0150912001D4
S11325006091E0017091E10180915E0290915F021F
S11325101092E1011092E00110925F0210925E02AB
S11325201092200110921F011092AD011092AC0183
S113253020E00E94C40D77CF0FB7F894112782E0F2
S1132540809316010E94FC000FBF8091060188232E
S113255009F094C2B89AC09888E07BCFA0911D017D
S1132560B0911E01FC909D012F0D311DF901808158
S1132570881F8827881FFD0183A7F90180818F7731
S1132580FD0181A721503040F9018081FD0180A720
S1132590A0911D01B0911E01FD0132818FB7F89405
S11325A09927209185018FBF222309F490C0832F9E
S11325B09927969587959695879583709070823024
S11325C0910541F5878146812FB7F89433276091AF
S11325D09E0170919F012FBF9927982F8827552717
S11325E0842B952B8617970719F481E090E06CC033
S11325F0FD018781268140E050E09927982F8827A4
S11326003327822B932B8F5F9F4F11F441E050E0CF
S1132610CA015AC0039709F035C19E012F5F3F4F8D
S11326204FEE51E088E0FA010190AF01F901019207
S11326309F018150C1F79E012F5D3F4FAE014F5F57
S11326405F4F88E0FA010190AF01F90101929F0107
S11326508150C1F79E01275F3F4FAE014F5D5F4F31
S113266088E0FA010190AF01F90101929F018150C4
S1132670C1F79E012F5E3F4FAE01475F5F4F88E079
S1132680FA010190AF01F90101929F018150C1F754
S11326909E01275E3F4FAE014F5E5F4F88E0FA0117
S11326A00190AF01F90101929F018150C1F748E007
S11326B050E0BE01675E7F4FCD0106960E94571918
S11326C0892B09F0DFC003C0882309F4DBC0FCE0D8
S11326D0FF1508F0D7C0C0901D01D0901E01F6016F
S11326E02281822F992736E0969587953A95E1F7CE
S11326F0039719F468E070E002C062E070E0822F92
S113270099279695879596958795837090700397EA
S113271019F488E090E002C082E090E026E030E026
S1132720C20ED31E40E050E020E030E0F601E80F96
S1132730F91F8AEF9FEFC80ED91E05C08191480F7B
S1132740511D2F5F3F4F26173707C4F3F6016381EE
S11327508FEF80935C028FB7F894782F20E030E0FD
S1132760E6E2F1E0808191818417950729F4828162
S1132770861731F120935C022F5F3F4F339624304C
S1132780310581F77FBF90915C023FB7F8949F3F7A
S113279021F080911A018917A9F420911A01822F3E
S11327A09927FC01EE0FFF1FE80FF91FEA5DFE4FAA
S11327B05183408362832F5F237020931A010EC0DC
S11327C07FBF5CC0892F9927FC01EE0FFF1FE80F24
S11327D0F91FEA5DFE4F518340836283832F99275B
S11327E08FBF0FB7F8941127C6010E948100FC0126
S11327F090810FBFF60183A5882309F43FC09F335E
S113280009F03CC0878146812FB7F8943327609143
S11328100701709108012FBF9927982F8827552702
S1132820842B952B8617970759F087812681992742
S1132830982F88273327822B932B8F5F9F4FF1F498
S1132840F60183858730D1F48FB7F89499272BB399
S113285032E023272BBB8FBFF1E1FF1679F40E94EE
S11328603E020E941702AB01BC01E1E0EE2E04E639
S113287010E020E030E084E00E94F706D0921E01D0
S1132880C0921D018FB7F894992710928A018FBFC7
S11328900E944309F3C080918201882361F520914D
S11328A0FB013091FC014091FD015091FE01EFB715
S11328B0F894FF276091E5017091E6018091E701AA
S11328C09091E801E0906801F090690100916A013B
S11328D010916B016E0D7F1D801F911FEFBF209320
S11328E0FB013093FC014093FD015093FE011092D3
S11328F082010E94DE020E94170243C00E94170256
S11329005B016C018FB7F89499271092AB018FBFCC
S11329103FEFE32E3FEFF32E3FEF032F3FE7132F5D
S113292060E0E3EBF1E0808581FF1CC08081918150
S1132930A281B381A6019501281B390B4A0B5B0BBD
S1132940DA01C9012481358146815781281B390B5D
S11329504A0B5B0B2E153F05400751071CF4790108
S11329608A0161E0399631E0E03EF307E1F666233F
S113297009F484C01E141F04100611062CF0C601AD
S1132980B5010E9466067AC0E092FB01F092FC0158
S11329900093FD011093FE0181E080938201A80160
S11329A09701C601B5010E94DE0268C090919401AE
S11329B080910A01981709F461C090930A01992340
S11329C0D1F400911B0110911C016091A701C80171
S11329D00E94410A482F5527442309F44FC08FEF22
S11329E080930A0160911B0170911C01F801838599
S11329F00E947B0B43C08FEF80930A013FC0550FA9
S1132A0090915902852F8923B9F0E42FFF27EE0F07
S1132A10FF1FE255FE4F2081318111821082852FE4
S1132A208095982390935902442331F424533140E0
S1132A3011F510920E011FC04F5F483000F31EC005
S1132A4080910D01E82FFF27EE0FFF1FE255FE4F87
S1132A506081718141E00E943D0B10C081E0809350
S1132A6002011092100137982FCB80910F01E82EAC
S1132A70FF2487010CCB550F41E0C2CFA8960FB6B7
S1132A80F894DEBF0FBECDBFDF91CF911F910F91A0
S1132A90FF90EF90DF90CF90BF90AF90089580911A
S1132AA054028F3FB1F0282F3327F901E259FE4F2A
S1132AB08081809354028F3F11F4809363028FEFDF
S1132AC080832F3F31F0822F0E94D00F81E090E06D
S1132AD0089580E090E00895CFECD0E1DEBFCDBF53
S1132AE01FB7F89441E150E06FEF70E08EE691E09B
S1132AF00E9464198FEF809354028093630281E0F3
S1132B008EBD88E080BF83E083BF8CB59DB54AE766
S1132B102CB53DB52817390708F44150442311F06A
S1132B20C901F6CF92B782B78917E9F32CB53DB541
S1132B3092B782B78917E9F38CB59DB5821B930BC5
S1132B40409665E0969587956A95E1F790935602CD
S1132B508093550213BE83B78EBD8EB580BF12BE5F
S1132B601DBC1CBC8FEF86BF86B780937C0080B7EA
S1132B70992787709070892BD1F7D29AD19AD09ADD
S1132B80DA9AD99AD89A15BA8FEF84BBD498DC987C
S1132B901DBC1CBC87B7846087BF8EB5887F8460EA
S1132BA08EBD16B80E944F158823E1F78FEF8093EE
S1132BB08701E6E2F1E08FEF9FEF91838083128239
S1132BC0339621E0E233F207C1F70E9413036093C6
S1132BD0FA0180910001909101010196AA27BB2777
S1132BE08093900190939101A0939201B0939301EB
S1132BF080B7886080BF8BE083BF86EE81BF87B7D4
S1132C00826087BF0E945B028FE192E090931E0175
S1132C1080931D018E98B89A8C988FEF80939901B8
S1132C201092E9011092EA011092EB011092EC016A
S1132C30B89AD69AD59A8FB7F89499272091070114
S1132C40309108018FBF30939F0120939E010E9411
S1132C50F40429A73AA74BA75CA76DA77EA78FA763
S1132C6098ABDE019196FE01B99688E001900D9231
S1132C708150E1F7DE015196FE01B19688E00190A2
S1132C800D928150E1F7DE015996FE01719688E0BC
S1132C9001900D928150E1F7AFEEB1E0FE0179961B
S1132CA088E001900D928150E1F780910901992704
S1132CB090938C0180938B018FE18093E4018AE1EE
S1132CC08093F8010E94F40429A73AA74BA75CA7B4
S1132CD06DA77EA78FA798ABDE019196FE01B996EA
S1132CE088E001900D928150E1F7DE011196FE011A
S1132CF0B19688E001900D928150E1F7DE011996BA
S1132D00FE01319688E001900D928150E1F7AFEE1B
S1132D10B1E0FE01399688E001900D928150E1F70F
S1132D20AFEEB1E0FD0137969C9180818D93908345
S1132D30319781E0E23FF807B9F781E0809385019C
S1132D4010925D0280938D011092EE011092B201F7
S1132D500E944F158823E1F7812F99278FBF78941C
S1132D6061E081E00E94C5008823E9F48FB7F894FC
S1132D70282F33278091120190911301892B11F090
S1132D802FBF1BC081E090E0909313018093120148
S1132D902FBFDD9A0E94930324E130E040E050E02D
S1132DA00E9450040AC062E081E00E94DF00882390
S1132DB021F461E081E00E94DF008FB7F894482F8E
S1132DC055274CC087B7992783709070892B19F4C5
S1132DD0E5E0F0E013C080B7992787709070892BE5
S1132DE0D1F781B792B7891B8C3030F082B7853F19
S1132DF018F4E3E0F0E002C0E2E0F0E087B7887B9B
S1132E00C1F480917D008B7FA1F46E9912C08AB1C8
S1132E1090919A00892B887161F48091740082FDED
S1132E2008C0379B03C081E090E005C085E090E0D6
S1132E3002C080E090E025B78E1708F4E82FFF2742
S1132E40E255FF4FC895E02D237E2062E22BE5BFBB
S1132E5078948895F89485B78F7D85BF80915402C6
S1132E608F3F09F4AFCF282F3327F901E259FE4FE2
S1132E708081809354028F3F11F4809363028FEF1B
S1132E8080832F3F09F49ECF4FBF822F0E94D00F23
S1132E9094CF78941F920F920FB60F9211241F9320
S1132EA02F933F934F935F936F937F938F939F934E
S1132EB0AF93BF93EF93FF9387B78F7E87BF1FB7FF
S1132EC0F8948091950190919601A0919701B09109
S1132ED098010097A105B10509F051C0809117012F
S1132EE0909118018530910561F18630910530F497
S1132EF08330910549F0049781F51AC08730910514
S1132F00F1F0089751F514C0869B0FC084E090E05F
S1132F1090931801809317010E94930327E030E0F7
S1132F2040E050E00E94500418C00E943F0D15C0BC
S1132F300E946807882389F40E94690D0EC080E00E
S1132F400AC089E00E94F00781E00E946B0483E0DC
S1132F500E94F50887E00E948A0B809112019091EB
S1132F601301019771F482E090E090931301809330
S1132F701201DE98DE9A80E00E94160702C00E94C9
S1132F80B003812F99278FBFFF91EF91BF91AF912C
S1132F909F918F917F916F915F914F913F912F916D
S1132FA01F910F900FBE0F901F901895ACE2B0E0E8
S1132FB0ECEDF7E10C94BD19222E332E442E552E40
S1132FC0662E772E882E992EFE013196A8E0119256
S1132FD0AA95E9F729823A824B825C826D827E82CD
S1132FE08F829886FE013996B8E01192BA95E9F776
S1132FF0A986BA86CB86DC86ED86FE860F87188B7B
S113300089819A81AB81BC8189A79AA7ABA7BCA708
S11330107C018D018FEF9FEFA0E0B0E0E822F92260
S11330200A231B2389A59AA5ABA5BCA51D0144248D
S1133030552489859A85AB85BC858DA39EA3AFA3B2
S1133040B8A75C016D018FEF9FEFA0E0B0E0A8226C
S1133050B922CA22DB228DA19EA1AFA1B8A53D0150
S113306088249924C801B701A60195010E949E19DC
S113307069A37AA38BA39CA3C801B701A4019301FC
S11330800E949E197B018C01C201B101A601950128
S11330900E949E195B016C01C201B101A40193015C
S11330A00E949E193B014C01EA0CFB1C0C1D1D1DCA
S11330B089A19AA1ABA1BCA19D01442755272E0D3E
S11330C03F1D401F511F2A153B054C055D0540F46B
S11330D080E090E0A1E0B0E0680E791E8A1E9B1E9D
S11330E0CA01AA27BB27860D971DA81DB91D8D8F60
S11330F09E8FAF8FB8A3A9013327222789A19AA154
S1133100ABA1BCA1A070B070280F391F4A1F5B1F70
S1133110298F3A8F4B8F5C8FA98CBA8CCB8CDC8C2B
S1133120ED8CFE8C0F8D18A1FE01719698E0119222
S11331309A95E9F7ED8AFE8A0F8B188F2D813E81CF
S11331404F8158856DA17EA18FA198A50E949E19DB
S11331503B014C012D853E854F85588969A57AA58B
S11331608BA59CA50E949E192D893E894F89588D57
S1133170260F371F481F591F260D371D481D591D7F
S11331802D8B3E8B4F8B588F6D887E888F88988CC3
S11331902A2D3B2D4C2D5D2D662D772D882D992DB7
S11331A0E2E1AC960C94D919A0E1B0E0EAEDF8E1C3
S11331B00C94BD19222E332E442E552E662E772EB6
S11331C0882E992E002309F466C088E0FE0131960A
S11331D011928A95E9F729833A834B835C836D8343
S11331E07E838F829887E0E2E01B1E16CCF52D814A
S11331F03E814F815885602F772767FD7095DA01EE
S1133200C901062E04C0B695A795979587950A948B
S1133210D2F78D879E87AF87B88B04C0220F331FE8
S1133220441F551FEA95D2F789819A81AB81BC81ED
S113323004C0B695A795979587956A95D2F7282BDC
S1133240392B4A2B5B2B29873A874B875C87298448
S11332503A844B845C846D847E848F8498881BC0FC
S11332601D861E861F86188A2E2F332727FD30952C
S1133270309521953F4F8D819E81AF81B88504C0E3
S1133280B695A795979587952A95D2F789879A87B2
S1133290AB87BC87DCCF222D332D442D552D662DD5
S11332A0772D882D992DE2E160960C94D919FB01B4
S11332B0DC0104C08D910190801921F441505040EB
S11332C0C8F7881B990B0895DC0101C06D93415028
S11332D05040E0F70895991B79E004C0991F9617B0
S11332E008F0961B881F7A95C9F780950895AA1B44
S11332F0BB1B51E107C0AA1FBB1FA617B70710F0DD
S1133300A61BB70B881F991F5A95A9F7809590950E
S1133310BC01CD01089597FB092E07260AD077FD3D
S113332004D0E5DF06D000201AF4709561957F4F34
S11333300895F6F7909581959F4F0895629FD00167
S1133340739FF001829FE00DF11D649FE00DF11D5C
S1133350929FF00D839FF00D749FF00D659FF00D0B
S11333609927729FB00DE11DF91F639FB00DE11DF8
S1133370F91FBD01CF01112408952F923F924F925E
S11333805F926F927F928F929F92AF92BF92CF92F1
S1133390DF92EF92FF920F931F93CF93DF93CDB7FA
S11333A0DEB7CA1BDB0B0FB6F894DEBF0FBECDBF72
S11333B009942A88398848885F846E847D848C8443
S11333C09B84AA84B984C884DF80EE80FD800C814C
S11333D01B81AA81B981CE0FD11D0FB6F894DEBF2F
S10D33E00FBECDBFED010895FFCF2D
S11133EA010001FFFFFFFF010022FFFFFF01B2
S9030000FC
