S01800006275696C642F6D6963617A2F6D61696E2E73726563E5
S11300000C9464000C949F060C94A9060C94B306FB
S11300100C94BD060C94C7060C94D1060C943D0DAB
S11300200C94DB060C9483000C9483000C94EC1663
S11300300C948A180C94E5060C94FB060C941B078C
S11300400C948E060C949E0F0C9483000C948300E5
S11300500C9483000C9405060C9483000C94830088
S11300600C94F0060C9483000C9483000C9483008D
S11300700C9483000C9483000C9483000C948300F0
S11300800C9483000C9483000C9483002D10521064
S113009055105E1071102411551158118B11E31174
S11300A008120B1216122A122510CF12E9123F134E
S11300B045139613B213B813F013AB14CF14E11411
S11300C0741600081C18141011241FBECFEFD0E1C1
S11300D0DEBFCDBF11E0A0E0B1E0EEE2FAE300E064
S11300E00BBF02C007900D92A031B107D9F712E0FF
S11300F0A0E1B1E001C01D92AD39B107E1F70E9462
S113010017190C94161D0C9400008FB7F8949927B6
S113011008958FBF0895FC0182819927582F4427A1
S113012081819927482B592BCA01892F99278695B4
S11301308695837090708230910559F083309105D3
S113014059F0892B19F420E030E008C02CE93FEF86
S113015005C022E030E002C028E030E0CA0184E0BB
S1130160989F812D992711248230910559F083306D
S1130170910559F0892B19F480E090E008C08CE9CE
S11301809FEF05C082E090E002C088E090E0280F75
S1130190391F2A5F3F4FCF01820F931F0895282FE5
S11301A09FB7F894662349F0E82FFF27E25EFD4FDE
S11301B08081882311F021E006C0E22FFF27E25E50
S11301C0FD4F608320E0892F99278FBF822F9927C5
S11301D00895E82F8FB7F894282F332790E0FF274E
S11301E0E25EFD4F8081861709F491E02FBF892FCD
S11301F099270895882311F06E9A08956E980895AA
S1130200882311F06F9A08956F98089580E00E94F2
S1130210FA00BA9ABB98B99AB89A6C9A80E00E948C
S113022000016B986A9881E00E94FA00709A8DB17F
S11302308C7F8DB908950F931F93CF93DF93182F5D
S11302408FB7F894C82FDD270C2F61E080E00E945F
S1130250CF00882321F0CFBF85E090E024C08091B7
S113026009018823A1F480912401823081F409C01A
S113027082E080932401109209010E940601B89A39
S1130280C0981093060180E00FBF99270CC080919D
S11302902401882369F38FB7F894992710921E02DA
S11302A08FBF81E0F1CFDF91CF911F910F9108951E
S11302B0282F9FB7F894E82FFF27E358FE4F80813B
S11302C08F3F81F4E0919A02E21771F40BC02093FE
S11302D0890204C0FF27E358FE4F208320939A022B
S11302E020E007C025E005C0809189028F3F91F787
S11302F0EECF892F99278FBF822F992708951F93B7
S1130300182F81E00E94FA001FB9779BFECF8FB1AE
S113031099271F9108958F929F92AF92BF92CF9287
S1130320DF92EF92FF920F931F93CF93DF938FB7D8
S1130330F8949927C0909502D09096028090150267
S113034090901602C091CF01D091D00120912D013F
S113035030912E01EAE0AE2EB12CAC0EBD1E2A1552
S11303603B0508F459018FBF7401EC0EFD1E860194
S11303700C0F1D1F14C0C114D10419F0F8018081A1
S113038001C080E00E947F018114910411F0F70103
S1130390808321960894E11CF11C0F5F1F4FC50157
S11303A00197C817D90738F381E00E9400019FB76D
S11303B0F894C114D10431F0CC0EDD1EF601808115
S11303C08FB901C01FB8D093D001C093CF01892F3A
S11303D099278FBF80E090E0DF91CF911F910F911B
S11303E0FF90EF90DF90CF90BF90AF909F908F9051
S11303F008952FB7F894332750932E0140932D017D
S1130400909396028093950270931602609315025E
S11304101092D0011092CF012FBF452B29F08FB13C
S11304200E948B019927089587E10E94580180E07A
S113043090E008958FB7F8949927109220028FBF07
S113044008958FB7F89499272BB334E023272BBB57
S11304508FBF08957FB7F89462B72091300130912F
S11304603101409132015091330106B601FE0FC0B3
S113047081B792B7280F311D411D511D2F5F3F4F8A
S11304804F4F5F4F290F311D411D511D04C0260FD1
S1130490311D411D511D872F99278FBFCA01B901F5
S11304A0089580E880937A011092AB0110928D0236
S11304B0109288021092A4010895CF93DF93FC0157
S11304C015A6DC019E96ED011B821A82198280E832
S11304D086A7DF91CF9108952F923F924F925F921A
S11304E06F927F928F929F92AF92BF92CF92DF9240
S11304F0EF92FF920F931F93CF93DF93CDB7DEB7A5
S113050028970FB6F894DEBF0FBECDBF2090B2017E
S11305103090B3014090B4015090B5016624772423
S11305208824BEE4AB2EA3E8BA2ECC24DD24EE242A
S1130530FF2400E010E0222D332D442D552D662D8F
S1130540772D882D90E00E94F81A29833A834B83F3
S11305505C836D837E838F839887822E932EA42E53
S1130560B52E2401350100E20E94F61BA22EB32E03
S1130570C42ED52EC301B2019695879577956795BC
S11305806A0D7B1D8C1D9D1D97FF05C09F776F5FB6
S11305907F4F8F4F9F4F6093B2017093B30180934D
S11305A0B4019093B50128960FB6F894DEBF0FBE40
S11305B0CDBFDF91CF911F910F91FF90EF90DF900E
S11305C0CF90BF90AF909F908F907F906F905F90EF
S11305D04F903F902F9008958FB7F8946091D30176
S11305E07091D4012CB53DB506B602FE04C06F5F10
S11305F07F4F2CB53DB599278FBF88279927CB010D
S11306007727662744275527622B732B842B952B3A
S11306100895EF92FF920F931F930E94EC027B01C7
S11306208C012091BD013091BE014091BF015091D8
S1130630C0018091B8019091B901A091BA01B09123
S1130640BB01820F931FA41FB51FE216F306040714
S1130650150730F082179307A407B50758F005C0B3
S113066082179307A407B507E0F5E816F9060A0709
S11306701B07B8F59C01AD012E193F09400B510B26
S1130680213060E8360760E0460760E0560768F10D
S113069080E090E8A0E0B0E0E80EF91E0A1F1B1FFE
S11306A0E092BD01F092BE010093BF011093C0011E
S11306B080E090E8AFEFBFEFE80EF91E0A1F1B1FA2
S11306C020503048404050402093B8013093B90145
S11306D04093BA015093BB0120E030E840E050E081
S11306E014C020E030E040E050E08093BD019093DE
S11306F0BE01A093BF01B093C0011092B801109243
S1130700B9011092BA011092BB01A901B7012CB52D
S11307103DB5C9018E199F0903968417950720F0EA
S1130720B9016D5F7F4F02C0640F751F61157105BC
S113073011F461E070E0615070407BBD6ABD80E1FE
S113074086BF87B7806187BF1F910F91FF90EF909D
S113075008950F931F930FB7F89411276093BD0169
S11307607093BE018093BF019093C0012093B801A0
S11307703093B9014093BA015093BB010E9409031D
S11307800FBF1F910F91089597B79F7D97BF90E278
S113079096BF882319F08EB5806402C08EB58F7B16
S11307A08EBD87B7806287BF80E090E00895982F60
S11307B0969596959695EBE7F1E0E90FF11D877014
S11307C021E030E002C0220F331F8A95E2F78081D6
S11307D08223992708950F931F93CF93DF93182FA4
S11307E08FB7F894282F3327022F8091180188237C
S11307F059F581E0809318011093AE012FBF8FB794
S1130800F8949927379A8FBF8FB7F894C82FDD27AC
S11308109C2F809103018230A9F4809118018130CA
S113082021F485E00E94580109C0823059F4809176
S1130830AE018093030183E080931801CFBF80E071
S113084090E025C09FBFFBCF8091AE01811711F4CA
S11308502FBFF5CF812F0E94D703882319F085E09D
S113086090E014C0E12FE695E695E695FF27E5585C
S1130870FE4F177081E090E002C0880F991F1A950F
S1130880E2F72081282B208380E090E00FBFDF91E6
S1130890CF911F910F91089580911D01882319F024
S11308A081E090E0089581E00E94EB039927282FCE
S11308B0882319F481E080931D01822F99270895DC
S11308C0982F969596959695E2EAF1E0E90FF11D39
S11308D0877021E030E002C0220F331F8A95E2F7CF
S11308E08081822399270895982F969596959695B9
S11308F0E5EDF1E0E90FF11D877021E030E002C081
S1130900220F331F8A95E2F7808182239927089565
S11309109FB7F894292F3327422F909103019817FA
S113092041F480911801833021F42FBF81E090E0DD
S113093008954FBF80E090E0089580918C02882351
S113094011F0813011F478E008C0882329F0813057
S113095019F02FE170E002C070E021E0622FEFB7E0
S1130960F8948091A1018E7F8093A10187B1982F83
S11309709F71829586958695837019F080E090E04A
S113098012C0822F8850863118F081E090E00BC0AD
S113099040E050E03327892F99272817390711F4AD
S11309A041E050E0CA01982F9170990F8091A10104
S11309B08178262F2F71422F440F440F892B842BCB
S11309C08093A101332727B9783059F580918A02A1
S11309D090918B0221E08638920718F087E090E02E
S11309E01FC0833C910518F086E090E019C0813661
S11309F0910518F085E090E013C08033910518F05C
S1130A0084E090E00DC08831910518F083E090E017
S1130A1007C00C9718F082E090E002C080E090E0FC
S1130A20782F7770887D872B886D992786B98E2FCC
S1130A3099278FBF08958FB7F89499272BB331E086
S1130A4023272BBB8FBF0895DF92EF92FF920F9362
S1130A501F938FB7F894282F3327D22E91B782B7DC
S1130A6046B7981711F041FF02C02FBF6AC08091AA
S1130A70CE018823E1F10E942A02E0901A02F0904C
S1130A801B0200911C0210911D02209176013091ED
S1130A90770140917801509179016E197F09800B9B
S1130AA0910B621773078407950720F01092CE010B
S1130AB071E01EC02E0D3F1D401F511F809130015B
S1130AC090913101A0913201B0913301281B390B6F
S1130AD04A0B5B0B273E31054105510540F4822F3B
S1130AE0223010F070E005C070E082E002C070E0D7
S1130AF086EE682F615000B601FCFDCF82B76817FF
S1130B0009F46F5F2091300130913101409132013D
S1130B1050913301DA01C9010196A11DB11D860F5F
S1130B20911DA11DB11D82179307A407B50710F4E9
S1130B30622F609561BFDFBE772319F087E00E94C2
S1130B4058011F910F91FF90EF90DF900895AFB778
S1130B50F894BB27E1E0E093CE0160931A0270930E
S1130B601B0280931C0290931D0220937601309304
S1130B7077014093780150937901AFBF0E94240517
S1130B80089580911501882319F081E090E008957B
S1130B9080E00E94EB039927282F882319F481E031
S1130BA080931501822F99270895AF92BF92CF9217
S1130BB0DF92EF92FF920F931F93CF93DF93CDB702
S1130BC0DEB728970FB6F894DEBF0FBECDBF20E086
S1130BD070E0E0910001F091010132E14DE65CE446
S1130BE06FE4809101019E2F28960FB6F894DEBF22
S1130BF00FBECDBFDF91CF911F910F91FF90EF906A
S1130C00DF90CF90BF90AF9008951F920F920FB6D0
S1130C100F9211242F933F934F935F936F937F937E
S1130C208F939F93AF93BF93EF93FF9344B155B1C9
S1130C3078948FB7F89499272091A101322F369593
S1130C40317021708FBF222391F533988091C901AF
S1130C50813021F0823009F050C008C0332341F0C4
S1130C60509318024093170286E01EC0332319F4F0
S1130C700E949D0442C01092C90180918C02882375
S1130C8021F0813009F039C008C01092B6015093A8
S1130C909D0140939C0184E007C01092A8015093E9
S1130CA08F0240938E028DE00E94580126C08FB7B8
S1130CB0F89499278FBF2FB7F894332786B1582F0C
S1130CC05770482F4072987D942B952B8074977B96
S1130CD0982B90619F77892F992786B9887D842BDB
S1130CE0852B87738061992786B9887D842B852B12
S1130CF0877B8069992786B92FBFFF91EF91BF91B8
S1130D00AF919F918F917F916F915F914F913F919F
S1130D102F910F900FBE0F901F9018951F920F9256
S1130D200FB60F9211248F9383B783BF00B600FCD4
S1130D30FDCF8F910F900FBE0F901F9018951F92AB
S1130D400F920FB60F9211240F900FBE0F901F90A9
S1130D5018951F920F920FB60F9211240F900FBE89
S1130D600F901F9018951F920F920FB60F92112497
S1130D700F900FBE0F901F9018951F920F920FB6F1
S1130D800F9211240F900FBE0F901F9018951F9271
S1130D900F920FB60F9211240F900FBE0F901F9059
S1130DA018951F920F920FB60F9211240F900FBE39
S1130DB00F901F9018951F920F920FB60F92112447
S1130DC00F900FBE0F901F90189578941F920F925A
S1130DD00FB60F9211240F900FBE0F901F9018950D
S1130DE078941F920F920FB60F9211240F900FBE9A
S1130DF00F901F90189578941F920F920FB60F9230
S1130E0011242F933F938F939F932FB7F8943327F5
S1130E108091D3019091D40101969093D401809351
S1130E20D3012FBF9F918F913F912F910F900FBEB0
S1130E300F901F9018951F920F920FB60F921124C6
S1130E402F933F934F935F936F937F938F939F93CE
S1130E50AF93BF93EF93FF9383B783BF00B600FCB8
S1130E60FDCF81B799270196AA27BB27209130018E
S1130E70309131014091320150913301280F391FD3
S1130E804A1F5B1F2093300130933101409332019C
S1130E905093330178940E942405FF91EF91BF9100
S1130EA0AF919F918F917F916F915F914F913F91FE
S1130EB02F910F900FBE0F901F901895AF92BF9275
S1130EC0CF92DF92EF92FF920F931F93CF93DF9312
S1130ED05B016C01C0E0D0E0E6EDF1E0608561FF0C
S1130EE0E4C02081318142815381E480F580068110
S1130EF01781D601C501821B930BA40BB50B8E156C
S1130F009F05A007B10708F4D0C060FF03C06D7F40
S1130F10608708C02E0D3F1D401F511F2083318361
S1130F2042835383C33009F487C0C43030F4CC23E4
S1130F3071F0C13009F0BFC044C0C53009F4A9C084
S1130F40C53008F4A3C0C63009F0B5C0ABC09FB724
S1130F50F89420911201222319F421E030E00FC00B
S1130F6080910201813019F020E030E008C040E0B7
S1130F7050E02150223010F441E050E09A01892FD2
S1130F8099278FBF222309F496C08FB7F894C82FEE
S1130F90DD279C2F80910201813009F04BC08091A4
S1130FA01201813011F480E038C0823009F042C06F
S1130FB080912C028093020183E080931201CFBFC1
S1130FC07AC09FB7F89420911A01222319F421E0E2
S1130FD030E00FC080910401813019F020E030E04E
S1130FE008C040E050E02150223010F441E050E0CD
S1130FF09A01892F99278FBF222309F45CC08FB7E8
S1131000F894C82FDD279C2F80910401813091F43E
S113101080911A01813021F489E00E945801CFCFD8
S1131020823041F480919A018093040183E080939B
S11310301A01C5CF9FBF3FC08FB7F894C82FDD27D3
S113104080911A01882389F491E090931A011092F7
S11310509A01CFBF80911B01882321F48AE00E946A
S1131060580129C090931C0126C080919A018823BD
S113107009F4A5CF80E00E946004882309F09FCF83
S11310808091A20181608093A20199CF0E942102E4
S113109012C08FB7F89499272BB332E023272BBBC8
S11310A08FBF09C00E941B0506C021963996C73020
S11310B0D10509F013CF88E00E945801DF91CF9148
S11310C01F910F91FF90EF90DF90CF90BF90AF9062
S11310D00895EF920F931F93AE2D99E0899FF0012D
S11310E01124EA52FE4F4083518362837383048345
S11310F0158326833783A17080858E7F8A2B826037
S1131100808788E00E9458011F910F91EF90089505
S11311101F9380912301882309F048C01091060190
S11311201F3F09F043C060E00E94E9008823F1F109
S113113081E080932E0280917C018823D1F110926A
S11311402E0285E090E03BC0809124018230A9F515
S1131150C09A8091070120E030E08F3F11F421E034
S113116030E0232BD9F48F3F19F42FEF30E00DC07A
S1131170282F3327F901E454FE4F8081809307011F
S11311808F3F11F48093080110832093090181E0BB
S11311908093240188E10E94580104C0109309013E
S11311A01092240180E00E94FA0007C081E090E0E0
S11311B006C080910901882339F280E090E01F91F4
S11311C008951F93182F81E090E090932601809357
S11311D0250110927C010E9488088FB7F894992702
S11311E010931F018FBF82E10E9458011F9108953F
S11311F0EF92FF920F931F93CF93DF93982F8FB7A4
S1131200F894E82E80911801833009F045C080914C
S11312100301891709F040C080917B01882309F0FC
S113122046C03EC0EF2DE695E695E695FF274F2D87
S11312305527E558FE4F9A012770307081E090E001
S113124002C0880F991F2A95E2F7809520812823F0
S11312502083C093170111C02196C230D10511F427
S1131260C0E0D0E0FC2E8C2F0E94D7038823D1F657
S1131270C017D10789F74FEF50E04093AE018FEFCD
S11312808093030181E08093180185E00E94580156
S1131290EFBE80E090E011C0EFBE81E090E00DC0B1
S11312A082E080930301109218013798F1CF809166
S11312B01701082F1127E801CFCFDF91CF911F919C
S11312C00F91FF90EF9008951F93CF93DF939FB7F3
S11312D0F894C92FDD271C2F90910601981721F04F
S11312E0CFBF81E090E03AC08FEF80930601309148
S11312F023013323F1F48FB7F894992710921E0237
S11313008FBF0E948808CFBF11C02093060181E0DF
S113131090E002C0880F991F4A95E2F78095382320
S11313203093230186E10E9458011FBF80E090E0C2
S113133015C080E065E0E32FFF270E948D1C292F54
S1131340492F5527CF01042E02C0959587950A94FD
S1131350E2F780FDDACF822F8F5FEFCFDF91CF915D
S11313601F9108950F931F93182F0FB7F89461E0FE
S113137080E00E94CF00882341F5109306018091FC
S11313800901882379F580912401823059F586E199
S113139006C081E0809324011092090188E10E9433
S11313A058012AC08091BC018F3F31F5E0910801BA
S11313B0EE2311F11CC01092070104C0FF27E4546E
S11313C0FE4F10821092080117C081E090E002C025
S11313D0880F991F1A95E2F720912301282B209357
S11313E023010AC0809124018823E1F6D2CF8091A1
S11313F007018F3F19F7DFCF802F99278FBF80E038
S113140090E01F910F9108951F9383E00E941B01A8
S11314109927182F882319F083E00E94B209812F9D
S113142099271F910895FF920F931F93CF93DF93F2
S1131430F82E8B018FB7F894C82FDD2760E080E089
S11314400E94E900882321F0CFBF80E090E00CC027
S1131450CFBF8F2D0E947F01812F99270E947F018A
S1131460802F0E947F019927DF91CF911F910F91C7
S1131470FF9008951F931FB7F8948091A3018823C8
S113148019F460E070E009C060E080919402882360
S113149009F461E081E0682777278091AF01882310
S11314A019F480E090E00AC090E080912302882340
S11314B009F491E081E09827892F9927762F6627F0
S11314C0770F770F770FE4E0880F991FEA95E1F71C
S11314D0826E9262682B792B81E10E94130A812F1C
S11314E099278FBF1F9108958FB7F894992760911A
S11314F02D028FBF85E0689FB0011124625D7E4F8D
S1131500706488E10E94130A0895EF92FF921F937A
S1131510CF93DF93E090B001F090B101F70182A581
S11315209927182F882309F41FE1C0988091A001FE
S1131530811749F0612F77276F717070606E706842
S113154085E10E94130A1093A001F70110818FB75F
S1131550F894C82FDD2760E080E00E94E90088232A
S113156011F0CFBF12C0CFBF8EE390E09093C601BD
S11315708093C5018EE30E947F011150412F5527AE
S113158060E070E0C7010E94F901DF91CF911F91E3
S1131590FF90EF9008950F931F93CF93DF93EC0187
S11315A00FB7F89411270E948B00FC018FE380830E
S11315B00FBF109292021092910261E082E00E94A9
S11315C0CF00882319F085E090E072C080912F024B
S11315D08F5F80932F0281508B838FB7F894082FED
S11315E0112762E081E00E94E900882329F40FBFFB
S11315F00E941A0281E05BC08FB7F894992724E017
S113160020931F028FBFD093CD01C093CC010FBF95
S1131610FE013196818129819927982F88273327C4
S1131620822B932B80729C7C8983892F99278183B9
S11316302981982F882733272164822B932B898330
S1131640892F992781831CA618A619A619AA18AA56
S11316501FA680E88EA761E0609322024091CC012E
S11316605091CD018FB7F894282F3327809125010D
S1131670909126018830910511F0019711F02FBF48
S113168015C082E090E09093260180932501609339
S11316909B025093B1014093B00110922F012FBFD0
S11316A00E94040A882311F40E94850A80E0992785
S11316B0DF91CF911F910F910895CF93DF93DA01BA
S11316C0422F2D3118F082E090E05EC0ED018B874F
S11316D06E83872F99278F832FB7F89433278091B0
S11316E0AC019091AD012FBFFD018483892F99270F
S11316F085832FB7F894332780910A0190910B01C9
S11317002FBF8887892F99278987319681812981DD
S11317109927982F8827332720643868822B932BA6
S11317208983892F99278183435F4C934D508091FE
S11317300D01882359F010920D01642FCD010E94F0
S1131740CB0A9927282F8823A9F417C0842F992717
S11317509093CB018093CA01B0932A01A0932901ED
S11317608AE10E94580180910D01882349F489E09F
S113177090E00AC08FEF80930D01822F992704C057
S11317801092B70180E090E0DF91CF91089510921C
S11317900501E091D101F091D201309721F08091BF
S11317A0900280FF08C081E08093050108958FE0D6
S11317B00E945801089520812D503327678177278F
S11317C0762F662786819927682B792BAF0183852D
S11317D00E945D0B882359F70895CF93DF9380917E
S11317E00501882391F4C091D101D091D201C6178B
S11317F0D70759F41092D2011092D1010E94C70B5D
S1131800C254D14011F410921001DF91CF91089588
S1131810CF92DF92EF92FF920F931F93CF93DF93B8
S11318208C01F62E6A01E22E8FB7F894C82FDD27BB
S113183060E080E00E94E900882321F0CFBF80E0CF
S113184090E01EC0CFBF0F0D111D802F80680E9435
S11318507F01F82E16950795802F807C0E947F01CA
S11318600E2D0AC0EE2DFF27E01BF109EC0DFD1D26
S113187080810E947F0101500023A1F78F2D9927B9
S1131880DF91CF911F910F91FF90EF90DF90CF9058
S11318900895CF93DF93CDB7DEB72C970FB6F894A6
S11318A0DEBF0FBECDBF8FB7F894282FAE014F5FB8
S11318B05F4FDA01E4E2F2E088E001900D9281509A
S11318C0E1F78091AC019091AD018987892F992727
S11318D08A878091C1019091C2018B87892F9927B2
S11318E08C872FBF2CE060E080E691E00E94080C1A
S11318F02C960FB6F894DEBF0FBECDBFDF91CF910B
S113190008951F93CF93DF93182F8FB7F894C82FA0
S1131910DD2760E080E00E94E900882321F0CFBF4A
S113192080E090E005C0CFBF812F0E947F019927FE
S1131930DF91CF911F910895EF92FF920F931F9320
S1131940CF93DF93182F7B01042F8FB7F894C82F00
S1131950DD2760E080E00E94E900882321F0CFBF0A
S113196080E090E014C0CFBF1064812F992790933A
S1131970C6018093C5010E947F01182F402F55276F
S1131980B70180E090E00E94F901812F9927DF914F
S1131990CF911F910F91FF90EF900895C09860919F
S11319A02B0170912C0141E08FE30E949C0C08955F
S11319B082E090E0909399018093980181E0809374
S11319C0AB0120E030E080910601843011F421E085
S11319D030E0232B29F484E00E941B01882319F4AE
S11319E00E94CE0C089584E00E94B20908951F93CA
S11319F0CF93DF938FB7F894C82FDD271C2F8091E6
S1131A00980190919901892B29F484E00E9464093A
S1131A10CFBF1EC01092AB018091A401882311F0A6
S1131A20B79904C00E9908C0882319F08150809397
S1131A30A4010E94D80C0BC081E090E0909399011E
S1131A40809398011092A40184E00E9464091FBF4E
S1131A50DF91CF911F9108950E945102C09AC098BE
S1131A6088E00E94810C88E00E94810CC09A84E086
S1131A700E9464090E94F70C08951F920F920FB6FA
S1131A800F9211242F933F934F935F936F937F9300
S1131A908F939F93AF93BF93EF93FF93809198019C
S1131AA090919901019749F482E090E09093990113
S1131AB0809398010E94D80C05C08091A4018F5F87
S1131AC08093A401FF91EF91BF91AF919F918F916A
S1131AD07F916F915F914F913F912F910F900FBE26
S1131AE00F901F901895CF92DF92EF92FF920F9371
S1131AF01F93CFB6F894DD240E946C02DC01CB0165
S1131B0066E470E00E94991C7BE0E72EF12CE80E5D
S1131B10F91EF0929802E09297020E94EC020027CC
S1131B201127A80197010E94A903CFBE1F910F910D
S1131B30FF90EF90DF90CF9008951F93CF93DF93A2
S1131B408FB7F894C82FDD271C2F80912501909121
S1131B5026010897C9F489E00E94810C83E00E9461
S1131B606409C09A81E090E0909326018093250156
S1131B708FB7F894992723E020931F018FBF82E148
S1131B800E945801CFBF30C0C09880919B02882327
S1131B9011F085E001C084E00E94810C83FD09C03E
S1131BA080E00E94810C83FF04C085E090E020E087
S1131BB003C083E090E021E0909326018093250107
S1131BC0C09A1FBF222341F010922F0183E00E948C
S1131BD064090E94730D08C00E94EC0220E431E005
S1131BE040E050E00E94A903DF91CF911F91089536
S1131BF0EF92FF920F931F93CF93DF938B0180910A
S1131C00C5019091C60186FF40C18F7B8F3309F0D7
S1131C108EC1C0912B01D0912C01588150939B010E
S1131C2080919801909199018530910509F443C000
S1131C308630910509F48AC0029709F01FC185E036
S1131C4090E0909399018093980140917A01852FB7
S1131C5099270196242F3327281739074CF1B79970
S1131C6006C00E9904C0451B415040937A0140912F
S1131C709B014A32E8F44423A1F0BE016F5F7F4F19
S1131C80483018F047E050E007C086E090E09093B9
S1131C90990180939801552780E090E00E94F90112
S1131CA046C11092AB01C09A84E00E946409E3C06B
S1131CB00E942C0D3CC186E090E0909399018093A2
S1131CC098018091AF01882309F439C080912302DF
S1131CD08823A9F5898185FF32C08F814E812FB772
S1131CE0F89433276091C1017091C2012FBF9927E5
S1131CF0982F88275527842B952B8617970759F0FB
S1131D008F812E819927982F88273327822B932B15
S1131D108F5F9F4FA1F489818770813081F4C09ACD
S1131D20C0988AE00E94810CC09AC09840919B019F
S1131D3047502896BE018FE30E949C0CF8C0409146
S1131D409B01475055272896BE01A6CFC09A809183
S1131D50A401882339F484E00E9464098091A401D9
S1131D60882311F0B7990AC00E9B08C0909188028D
S1131D70992321F080919B018B3038F480912B01C1
S1131D8090912C010E945D023DC0913001F5E091DB
S1131D908D02FF27EE0FFF1FEE0FFF1FEC5CFD4FC0
S1131DA02081318142815381E0912B01F0912C01FA
S1131DB021ABBB27A52F942F832F80ABCA01AA2761
S1131DC0BB2787A7252F33274427552726A780918C
S1131DD08D029927019668E070E00E94AD1C809303
S1131DE08D0280918802815080938802882351F06B
S1131DF080912B0190912C010E945D0210928D0222
S1131E001092880280919B01FE01E80FF11D8081F0
S1131E1087FF31C0012B79F169816770E0912B0153
S1131E20F0912C01623019F5A091B001B091B1018B
S1131E30109709F180912501909126010797D9F413
S1131E40ED019B8183819817B1F487B78F7E87BF9B
S1131E50908181E08CA7E90FF11D8291319688A7CA
S1131E6080818F7789A780E00E94E10804C06130F7
S1131E7011F489E12AC00E94F70C59C01092AB01F9
S1131E80C09A84E00E94640952C08E3309F04FC0A6
S1131E90C09A80912501909126010897C9F4C098B1
S1131EA089E00E94810CC09A83E00E94640981E069
S1131EB090E090932601809325018FB7F894992799
S1131EC023E020931F018FBF82E10E9458012FC09D
S1131ED080919B02882349F484E090E0909326014A
S1131EE0809325010E949D0D22C083E00E94640915
S1131EF083E090E090932601809325010E946C0278
S1131F00DC01CB0166E371E00E94991CEBE0EE2E4C
S1131F10F12CE80EF91EF0924101E09240010E947A
S1131F20EC0200271127A80197010E94A903DF9161
S1131F30CF911F910F91FF90EF9008951F920F92F0
S1131F400FB60F9211242F933F934F935F936F9388
S1131F507F938F939F93AF93BF93EF93FF932FB18F
S1131F60E0911502F0911602309739F08091CF017B
S1131F709091D001E80FF91F20838091CF019091B7
S1131F80D00101969093D0018093CF0180E00E940C
S1131F90000140912D0150912E018091CF0190912B
S1131FA0D0018417950718F40E948B011CC060911E
S1131FB015027091160280919502909196021092EA
S1131FC01602109215021092960210929502109227
S1131FD02E0110922D011092D0011092CF012FB139
S1131FE020E00E94F80DFF91EF91BF91AF919F9176
S1131FF08F917F916F915F914F913F912F910F90AE
S11320000FBE0F901F9018959F92AF92BF92CF92E0
S1132010DF92EF92FF920F931F93CF93DF93CDB78D
S1132020DEB7A8970FB6F894DEBF0FBECDBFE82F7A
S1132030FF27EB31F10508F0A0C6EA5BFF4FEE0F76
S1132040FF1F0590F491E02D09948091900288235C
S113205009F493C640E051E081C28FB7F894992700
S113206020912C022093020123E0209312018FBFC0
S11320701091020180E00E948804882309F47DC63F
S113208080911601882309F078C682E08093C90103
S113209010928C020E949D0481E08093160110939B
S11320A09F016BC60E94C10568C6809115018130ED
S11320B009F063C61E98169883E0B5C180E00E94BB
S11320C0F8081092150180911401813011F40E94D6
S11320D0C1058FB7F8949927109214011092130137
S11320E0B7C110921601A0909C01B0909D019090F0
S11320F09F018FB7F894C82E80911201833009F0A4
S113210041C0809102018915E9F58091D5018823A8
S113211009F01BC611C6ED2DE695E695E695FF2759
S11321204D2D5527EB52FE4F9A012770307081E0F8
S113213090E002C0880F991F2A95E2F780952081CC
S1132140282320830093110112C00F5F1F4F013019
S1132150110511F400E010E0D02E802F0E947404C9
S11321608823C9F60E151F0581F74FEF50E0409301
S11321702C028FEF8093020181E08093120180E0B2
S11321800E945801CFBE992009F0F7C50E941B0593
S11321900E942A02AB01BC0111E0E12E04E610E02A
S11321A020E030E086E00E946908809110018823D5
S11321B009F0E3C5A09252018B2D99278093510118
S11321C08091A5019091A60180935401892F9927AC
S11321D080935301109256011092550142E451E04C
S11321E08FEF809348018093490189E080934D01EA
S11321F08091D1019091D201892B09F0BEC55093F1
S1132200D2014093D10186E180934201809105017E
S11322108823B1F01092050129E06FEF7FEF89E088
S11322200E945D0B9927282F882351F081E0809329
S113223005011092D2011092D101222309F09DC50B
S113224081E08093100199C58FB7F8949927209164
S1132250AE012093030123E0209318018FBF8091E6
S11322600301882321F0813009F087C50EC0169A36
S11322701E9A0E942A02AB01BC01F1E0EF2E0AE093
S113228010E020E030E080E00DC0159A1D9A0E9415
S11322902A02AB01BC01E1E0EE2E0AE010E020E0EE
S11322A030E081E00E94690868C51092C90165C5E3
S11322B080919E01882361F5209130023091310292
S11322C04091320250913302EFB7F894FF276091A6
S11322D01A0270911B0280911C0290911D02E090E1
S11322E07601F090770100917801109179016E0DDB
S11322F07F1D801F911FEFBF209330023093310266
S1132300409332025093330210929E010E94A7051B
S11323100E942A0243C00E942A025B016C018FB70B
S1132320F89499271092CE018FBF7FEFE72E7FEFAD
S1132330F72E7FEF072F7FE7172F60E0E6EDF1E040
S1132340808581FF1CC080819181A281B381A60117
S11323509501281B390B4A0B5B0BDA01C901248157
S1132360358146815781281B390B4A0B5B0B2E158F
S11323703F05400751071CF479018A0161E0399651
S113238032E0E531F307E1F6662309F4F6C41E14DE
S11323901F04100611062CF0C601B5010E945E0749
S11323A0ECC4E0923002F0923102009332021093B6
S11323B0330281E080939E01A8019701C601B50113
S11323C00E94A705DAC48FB7F894992720919A013F
S11323D02093040123E020931A018FBF009104018C
S11323E081E00E948804882309F4C7C480911E01F7
S11323F0882309F0C2C482E08093C90111E01093DC
S11324008C020E949D0410931E0100939C02B5C48B
S11324100E944C04B2C480911D01813009F0ADC406
S11324201D9815988CE00E945801A7C481E00E9471
S1132430F80810921D0180911C01813011F40E9452
S11324404C048FB7F894992710921C0110921B0129
S11324508FBF93C410921E01A0908E02B0908F0281
S113246090909C028FB7F894C82E80911A01833003
S113247009F041C0809104018915E9F58091A20118
S1132480882309F071C467C4ED2DE695E695E695B9
S1132490FF274D2D5527EE55FE4F9A0127703070BA
S11324A081E090E002C0880F991F2A95E2F7809599
S11324B02081282320830093190112C00F5F1F4F2E
S11324C00130110511F400E010E0D02E802F0E949D
S11324D060048823C9F60E151F0581F74FEF50E0FD
S11324E040939A018FEF8093040181E080931A0155
S11324F089E00E945801CFBE992009F03EC4B092F1
S1132500A601A092A5018FB7F894082F11278091F6
S11325101201882379F491E09093120110922C0215
S11325200FBF80911301882311F481E07CCF909335
S1132530140123C480912C02882309F42EC280E064
S11325400E947404882309F028C28091D501816017
S11325508093D50122C22FBF10C4550F90919002D1
S1132560852F8923C1F0E42FFF27EE0FFF1FEF52C1
S1132570FE4F2081318111821082852F809598230E
S113258090939002442339F42254314009F0F2C369
S113259010921001EFC34F5F4830F8F2EEC3109170
S11325A00501E12FFF27EE0FFF1FEF52FE4FE080E2
S11325B0F180118210820E94C70B112309F0DDC340
S11325C052E4E51651E0F50609F0D7C31092100164
S11325D0D4C30FB7F894112781E00E94C40341E0EB
S11325E0E42EF12CF0922601E092250110922701AD
S11325F010927C011092A0010FBF0FB7F89411271D
S11326000E945102F0929901E09298011092AB015C
S113261089B78F7B89BF80E488BF8AB780628ABF0D
S11326208AB78F7E8ABF89B7806489BF0FBF8FB78F
S1132630F894082F1127809120019091210104978B
S113264019F483E00E94810C0FBF0FB7F89411278F
S1132650C09A80E00E9464090FBF8FB7F89499274D
S113266022E020931F028FBF0E942A02AB01BC010B
S1132670EE2400E014E020E030E083E013CE8FB7D6
S1132680F894992710921F02E3CE8FB7F8949927F4
S1132690F0901F018FBF63E081E00E94E90088236E
S11326A059F10FB7F89411271092260110922501C1
S11326B087B78F7E87BF87B78F7D87BF83E00E94F0
S11326C06409C09A0FBF0FB7F894112710929901AB
S11326D0109298010E945102C09A89B78F7B89BFDA
S11326E00FBF1092210110922001DE98DD98DE9A2E
S11326F081E10E94580107C08FB7F894992722E01E
S113270020931F028FBF0091CC011091CD010E9434
S11327101A028091910290919202892B09F02DC3A3
S11327208FEF80930D014F2DB801FDC28FB7F89440
S1132730282F3327122F80919902882309F00BCF79
S113274081E0809399028091200190912101049766
S113275021F481E00E94B20903C084E10E9458017F
S11327601FBF0BC38FB7F89499271092990270CEAC
S11327708FB7F894282F332780912201882309F0FA
S1132780EACE2FBF80B3992736E0969587953A9580
S1132790E1F7182F11709091C3018091C40189173A
S11327A0D9F01917C9F484E090E090932101809343
S11327B020018FB7F894992721E0209322018FBF3D
S11327C060E070E08DE10E94130A0E94490CC09AF7
S11327D0C09880E10E9458011093C40185E123CE82
S11327E08FB7F8949927109106018FBF123009F41E
S11327F065C0133030F4112359F0113009F0BDC213
S113280048C0133009F474C0143009F0B6C2A0C033
S1132810C0988FB7F894082F1127809120019091C8
S11328202101029709F0B9C083E090E0909321015F
S11328308093200168E170E08DE10E94130A81E039
S11328408093C3011092220180B3992726E09695C4
S113285087952A95E1F7817090708093C40185E192
S11328600E94580181E00E94810C6FE772E08CE1C4
S11328700E94130A0E94740A0E943A0A66E57AE2E8
S113288087E10E94130A6FEF70E885E10E94130A42
S113289084C0C09886E00E94810C0E94740A0E9441
S11328A03A0A0E94490CC09AC09883E00E94810CA5
S11328B0C09A81E00E94640984E1B5CDC0988FB7C5
S11328C0F894082F112760E080E00E94E900882333
S11328D011F00FBF0AC00FBF83E50E947F0180E0A3
S11328E00E947F0180E00E947F01C09A82E02DC097
S11328F08FB7F8949927209125018FBF243039F0A0
S1132900283041F0223001F50E94850A36C20E9427
S11329109D0D33C2C09889E00E94810CC09A83E067
S11329200E9464098FB7F894992721E030E030932E
S11329302601209325018FBF8FB7F8949927109310
S11329401F018FBF82E16FCD83E00E94640915C22D
S11329500E94CE0C12C20FB7F894112740912D019A
S113296050912E016091150270911602809195028A
S113297090919602109216021092150210929602ED
S11329801092950210922E0110922D011092D001F6
S11329901092CF0120E00E94F80D0FBFEEC10FB7D7
S11329A0F894112782E0809324010E9406010FBF4E
S11329B080910901882309F0E0C1B89AC09886E1A2
S11329C032CDA0912B01B0912C01FC909D012F0DD3
S11329D0311DF9018081881F8827881FFD0183A785
S11329E0F90180818F77FD0181A721503040F901E1
S11329F08081FD0180A7A0912B01B0912C01FD01E4
S1132A0032818FB7F89499272091A3018FBF222395
S1132A1009F490C0832F9927969587959695879565
S1132A20837090708230910541F5878146812FB77C
S1132A30F89433276091C1017091C2012FBF992787
S1132A40982F88275527842B952B8617970719F4D9
S1132A5081E090E06CC0FD018781268140E050E078
S1132A609927982F88273327822B932B8F5F9F4F8B
S1132A7011F441E050E0CA015AC0039709F02BC198
S1132A809E012F5F3F4F44E252E088E0FA0101903B
S1132A90AF01F90101929F018150C1F79E012F5DA1
S1132AA03F4FAE014F5F5F4F88E0FA010190AF01E5
S1132AB0F90101929F018150C1F79E01275F3F4FA9
S1132AC0AE014F5D5F4F88E0FA010190AF01F9015B
S1132AD001929F018150C1F79E012F5E3F4FAE01CD
S1132AE0475F5F4F88E0FA010190AF01F90101925D
S1132AF09F018150C1F79E01275E3F4FAE014F5E9B
S1132B005F4F88E0FA010190AF01F90101929F0142
S1132B108150C1F748E050E0BE01675E7F4FCD01B0
S1132B2006960E94791C892B09F0D5C003C088231E
S1132B3009F4D1C0FCE0FF1508F0CDC0C0902B0112
S1132B40D0902C01F6012281822F992736E09695A8
S1132B5087953A95E1F7039719F468E070E002C0AD
S1132B6062E070E0822F99279695879596958795D0
S1132B7083709070039719F488E090E002C082E0BB
S1132B8090E026E030E0C20ED31E40E050E020E0AA
S1132B9030E0F601E80FF91F8AEF9FEFC80ED91E47
S1132BA005C08191480F511D2F5F3F4F26173707EE
S1132BB0C4F3F60163818FEF809393028FB7F89487
S1132BC0782F20E030E0E4E3F1E080819181841704
S1132BD0950729F48281861731F1209393022F5FA0
S1132BE03F4F33962430310581F77FBF9091930294
S1132BF03FB7F8949F3F21F0809128018917A9F4E9
S1132C0020912801822F9927FC01EE0FFF1FE80F66
S1132C10F91FEC5CFE4F5183408362832F5F237066
S1132C20209328010EC07FBF52C0892F9927FC0131
S1132C30EE0FFF1FE80FF91FEC5CFE4F518340833A
S1132C406283832F99278FBF0FB7F8941127C6018A
S1132C500E948B00FC0190810FBFF60183A588239D
S1132C60B1F19F33A1F5878146812FB7F8943327BB
S1132C7060910A0170910B012FBF9927982F882723
S1132C805527842B952B8617970759F08781268122
S1132C909927982F88273327822B932B8F5F9F4F59
S1132CA0B1F4F6018385893091F4F6E1FF1679F4E5
S1132CB00E9421020E942A02AB01BC01E1E0EE2E37
S1132CC004E610E020E030E084E00E946908D0923D
S1132CD02C01C0922B018FB7F89499271092AB0165
S1132CE08FBF0E94F70C49C09091B70180910D01EC
S1132CF0981709F442C090930D019923C9F40091E7
S1132D00290110912A016091CA01C8010E94CB0ACD
S1132D10482F5527442389F18FEF80930D0160914B
S1132D20290170912A01F80183850E94ED0B25C0C9
S1132D308FEF80930D0121C081E0809302011092F6
S1132D4012018093130182E01BCA80911101E82EC5
S1132D50FF248701FAC981E08093040110921A01CB
S1132D6080931B018BE0C5CB80911901E82EFF24D1
S1132D708701A4CB550F41E0F1CBA8960FB6F89488
S1132D80DEBF0FBECDBFDF91CF911F910F91FF909A
S1132D90EF90DF90CF90BF90AF909F900895809177
S1132DA089028F3FB1F0282F3327F901E358FE4FF2
S1132DB08081809389028F3F11F480939A028FEF70
S1132DC080832F3F31F0822F0E94041081E090E035
S1132DD0089580E090E0089578941F920F920FB6C2
S1132DE00F9211242F923F924F925F926F927F9293
S1132DF08F929F92AF92BF92CF92DF92EF92FF9207
S1132E000F931F932F933F934F935F936F937F93EE
S1132E108F939F93AF93BF93CF93DF93EF93FF93DE
S1132E20C6B5D7B58FB7F894282E0E94EC029B0143
S1132E302C1B3D0B442755272B013C01421A530AF6
S1132E40640A750A809125019091260185309105C7
S1132E5021F0069709F0E0C0BFC086E090E09093AF
S1132E6026018093250131E0332E3092A90110927E
S1132E70270180E00E94C403E091B001F091B10108
S1132E8041AABB27A72D962D852D80ABC301AA2768
S1132E90BB2787A7872D9927AA27BB2786A7E09159
S1132EA0B001F091B10185A5882309F484C0608143
S1132EB0655077274F01860E971EF4012081E1802B
S1132EC08281A3809927AA27BB27BA2FA92F982FDD
S1132ED08827332744275527522F4427332722276F
S1132EE0FF24002711278701FF24EE242E293F29E0
S1132EF0402B512BBB24CC24DD242A293B294C29EB
S1132F005D29822B932BA42BB52B84199509A60933
S1132F10B7098383292F3A2F4B2F552722839D01ED
S1132F204427552721838B2F9927AA27BB278083E2
S1132F30C09824E0A40180E090E00E94080CC09AAC
S1132F40F4012081E1808281A3809927AA27BB27ED
S1132F50BA2FA92F982F8827332744275527522F74
S1132F60442733272227FF24002711278701FF2422
S1132F70EE242E293F29402B512BBB24CC24DD24C5
S1132F802A293B294C295D29822B932BA42BB52B71
S1132F90840D951DA61DB71D8383292F3A2F4B2F12
S1132FA0552722839D014427552721838B2F992759
S1132FB0AA27BB278083E091B001F091B101818100
S1132FC085FF02C030927C0183E00E94640987B7C8
S1132FD08F7E87BF84997AC01092A90181E00E94F4
S1132FE0C403E091B001F091B101818185FF0FC06C
S1132FF087E090E090932601809325010E94EC02E3
S113300020E031E040E050E00E94A90303C080E0EA
S11330100E94E108849B5AC080912701882391F57E
S11330208091A901882371F511E01093A9010E94F0
S1133030C40380B320918802283098F4E0918D0273
S1133040E20FFF27E770F070EE0FFF1FEE0FFF1F78
S1133050EC5CFD4F40825182628273822F5F209329
S1133060880210932701D093C801C093C7018499A3
S11330702DC0992704E0969587950A95E1F7182FB6
S1133080117001C010E08091A9018130F9F410920F
S1133090A9010E94C403109227011123B9F480915D
S11330A0C7019091C801C81BD90B2A9778F4809165
S11330B08802882319F08150809388028091B0019E
S11330C09091B101009711F00E945D022FBEFF9113
S11330D0EF91DF91CF91BF91AF919F918F917F91AC
S11330E06F915F914F913F912F911F910F91FF909D
S11330F0EF90DF90CF90BF90AF909F908F907F9094
S11331006F905F904F903F902F900F900FBE0F9055
S11331101F90189578941F920F920FB60F92112456
S11331201F932F933F934F935F936F937F938F934B
S11331309F93AF93BF93EF93FF9387B78F7E87BF20
S11331401FB7F8948091B8019091B901A091BA0188
S1133150B091BB010097A105B10509F051C0809160
S11331602501909126018530910561F18630910504
S113317030F48330910549F0049781F51AC0873003
S11331809105F1F0089751F514C0869B0FC084E0B7
S113319090E090932601809325010E94EC0227E0A1
S11331A030E040E050E00E94A90318C00E94730D73
S11331B015C00E94040A882389F40E949D0D0EC044
S11331C080E00AC089E00E94810C81E00E94C4036F
S11331D083E00E94640987E00E94E1088091200155
S11331E090912101019771F482E090E09093210184
S11331F080932001DE98DE9A80E00E94B20902C02A
S11332000E940903812F99278FBFFF91EF91BF91EE
S1133210AF919F918F917F916F915F914F913F916A
S11332202F911F910F900FBE0F901F901895CFEC08
S1133230D0E1DEBFCDBF1FB7F8944BE150E06FEF94
S113324070E08DE791E00E94861C8FEF80938902E5
S113325080939A0281E08EBD88E080BF83E083BFC3
S11332608CB59DB54AE72CB53DB52817390708F448
S11332704150442311F0C901F6CF92B782B78917A0
S1133280E9F32CB53DB592B782B78917E9F38CB54C
S11332909DB5821B930B409645E0969587954A957C
S11332A0E1F790938B0280938A0213BE83B78EBD9D
S11332B08EB580BF12BE1DBC1CBC8FEF86BF86B707
S11332C080937C0080B7992787709070892BD1F701
S11332D0D29AD19AD09ADA9AD99AD89A15BA8FEF03
S11332E084BBD498DC981DBC1CBC87B7846087BFA2
S11332F08EB5887F84608EBD16B80E94CF16882351
S1133300E1F78FEF8093A701E4E3F1E08FEF9FEF04
S1133310918380831282339621E0E034F207C1F76F
S11333200E946C0260932F02809100019091010130
S11333300196AA27BB278093B2019093B301A0936F
S1133340B401B093B50184E592E090932C0180938D
S11333502B018E98B89A8C988FEF8093BC011092B1
S11333601E0210921F021092200210922102B89A9B
S1133370D69AD59A8FB7F894992720910A0130915B
S11333800B018FBF3093C2012093C1010E94D50568
S113339029A73AA74BA75CA76DA77EA78FA798ABD1
S11333A0DE019196FE01B99688E001900D9281505C
S11333B0E1F7DE015196FE01B19688E001900D928D
S11333C08150E1F7DE015996FE01719688E0019083
S11333D00D928150E1F7A4E2B2E0FE01799688E013
S11333E001900D928150E1F780910C0199279093FF
S11333F0AD018093AC018FE1809319028AE180933F
S11334002D020E94D50529A73AA74BA75CA76DA753
S11334107EA78FA798ABDE019196FE01B99688E04E
S113342001900D928150E1F7DE011196FE01B196F3
S113343088E001900D928150E1F7DE011996FE01BA
S1133440319688E001900D928150E1F7A4E2B2E058
S1133450FE01399688E001900D928150E1F7A4E2D3
S1133460B2E0FD0137969C9180818D9390833197D2
S113347082E0E732F807B9F781E08093A301109264
S113348094028093AF01109223021092A20180B79C
S1133490886080BF8BE083BF86EE81BF87B7826080
S11334A087BF0E94240510927B011092D5010E94CF
S11334B0CF168823E1F7812F99278FBF789461E095
S11334C081E00E94CF008823E9F48FB7F894282F75
S11334D033278091200190912101892B11F02FBF76
S11334E01BC081E090E090932101809320012FBFC5
S11334F0DD9A0E94EC0224E130E040E050E00E94BA
S1133500A9030AC062E081E00E94E900882321F453
S113351061E081E00E94E9008FB7F894482F5527B5
S11335204CC087B7992783709070892B19F4E5E014
S1133530F0E013C080B7992787709070892BD1F77A
S113354081B792B7891B8C3030F082B7853F18F46D
S1133550E3E0F0E002C0E2E0F0E087B7887BC1F48A
S113356080917D008B7FA1F46E9912C08AB19091F5
S11335709A00892B887161F48091740082FD08C0DF
S1133580379B03C081E090E005C085E090E002C075
S113359080E090E025B78E1708F4E82FFF27EE535C
S11335A0FF4FC895E02D237E2062E22BE5BF78947F
S11335B08895F89485B78F7D85BF809189028F3F68
S11335C009F4AFCF282F3327F901E358FE4F808148
S11335D0809389028F3F11F480939A028FEF808346
S11335E02F3F09F49ECF4FBF822F0E94041094CF27
S11335F0ACE2B0E0EEEFFAE10C94DF1C222E332EA5
S1133600442E552E662E772E882E992EFE01319645
S1133610A8E01192AA95E9F729823A824B825C824A
S11336206D827E828F829886FE013996B8E011926F
S1133630BA95E9F7A986BA86CB86DC86ED86FE863E
S11336400F87188B89819A81AB81BC8189A79AA73E
S1133650ABA7BCA77C018D018FEF9FEFA0E0B0E08A
S1133660E822F9220A231B2389A59AA5ABA5BCA5A8
S11336701D014424552489859A85AB85BC858DA379
S11336809EA3AFA3B8A75C016D018FEF9FEFA0E0ED
S1133690B0E0A822B922CA22DB228DA19EA1AFA14B
S11336A0B8A53D0188249924C801B701A601950154
S11336B00E94C01C69A37AA38BA39CA3C801B70171
S11336C0A40193010E94C01C7B018C01C201B101C1
S11336D0A60195010E94C01C5B016C01C201B101ED
S11336E0A40193010E94C01C3B014C01EA0CFB1C89
S11336F00C1D1D1D89A19AA1ABA1BCA19D0144274C
S113370055272E0D3F1D401F511F2A153B054C0503
S11337105D0540F480E090E0A1E0B0E0680E791E21
S11337208A1E9B1ECA01AA27BB27860D971DA81DAA
S1133730B91D8D8F9E8FAF8FB8A3A9013327222780
S113374089A19AA1ABA1BCA1A070B070280F391FA8
S11337504A1F5B1F298F3A8F4B8F5C8FA98CBA8CC1
S1133760CB8CDC8CED8CFE8C0F8D18A1FE01719638
S113377098E011929A95E9F7ED8AFE8A0F8B188FDB
S11337802D813E814F8158856DA17EA18FA198A581
S11337900E94C01C3B014C012D853E854F855889F4
S11337A069A57AA58BA59CA50E94C01C2D893E897C
S11337B04F89588D260F371F481F591F260D371D57
S11337C0481D591D2D8B3E8B4F8B588F6D887E88DD
S11337D08F88988C2A2D3B2D4C2D5D2D662D772DB1
S11337E0882D992DE2E1AC960C94FB1CA0E1B0E08D
S11337F0ECEFFBE10C94DF1C222E332E442E552ECD
S1133800662E772E882E992E002309F466C088E050
S1133810FE01319611928A95E9F729833A834B8305
S11338205C836D837E838F829887E0E2E01B1E16A3
S1133830CCF52D813E814F815885602F772767FD18
S11338407095DA01C901062E04C0B695A79597951F
S113385087950A94D2F78D879E87AF87B88B04C06B
S1133860220F331F441F551FEA95D2F789819A818D
S1133870AB81BC8104C0B695A795979587956A9549
S1133880D2F7282B392B4A2B5B2B29873A874B8776
S11338905C8729843A844B845C846D847E848F8421
S11338A098881BC01D861E861F86188A2E2F3327D4
S11338B027FD3095309521953F4F8D819E81AF81B5
S11338C0B88504C0B695A795979587952A95D2F79C
S11338D089879A87AB87BC87DCCF222D332D442D73
S11338E0552D662D772D882D992DE2E160960C9447
S11338F0FB1CFB01DC0104C08D910190801921F4B3
S113390041505040C8F7881B990B0895DC0101C051
S11339106D9341505040E0F70895991B79E004C03D
S1133920991F961708F0961B881F7A95C9F78095FA
S11339300895AA1BBB1B51E107C0AA1FBB1FA617F2
S1133940B70710F0A61BB70B881F991F5A95A9F744
S113395080959095BC01CD01089597FB092E07260B
S11339600AD077FD04D0E5DF06D000201AF4709564
S113397061957F4F0895F6F7909581959F4F08952F
S1133980629FD001739FF001829FE00DF11D649F3F
S1133990E00DF11D929FF00D839FF00D749FF00DCB
S11339A0659FF00D9927729FB00DE11DF91F639F6C
S11339B0B00DE11DF91FBD01CF01112408952F920F
S11339C03F924F925F926F927F928F929F92AF92AB
S11339D0BF92CF92DF92EF92FF920F931F93CF93F8
S11339E0DF93CDB7DEB7CA1BDB0B0FB6F894DEBF8F
S11339F00FBECDBF09942A88398848885F846E84B5
S1133A007D848C849B84AA84B984C884DF80EE80FE
S1133A10FD800C811B81AA81B981CE0FD11D0FB607
S1113A20F894DEBF0FBECDBFED010895FFCFB9
S1133A2E010001020101FFFFFFFF010022FFFFFF62
S9030000FC
