:100000000C9465000C94D1060C94DB060C94E50668
:100010000C94EF060C94F9060C9403070C94CF098A
:100020000C940D070C9484000C9484000C94DE0D49
:100030000C9449180C9417070C942D070C944D0739
:100040000C9437060C9422110C9484000C948400B8
:100050000C9484000C9448060C9484000C94840046
:100060000C9422070C9484000C9484000C9484005B
:100070000C9484000C9484000C9484000C948400F0
:100080000C9484000C9484000C948400B111B4117D
:10009000E7113F1264126712701283123413651352
:1000A00068138D1390139B13AE132F147D148314B8
:1000B000D414EF14F5142E15E9150D161F16A117FB
:1000C000A911EB1700081C18141011241FBECFEF44
:1000D000D0E1DEBFCDBF11E0A0E0B1E0E4ECF9E398
:1000E00000E00BBF02C007900D92A031B107D9F715
:1000F00012E0A0E1B1E001C01D92A338B107E1F721
:100100000E94D6180C94E11C0C9400008FB7F89450
:10011000992708958FBF0895FC0182819927582F50
:10012000442781819927482B592BCA01892F992768
:1001300086958695837090708230910559F0833052
:10014000910559F0892B19F420E030E008C02CE922
:100150003FEF05C022E030E002C028E030E0CA01F5
:1001600084E0989F812D992711248230910559F0C0
:100170008330910559F0892B19F480E090E008C094
:100180008CE99FEF05C082E090E002C088E090E03B
:10019000280F391F2A5F3F4FCF01820F931F089509
:1001A000282F9FB7F894662349F0E82FFF27E053E4
:1001B000FE4F8081882311F021E006C0E22FFF2747
:1001C000E053FE4F608320E0892F99278FBF822F55
:1001D00099270895E82F8FB7F894282F332790E0B8
:1001E000FF27E053FE4F8081861709F491E02FBF6F
:1001F000892F99270895882311F06E9A08956E9893
:100200000895882311F06F9A08956F98089580E0FB
:100210000E94FB00BA9ABB98B99AB89A6C9A80E08F
:100220000E9401016B986A9881E00E94FB00709A1D
:100230008DB18C7F8DB908950F931F93CF93DF936A
:10024000182F8FB7F894C82FDD270C2F61E080E0BE
:100250000E94D000882321F0CFBF85E090E024C029
:10026000809108018823A1F480912301823081F4D8
:1002700009C082E080932301109208010E940701C7
:10028000B89AC0981093050180E00FBF99270CC061
:1002900080912301882369F38FB7F89499271092EE
:1002A000D0018FBF81E0F1CFDF91CF911F910F91EE
:1002B0000895282F9FB7F894E82FFF27E85BFE4F9B
:1002C00080818F3F81F4E0918002E21771F40BC0CE
:1002D00020933B0204C0FF27E85BFE4F208320935E
:1002E000800220E007C025E005C080913B028F3FDF
:1002F00091F7EECF892F99278FBF822F99270895E5
:100300001F93182F81E00E94FB001FB9779BFECF3F
:100310008FB199271F9108958F929F92AF92BF92AC
:10032000CF92DF92EF92FF920F931F93CF93DF93C1
:100330008FB7F8949927C0907B02D0907C02809070
:10034000C6019090C701C0919B01D0919C01209162
:100350002C0130912D01EAE0AE2EB12CAC0EBD1E69
:100360002A153B0508F459018FBF7401EC0EFD1EE0
:1003700086010C0F1D1F14C0C114D10419F0F8011F
:10038000808101C080E00E9480018114910411F0FD
:10039000F701808321960894E11CF11C0F5F1F4F29
:1003A000C5010197C817D90738F381E00E94010100
:1003B0009FB7F894C114D10431F0CC0EDD1EF601C4
:1003C00080818FB901C01FB8D0939C01C0939B015D
:1003D000892F99278FBF80E090E0DF91CF911F9107
:1003E0000F91FF90EF90DF90CF90BF90AF909F90D4
:1003F0008F9008952FB7F894332750932D01409391
:100400002C0190937C0280937B027093C7016093D0
:10041000C60110929C0110929B012FBF452B29F021
:100420008FB10E948C019927089586E10E9459019D
:1004300080E090E008958FB7F89499271092D20148
:100440008FBF08958FB7F89499272BB332E02327F5
:100450002BBB8FBF089580E88093450110927701F0
:1004600010923F0210923A021092720108951F9367
:10047000CF93DF93182F8FB7F894C82FDD2760E054
:1004800080E00E94EA00882321F0CFBF80E090E066
:1004900005C0CFBF812F0E9480019927DF91CF91A6
:1004A0001F910895CF93DF93FC0115A6DC019E9662
:1004B000ED011B821A82198280E886A7DF91CF9115
:1004C00008952F923F924F925F926F927F928F92F8
:1004D0009F92AF92BF92CF92DF92EF92FF920F93D3
:1004E0001F93CF93DF93CDB7DEB728970FB6F8945D
:1004F000DEBF0FBECDBF20907E0130907F014090C7
:10050000800150908101662477248824BEE4AB2EBC
:10051000A3E8BA2ECC24DD24EE24FF2400E010E072
:10052000222D332D442D552D662D772D882D90E0CD
:100530000E94C31A29833A834B835C836D837E8335
:100540008F839887822E932EA42EB52E24013501F9
:1005500000E20E94C11BA22EB32EC42ED52EC301D1
:10056000B20196958795779567956A0D7B1D8C1DD1
:100570009D1D97FF05C09F776F5F7F4F8F4F9F4FE8
:1005800060937E0170937F0180938001909381013D
:1005900028960FB6F894DEBF0FBECDBFDF91CF9186
:1005A0001F910F91FF90EF90DF90CF90BF90AF9091
:1005B0009F908F907F906F905F904F903F902F9083
:1005C00008958FB7F89460919F017091A0012CB5A8
:1005D0003DB506B602FE04C06F5F7F4F2CB53DB53A
:1005E00099278FBF88279927CB017727662744272C
:1005F0005527622B732B842B952B0895EF92FF9236
:100600000F931F930E94E1027B018C0120918901CD
:1006100030918A0140918B0150918C01809184012D
:1006200090918501A0918601B0918701820F931F5F
:10063000A41FB51FE216F3060407150730F0821752
:100640009307A407B50758F005C082179307A407BE
:10065000B507E0F5E816F9060A071B07B8F59C018F
:10066000AD012E193F09400B510B213060E83607D0
:1006700060E0460760E0560768F180E090E8A0E09F
:10068000B0E0E80EF91E0A1F1B1FE0928901F092EC
:100690008A0100938B0110938C0180E090E8AFEF0A
:1006A000BFEFE80EF91E0A1F1B1F205030484040C4
:1006B00050402093840130938501409386015093EC
:1006C000870120E030E840E050E014C020E030E056
:1006D00040E050E08093890190938A01A0938B01C0
:1006E000B0938C01109284011092850110928601C2
:1006F00010928701A901B7012CB53DB5C9018E192A
:100700009F0903968417950720F0B9016D5F7F4F0D
:1007100002C0640F751F6115710511F461E070E08E
:10072000615070407BBD6ABD80E186BF87B7806144
:1007300087BF1F910F91FF90EF9008950F931F9324
:100740000FB7F89411276093890170938A01809301
:100750008B0190938C012093840130938501409309
:100760008601509387010E94FE020FBF1F910F91D7
:10077000089597B79F7D97BF90E296BF882319F0A1
:100780008EB5806402C08EB58F7B8EBD87B78062C8
:1007900087BF80E090E00895982F9695969596955E
:1007A000E6E4F1E0E90FF11D877021E030E002C0DE
:1007B000220F331F8A95E2F78081822399270895BB
:1007C0000F931F93CF93DF93182F8FB7F894282F91
:1007D0003327022F80911701882359F581E08093F8
:1007E000170110937A012FBF8FB7F8949927379A82
:1007F0008FBF8FB7F894C82FDD279C2F80910301FE
:100800008230A9F480911701813021F488E00E94A0
:10081000590109C0823059F480917A018093030113
:1008200083E080931701CFBF80E090E025C09FBF99
:10083000FBCF80917A01811711F42FBFF5CF812F63
:100840000E94CC03882319F085E090E014C0E12FCA
:10085000E695E695E695FF27EA5BFE4F177081E087
:1008600090E002C0880F991F1A95E2F72081282B8B
:10087000208380E090E00FBFDF91CF911F910F9117
:10088000089580911C01882319F081E090E008957B
:1008900081E00E94E0039927282F882319F481E042
:1008A00080931C01822F99270895982F96959695ED
:1008B0009695E0E7F1E0E90FF11D877021E030E067
:1008C00002C0220F331F8A95E2F780818223992785
:1008D0000895982F969596959695E1EAF1E0E90F9F
:1008E000F11D877021E030E002C0220F331F8A958E
:1008F000E2F780818223992708959FB7F894292FE2
:100900003327422F90910301981741F480911701EA
:10091000833021F42FBF81E090E008954FBF80E045
:1009200090E0089580913E02882311F0813011F407
:1009300078E008C0882329F0813019F02FE170E0B9
:1009400002C070E021E0622FEFB7F89480916F0150
:100950008E7F80936F0187B1982F9F7182958695C6
:100960008695837019F080E090E012C0822F885045
:10097000863118F081E090E00BC040E050E0332772
:10098000892F99272817390711F441E050E0CA014F
:10099000982F9170990F80916F018178262F2F7178
:1009A000422F440F440F892B842B80936F013327F0
:1009B00027B9783059F580913C0290913D0221E0B1
:1009C0008638920718F087E090E01FC0833C9105BD
:1009D00018F086E090E019C08136910518F085E0A6
:1009E00090E013C08033910518F084E090E00DC0D2
:1009F0008831910518F083E090E007C00C9718F05B
:100A000082E090E002C080E090E0782F7770887DEF
:100A1000872B886D992786B98E2F99278FBF0895C8
:100A2000EF920F931F93AE2D99E0899FF00111244F
:100A3000EE55FE4F40835183628373830483158395
:100A400026833783A17080858E7F8A2B8260808782
:100A500082E00E9459011F910F91EF9008957FB796
:100A6000F89462B720912F0130913001409131010B
:100A70005091320106B601FE0FC081B792B7280F20
:100A8000311D411D511D2F5F3F4F4F4F5F4F290FAC
:100A9000311D411D511D04C0260F311D411D511D29
:100AA000872F99278FBFCA01B9010895809114013A
:100AB000882319F081E090E0089580E00E94E0032F
:100AC0009927282F882319F481E080931401822F1D
:100AD00099270895DF92EF92FF920F931F938FB79C
:100AE000F894282F3327D22E91B782B746B798179C
:100AF00011F041FF02C02FBF6AC080919A01882384
:100B0000E1F10E942F05E090CC01F090CD01009121
:100B1000CE011091CF0120914101309142014091CD
:100B20004301509144016E197F09800B910B6217AC
:100B300073078407950720F010929A0171E01EC098
:100B40002E0D3F1D401F511F80912F0190913001AC
:100B5000A0913101B0913201281B390B4A0B5B0B7C
:100B6000273E31054105510540F4822F223010F017
:100B700070E005C070E082E002C070E086EE682F91
:100B8000615000B601FCFDCF82B7681709F46F5FB2
:100B900020912F013091300140913101509132016B
:100BA000DA01C9010196A11DB11D860F911DA11D7C
:100BB000B11D82179307A407B50710F4622F609543
:100BC00061BFDFBE772319F081E00E9459011F91B8
:100BD0000F91FF90EF90DF900895AFB7F894BB2787
:100BE000E1E0E0939A016093CC017093CD01809392
:100BF000CE019093CF012093410130934201409365
:100C0000430150934401AFBF0E946A050895AF921B
:100C1000BF92CF92DF92EF92FF920F931F93CF93E9
:100C2000DF93CDB7DEB728970FB6F894DEBF0FBEBF
:100C3000CDBF20E070E0E0910001F091010132E1D0
:100C40004DE65CE46FE4809101019E2F28960FB67B
:100C5000F894DEBF0FBECDBFDF91CF911F910F91F2
:100C6000FF90EF90DF90CF90BF90AF9008951F92CC
:100C70000F920FB60F9211248F9383B783BF00B6E4
:100C800000FCFDCF8F910F900FBE0F901F90189515
:100C90001F920F920FB60F9211242F933F934F93F1
:100CA0005F936F937F938F939F93AF93BF93EF93D4
:100CB000FF9344B155B178948FB7F8949927209158
:100CC0006F01322F3695317021708FBF222391F53D
:100CD000339880919501813021F0823009F050C025
:100CE00008C0332341F05093CA014093C90189E001
:100CF0001EC0332319F40E94920442C01092950141
:100D000080913E02882321F0813009F039C008C06B
:100D10001092820150936B0140936A0187E007C0F3
:100D20001092740150934102409340028EE00E9461
:100D3000590126C08FB7F89499278FBF2FB7F89421
:100D4000332786B1582F5770482F4072987D942BC7
:100D5000952B8074977B982B90619F77892F99278B
:100D600086B9887D842B852B87738061992786B906
:100D7000887D842B852B877B8069992786B92FBF37
:100D8000FF91EF91BF91AF919F918F917F916F9163
:100D90005F914F913F912F910F900FBE0F901F9039
:100DA00018951F920F920FB60F9211240F900FBE3D
:100DB0000F901F9018951F920F920FB60F9211244B
:100DC0000F900FBE0F901F9018951F920F920FB6A5
:100DD0000F9211240F900FBE0F901F9018951F9225
:100DE0000F920FB60F9211240F900FBE0F901F900D
:100DF00018951F920F920FB60F9211240F900FBEED
:100E00000F901F9018951F920F920FB60F921124FA
:100E10000F900FBE0F901F9018951F920F920FB654
:100E20000F9211240F900FBE0F901F901895789479
:100E30001F920F920FB60F9211240F900FBE0F90BA
:100E40001F90189578941F920F920FB60F9211244D
:100E50000F900FBE0F901F90189578941F920F92CD
:100E60000FB60F9211242F933F938F939F932FB719
:100E7000F894332780919F019091A001019690935F
:100E8000A00180939F012FBF9F918F913F912F9140
:100E90000F900FBE0F901F9018951F920F920FB6D4
:100EA0000F9211242F933F934F935F936F937F93F0
:100EB0008F939F93AF93BF93EF93FF9383B783BFBA
:100EC00000B600FCFDCF81B799270196AA27BB2762
:100ED00020912F0130913001409131015091320128
:100EE000280F391F4A1F5B1F20932F0130933001B9
:100EF000409331015093320178940E946A05FF912A
:100F0000EF91BF91AF919F918F917F916F915F9181
:100F10004F913F912F910F900FBE0F901F901895FA
:100F2000AF92BF92CF92DF92EF92FF920F931F93F7
:100F3000CF93DF935B016C01C0E0D0E0E2EAF1E027
:100F4000608561FFC6C02081318142815381E48088
:100F5000F58006811781D601C501821B930BA40B76
:100F6000B50B8E159F05A007B10708F4B2C060FF4E
:100F700003C06D7F608708C02E0D3F1D401F511FAD
:100F80002083318342835383C13079F1C13020F013
:100F9000C23009F0A4C065C08FB7F894082F11279C
:100FA00080911901882389F491E09093190110929E
:100FB00068010FBF80911A01882321F48BE00E9401
:100FC00059018DC090931B018AC0809168018823CC
:100FD00009F43AC080E00E9455048823A9F5809165
:100FE00070018160809370012FC09FB7F8942091A9
:100FF0001101222319F421E030E00FC08091020199
:10100000813019F020E030E008C040E050E021508D
:10101000223010F441E050E09A01892F99278FBFC8
:10102000222309F45CC08FB7F894082F1127902F62
:1010300080910201813009F04AC080911101813014
:1010400029F483E00E9459010FBF49C0823009F0A2
:101050003EC08091DE018093020183E08093110104
:10106000F3CF9FB7F89420911901222319F421E0BE
:1010700030E00FC080910401813019F020E030E0B1
:1010800008C040E050E02150223010F441E050E030
:101090009A01892F99278FBF222309F18FB7F894DE
:1010A000082F1127902F80910401813081F48091C5
:1010B0001901813011F48AE0C5CF823041F480916A
:1010C00068018093040183E080931901BDCF9FBF25
:1010D00006C021963996C430D10509F031CF82E09F
:1010E0000E945901DF91CF911F910F91FF90EF90D6
:1010F000DF90CF90BF90AF900895EF92FF920F9343
:101100001F93CF93DF93982F8FB7F894E82E809199
:101110001701833009F045C080910301891709F058
:1011200040C080914601882309F046C03EC0EF2DA3
:10113000E695E695E695FF274F2D5527EA5BFE4F8E
:101140009A012770307081E090E002C0880F991FEB
:101150002A95E2F78095208128232083C0931601E9
:1011600011C02196C230D10511F4C0E0D0E0FC2EB0
:101170008C2F0E94CC038823D1F6C017D10789F7A2
:101180004FEF50E040937A018FEF8093030181E0AD
:101190008093170188E00E945901EFBE80E090E043
:1011A00011C0EFBE81E090E00DC082E080930301AA
:1011B000109217013798F1CF80911601082F11274F
:1011C000E801CFCFDF91CF911F910F91FF90EF906A
:1011D00008950F931F93182F0FB7F89461E080E0E4
:1011E0000E94D000882341F51093050180910801E9
:1011F000882379F580912301823059F585E106C075
:1012000081E0809323011092080187E10E94590137
:101210002AC0809188018F3F31F5E0910701EE23CC
:1012200011F11CC01092060104C0FF27E857FE4FC1
:1012300010821092070117C081E090E002C0880F71
:10124000991F1A95E2F720912201282B2093220161
:101250000AC0809123018823E1F6D2CF8091060154
:101260008F3F19F7DFCF802F99278FBF80E090E065
:101270001F910F9108951F9383E00E941C019927ED
:10128000182F882319F083E00E94E908812F9927FD
:101290001F910895CF92DF92EF92FF920F931F93C9
:1012A000CFB6F894DD240E946102DC01CB0166E434
:1012B00070E00E94641C5BE0E52EF12CE80EF91E44
:1012C000F0927E02E0927D020E94E1020027112747
:1012D000A80197010E949E03CFBE1F910F91FF901E
:1012E000EF90DF90CF900895EF92FF920F931F93AE
:1012F000CF93DF93182F7B01042F8FB7F894C82F5B
:10130000DD2760E080E00E94EA00882321F0CFBF63
:1013100080E090E014C0CFBF1064812F9927909394
:101320009201809391010E948001182F402F552730
:10133000B70180E090E00E94FA01812F9927DF91A8
:10134000CF911F910F91FF90EF900895C0986091F9
:101350002A0170912B0141E08FE30E9474090895E6
:1013600082E090E0909365018093640181E0809336
:10137000770120E030E080910501843011F421E014
:1013800030E0232B29F484E00E941C01882319F407
:101390000E94A609089584E00E94E90808951F921A
:1013A0000F920FB60F9211242F933F934F935F9399
:1013B0006F937F938F939F93AF93BF93EF93FF931D
:1013C0008091640190916501019749F482E090E079
:1013D00090936501809364010E94B00905C08091DB
:1013E00072018F5F80937201FF91EF91BF91AF9176
:1013F0009F918F917F916F915F914F913F912F912D
:101400000F900FBE0F901F9018951F93809122018F
:10141000882309F048C0109105011F3F09F043C01F
:1014200060E00E94EA008823F1F181E08093E0010E
:10143000809147018823D1F11092E00185E090E08E
:101440003BC0809123018230A9F5C09A80910601AA
:1014500020E030E08F3F11F421E030E0232BD9F47D
:101460008F3F19F42FEF30E00DC0282F3327F901FB
:10147000E857FE4F8081809306018F3F11F48093DF
:10148000070110832093080181E08093230187E105
:101490000E94590104C0109308011092230180E0BA
:1014A0000E94FB0007C081E090E006C08091080127
:1014B000882339F280E090E01F9108951F93CF9325
:1014C000DF939FB7F894C92FDD271C2F909105015A
:1014D000981721F0CFBF81E090E03AC08FEF809362
:1014E0000501309122013323F1F48FB7F894992745
:1014F0001092D0018FBF0E94050ACFBF11C0209368
:10150000050181E090E002C0880F991F4A95E2F73B
:10151000809538233093220185E10E9459011FBF35
:1015200080E090E015C080E065E0E32FFF270E9497
:10153000581C292F492F5527CF01042E02C09595FD
:1015400087950A94E2F780FDDACF822F8F5FEFCF85
:10155000DF91CF911F9108951F93CF93DF938FB7A2
:10156000F894C82FDD271C2F8091640190916501AC
:10157000892B29F484E00E945E0ACFBF1EC010921E
:10158000770180917201882311F0B79904C00E99F8
:1015900008C0882319F08150809372010E94B0091D
:1015A0000BC081E090E090936501809364011092FC
:1015B000720184E00E945E0A1FBFDF91CF911F91EC
:1015C00008950E942B02C09AC09888E00E943702BA
:1015D00088E00E943702C09A84E00E945E0A0E945E
:1015E000AC0A0895FF920F931F93CF93DF93F82EC9
:1015F0008B018FB7F894C82FDD2760E080E00E9450
:10160000EA00882321F0CFBF80E090E00CC0CFBF7C
:101610008F2D0E948001812F99270E948001802FA9
:101620000E9480019927DF91CF911F910F91FF9028
:1016300008951F931FB7F89480917101882319F4BE
:1016400060E070E009C060E080917A02882309F4CC
:1016500061E081E06827772780917B01882319F476
:1016600080E090E00AC090E08091D501882309F4E1
:1016700091E081E09827892F9927762F6627770FA9
:10168000770F770FE4E0880F991FEA95E1F7826EF4
:101690009262682B792B81E10E94F20A812F9927AF
:1016A0008FBF1F9108958FB7F89499276091DF013C
:1016B0008FBF85E0689FB0011124625D7E4F70642A
:1016C00088E10E94F20A0895EF92FF921F93CF9350
:1016D000DF93E0907C01F0907D01F70182A59927CE
:1016E000182F882309F41FE1C09880916E0181179B
:1016F00049F0612F77276F717070606E706885E1B7
:101700000E94F20A10936E01F70110818FB7F894CE
:10171000C82FDD2760E080E00E94EA00882311F0F6
:10172000CFBF12C0CFBF8EE390E090939201809321
:1017300091018EE30E9480011150412F552760E0F6
:1017400070E0C7010E94FA01DF91CF911F91FF90D5
:10175000EF9008950F931F93CF93DF93EC010FB792
:10176000F89411270E948C00FC018FE380830FBF47
:10177000109244021092430261E082E00E94D00085
:10178000882319F085E090E072C08091E1018F5FBD
:101790008093E10181508B838FB7F894082F112734
:1017A00062E081E00E94EA00882329F40FBF0E94D2
:1017B0001B0281E05BC08FB7F894992724E0209347
:1017C000D1018FBFD0939901C09398010FBFFE0143
:1017D0003196818129819927982F88273327822B59
:1017E000932B80729C7C8983892F992781832981FF
:1017F000982F882733272164822B932B8983892F65
:10180000992781831CA618A619A619AA18AA1FA68B
:1018100080E88EA761E06093D401409198015091D7
:1018200099018FB7F894282F332780912401909144
:1018300025018830910511F0019711F02FBF15C0D7
:1018400082E090E0909325018093240160938102CF
:1018500050937D0140937C0110922E012FBF0E9476
:101860003B09882311F40E94640B80E09927DF91E3
:10187000CF911F910F910895CF93DF93DA01422FFB
:101880002D3118F082E090E05EC0ED018B876E8311
:10189000872F99278F832FB7F8943327809178016A
:1018A000909179012FBFFD018483892F992785832A
:1018B0002FB7F89433278091090190910A012FBF27
:1018C0008887892F9927898731968181298199274E
:1018D000982F8827332720643868822B932B89839D
:1018E000892F99278183435F4C934D5080910C0140
:1018F000882359F010920C01642FCD010E94AA0B8D
:101900009927282F8823A9F417C0842F992790930B
:10191000970180939601B0932901A093280189E152
:101920000E94590180910C01882349F489E090E0DC
:101930000AC08FEF80930C01822F992704C0109268
:10194000830180E090E0DF91CF9108951F93CF93C2
:10195000DF93182FEB01E82FFF27EE0FFF1FE35651
:10196000FE4F1182108210920F01E0919D01F091C3
:101970009E01309721F08091420280FF0FC081E0EC
:1019800080930F0103C08BE10E9459011123C1F420
:10199000C654D240A9F41092C80112C020812D5023
:1019A000332767817727762F662786819927682BCB
:1019B000792BAF0183850E943C0C882339F3E3CF58
:1019C000DF91CF911F9108959B0180910F01882392
:1019D00049F460919D0170919E016217730711F4A3
:1019E0000E94A60C0895CF92DF92EF92FF920F9380
:1019F0001F93CF93DF938C01F62E6A01E22E8FB7EF
:101A0000F894C82FDD2760E080E00E94EA00882378
:101A100021F0CFBF80E090E01EC0CFBF0F0D111DA1
:101A2000802F80680E948001F82E16950795802FE0
:101A3000807C0E9480010E2D0AC0EE2DFF27E01B46
:101A4000F109EC0DFD1D80810E94800101500023F1
:101A5000A1F78F2D9927DF91CF911F910F91FF90C3
:101A6000EF90DF90CF900895CF93DF93CDB7DEB79F
:101A70002C970FB6F894DEBF0FBECDBF8FB7F8948A
:101A8000282FAE014F5F5F4FDA01E6EDF1E088E00D
:101A900001900D928150E1F7809178019091790148
:101AA0008987892F99278A8780918D0190918E014E
:101AB0008B87892F99278C872FBF2CE060E080E6E9
:101AC00091E00E94F30C2C960FB6F894DEBF0FBE87
:101AD000CDBFDF91CF9108951F93182F81E090E043
:101AE0009093250180932401109247010E94050ADA
:101AF0008FB7F894992710931E018FBF81E10E9440
:101B000059011F9108951F93CF93DF938FB7F894D6
:101B1000C82FDD271C2F8091240190912501089763
:101B2000C9F489E00E94370283E00E945E0AC09AED
:101B300081E090E090932501809324018FB7F89481
:101B4000992723E020931E018FBF81E10E94590154
:101B5000CFBF30C0C09880918102882311F085E00A
:101B600001C084E00E94370283FD09C080E00E942A
:101B7000370283FF04C085E090E020E003C083E0EB
:101B800090E021E09093250180932401C09A1FBF2B
:101B9000222341F010922E0183E00E945E0A0E94EF
:101BA0004A0908C00E94E10220E431E040E050E030
:101BB0000E949E03DF91CF911F91089578941F9208
:101BC0000F920FB60F9211242F923F924F925F9275
:101BD0006F927F928F929F92AF92BF92CF92DF923D
:101BE000EF92FF920F931F932F933F934F935F9327
:101BF0006F937F938F939F93AF93BF93CF93DF9315
:101C0000EF93FF93C6B5D7B58FB7F894282E0E94EF
:101C1000E1029B012C1B3D0B442755272B013C0166
:101C2000421A530A640A750A809124019091250191
:101C30008530910521F0069709F0E0C0BFC086E02D
:101C400090E0909325018093240131E0332E30926F
:101C500075011092260180E00E94B903E0917C0199
:101C6000F0917D0141AABB27A72D962D852D80AB34
:101C7000C301AA27BB2787A7872D9927AA27BB2798
:101C800086A7E0917C01F0917D0185A5882309F468
:101C900084C06081655077274F01860E971EF4013E
:101CA0002081E1808281A3809927AA27BB27BA2FB0
:101CB000A92F982F8827332744275527522F4427A9
:101CC00033272227FF24002711278701FF24EE2432
:101CD0002E293F29402B512BBB24CC24DD242A293B
:101CE0003B294C295D29822B932BA42BB52B8419DE
:101CF0009509A609B7098383292F3A2F4B2F55271A
:101D000022839D014427552721838B2F9927AA27BA
:101D1000BB278083C09824E0A40180E090E00E946B
:101D2000F30CC09AF4012081E1808281A38099277D
:101D3000AA27BB27BA2FA92F982F882733274427F4
:101D40005527522F442733272227FF240027112706
:101D50008701FF24EE242E293F29402B512BBB2441
:101D6000CC24DD242A293B294C295D29822B932B65
:101D7000A42BB52B840D951DA61DB71D8383292F7C
:101D80003A2F4B2F552722839D0144275527218326
:101D90008B2F9927AA27BB278083E0917C01F091A4
:101DA0007D01818185FF02C03092470183E00E945E
:101DB0005E0A87B78F7E87BF84997AC010927501BB
:101DC00081E00E94B903E0917C01F0917D01818165
:101DD00085FF0FC087E090E0909325018093240158
:101DE0000E94E10220E031E040E050E00E949E03CA
:101DF00003C080E00E946C0D849B5AC08091260134
:101E0000882391F580917501882371F511E0109375
:101E100075010E94B90380B320913A02283098F4EA
:101E2000E0913F02E20FFF27E770F070EE0FFF1F17
:101E3000EE0FFF1FEA51FE4F408251826282738291
:101E40002F5F20933A0210932601D0939401C09300
:101E5000930184992DC0992774E0969587957A957A
:101E6000E1F7182F117001C010E0809175018130E9
:101E7000F9F4109275010E94B90310922601112302
:101E8000B9F48091930190919401C81BD90B2A97C2
:101E900078F480913A02882319F0815080933A02B5
:101EA00080917C0190917D01009711F00E94520277
:101EB0002FBEFF91EF91DF91CF91BF91AF919F9195
:101EC0008F917F916F915F914F913F912F911F91D2
:101ED0000F91FF90EF90DF90CF90BF90AF909F90C9
:101EE0008F907F906F905F904F903F902F900F90CA
:101EF0000FBE0F901F901895EF92FF920F931F93B4
:101F0000CF93DF938B01809191019091920186FF95
:101F100040C18F7B8F3309F08EC1C0912A01D091CF
:101F20002B01588150936901809164019091650162
:101F30008530910509F443C08630910509F48AC0C3
:101F4000029709F01FC185E090E0909365018093AE
:101F5000640140914501852F99270196242F33274D
:101F6000281739074CF1B79906C00E9904C0451BD4
:101F7000415040934501409169014A32E8F44423BD
:101F8000A1F0BE016F5F7F4F483018F047E050E08E
:101F900007C086E090E09093650180936401552727
:101FA00080E090E00E94FA0146C110927701C09A49
:101FB00084E00E945E0AE3C00E94E10A3CC186E020
:101FC00090E0909365018093640180917B01882368
:101FD00009F439C08091D5018823A9F5898185FF4D
:101FE00032C08F814E812FB7F894332760918D01D5
:101FF00070918E012FBF9927982F88275527842B02
:10200000952B8617970759F08F812E819927982F46
:1020100088273327822B932B8F5F9F4FA1F48981D1
:102020008770813081F4C09AC0988AE00E9437029C
:10203000C09AC0984091690147502896BE018FE32D
:102040000E947409F8C040916901475055272896AD
:10205000BE01A6CFC09A80917201882339F484E032
:102060000E945E0A80917201882311F0B7990AC01C
:102070000E9B08C090913A02992321F0809169014A
:102080008B3038F480912A0190912B010E945202EA
:102090003DC0913001F5E0913F02FF27EE0FFF1F99
:1020A000EE0FFF1FEA51FE4F2081318142815381A3
:1020B000E0912A01F0912B0121ABBB27A52F942F92
:1020C000832F80ABCA01AA27BB2787A7252F3327D9
:1020D0004427552726A780913F029927019668E05B
:1020E00070E00E94781C80933F0280913A028150F8
:1020F00080933A02882351F080912A0190912B011C
:102100000E94520210923F0210923A02809169019D
:10211000FE01E80FF11D808187FF31C0012B79F1AD
:1021200069816770E0912A01F0912B01623019F505
:10213000A0917C01B0917D01109709F1809124015B
:10214000909125010797D9F4ED019B818381981720
:10215000B1F487B78F7E87BF908181E08CA7E90FAC
:10216000F11D8291319688A780818F7789A780E0C1
:102170000E946C0D04C0613011F488E12AC00E94F5
:10218000AC0A59C010927701C09A84E00E945E0A9E
:1021900052C08E3309F04FC0C09A809124019091B3
:1021A00025010897C9F4C09889E00E943702C09AB7
:1021B00083E00E945E0A81E090E090932501809385
:1021C00024018FB7F894992723E020931E018FBF35
:1021D00081E10E9459012FC080918102882349F436
:1021E00084E090E090932501809324010E94830D68
:1021F00022C083E00E945E0A83E090E09093250174
:10220000809324010E946102DC01CB0166E371E04E
:102210000E94641C4BE0E42EF12CE80EF91EF092B3
:102220004001E0923F010E94E10200271127A8012E
:1022300097010E949E03DF91CF911F910F91FF9014
:10224000EF9008951F920F920FB60F9211242F93C3
:102250003F934F935F936F937F938F939F93AF932E
:10226000BF93EF93FF932FB1E091C601F091C701A7
:10227000309739F080919B0190919C01E80FF91FF4
:10228000208380919B0190919C01019690939C01E9
:1022900080939B0180E00E94010140912C015091AC
:1022A0002D0180919B0190919C018417950718F452
:1022B0000E948C011CC06091C6017091C701809181
:1022C0007B0290917C021092C7011092C60110927D
:1022D0007C0210927B0210922D0110922C01109220
:1022E0009C0110929B012FB120E00E947C0FFF9176
:1022F000EF91BF91AF919F918F917F916F915F917E
:102300004F913F912F910F900FBE0F901F901895F6
:102310009F92AF92BF92CF92DF92EF92FF920F9374
:102320001F93CF93DF93CDB7DEB7A8970FB6F8947E
:10233000DEBF0FBECDBFE82FFF27EC31F10508F05F
:1023400079C6EA5BFF4FEE0FFF1F0590F491E02D79
:10235000099480914202882309F46CC640E051E060
:102360001AC60E94220266C680916C01882361F51C
:102370002091E2013091E3014091E4015091E501A7
:10238000EFB7F894FF276091CC017091CD01809157
:10239000CE019091CF01E0904101F0904201009177
:1023A0004301109144016E0D7F1D801F911FEFBFEF
:1023B0002093E2013093E3014093E4015093E5015F
:1023C00010926C010E94ED050E942F0543C00E94EF
:1023D0002F055B016C018FB7F894992710929A0131
:1023E0008FBF1FEFE12E1FEFF12E1FEF012F1FE711
:1023F000112F60E0E2EAF1E0808581FF1CC080815E
:102400009181A281B381A6019501281B390B4A0B4A
:102410005B0BDA01C9012481358146815781281B74
:10242000390B4A0B5B0B2E153F05400751071CF477
:1024300079018A0161E0399631E0E63CF307E1F683
:10244000662309F4F7C51E141F04100611062CF0AC
:10245000C601B5010E949007EDC5E092E201F0923D
:10246000E3010093E4011093E50181E080936C01A6
:10247000A8019701C601B5010E94ED05DBC58FB724
:10248000F89499272091DE012093020123E0209304
:1024900011018FBF1091020180E00E947D0488230A
:1024A00009F4C8C580911501882309F0C3C582E0ED
:1024B0008093950110923E020E94920481E08093E5
:1024C000150110936D01B6C50E945605B3C58091E4
:1024D0001401813009F0AEC51E98169886E028C117
:1024E00080E00E947D0810921401809113018130D8
:1024F00011F40E9456058FB7F89499271092130192
:1025000010921201AFC010921501A0906A01B09014
:102510006B0190906D018FB7F894C82E80911101D6
:10252000833009F041C0809102018915E9F580915D
:10253000A101882309F066C55CC5ED2DE695E695F9
:10254000E695FF274D2D5527EF55FE4F9A01277031
:10255000307081E090E002C0880F991F2A95E2F761
:1025600080952081282320830093100112C00F5FE3
:102570001F4F0130110511F400E010E0D02E802F24
:102580000E9469048823C9F60E151F0581F74FEFD5
:1025900050E04093DE018FEF8093020181E0809351
:1025A000110183E00E945901CFBE992009F042C574
:1025B00080910001809352022FEF209354021092D9
:1025C0005302A09256028B2D992780935502809139
:1025D00066019091670180935802892F9927809313
:1025E000570220935A02109259028091C801882301
:1025F00091F546E452E020934C0210924D0289E09E
:102600008093510280919D0190919E01892B19F533
:1026100050939E0140939D0186E1809346028091F4
:102620000F018823A9F010920F0129E06FEF70E0ED
:1026300089E00E943C0C9927282F882349F081E0EB
:1026400080930F0110929E0110929D01222319F494
:1026500081E08093C8018FB7F89499272BB331E0BC
:1026600023272BBB8FBFE6C48FB7F89499272091FF
:102670007A012093030123E0209317018FBF8091FB
:102680000301882321F0813009F0D4C40EC0169ACA
:102690001E9A0E942F05AB01BC01F1E0EF2E0AE06B
:1026A00010E020E030E081E00DC0159A1D9A0E94F4
:1026B0002F05AB01BC01E1E0EE2E0AE010E020E0C6
:1026C00030E082E00E941005B5C410929501B2C4BA
:1026D0008FB7F8949927209168012093040123E093
:1026E000209319018FBF0091040181E00E947D04B5
:1026F000882309F49FC480911D01882309F09AC49E
:1027000082E08093950111E010933E020E949204B2
:1027100010931D01009382028DC40E9441048AC45B
:1027200080911C01813009F085C41D9815988DE0B9
:102730000E9459017FC481E00E947D0810921C0113
:1027400080911B01813011F40E9441048FB7F894ED
:10275000992710921B0110921A0184CF10921D012B
:10276000A0904002B0904102909082028FB7F894FE
:10277000C82E80911901833009F041C08091040175
:102780008915E9F580917001882309F04AC440C495
:10279000ED2DE695E695E695FF274D2D5527E05959
:1027A000FE4F9A012770307081E090E002C0880FE0
:1027B000991F2A95E2F78095208128232083009392
:1027C000180112C00F5F1F4F0130110511F400E016
:1027D00010E0D02E802F0E9455048823C9F60E15D4
:1027E0001F0581F74FEF50E0409368018FEF809312
:1027F000040181E0809319018AE00E945901CFBE53
:10280000992009F017C4B0926701A09266018FB7B2
:10281000F894082F112780911101882379F491E011
:10282000909311011092DE010FBF80911201882355
:1028300011F484E07DCF90931301FCC38091DE01FD
:10284000882309F4E8C180E00E946904882309F024
:10285000E2C18091A10181608093A101DCC10FB729
:10286000F894112781E00E94B90361E0E62EF12C73
:10287000F0922501E0922401109226011092470166
:1028800010926E010FBF0FB7F89411270E942B0210
:10289000F0926501E09264011092770189B78F7B15
:1028A00089BF80E488BF8AB780628ABF8AB78F7E7B
:1028B0008ABF89B7806489BF0FBF8FB7F894082F8C
:1028C000112780911F0190912001049719F483E052
:1028D0000E9437020FBF0FB7F8941127C09A80E00B
:1028E0000E945E0A0FBF8FB7F894992722E02093C9
:1028F000D1018FBF1092C8019DC38FB7F89499275B
:102900001092D101AFCE8FB7F8949927F0901E01A5
:102910008FBF63E081E00E94EA00882359F10FB77E
:10292000F8941127109225011092240187B78F7E09
:1029300087BF87B78F7D87BF83E00E945E0AC09AFA
:102940000FBF0FB7F8941127109265011092640120
:102950000E942B02C09A89B78F7B89BF0FBF10924C
:10296000200110921F01DE98DD98DE9A80E10E941E
:10297000590107C08FB7F894992722E02093D1011D
:102980008FBF00919801109199010E941B028091C4
:10299000430290914402892B09F04CC38FEF80933E
:1029A0000C014F2DB801EDC28FB7F894282F3327B3
:1029B000122F80917F02882301F581E080937F02AE
:1029C00080911F0190912001049721F481E00E94E1
:1029D000E90803C083E10E9459011FBF2BC38FB7D1
:1029E000F894992710927F023DCE8FB7F894282F44
:1029F000332780912101882311F02FBF1BC32FBFE4
:102A000080B3992756E0969587955A95E1F7182F48
:102A1000117090918F01809190018917D9F0191749
:102A2000C9F484E090E09093200180931F018FB758
:102A3000F894992721E0209321018FBF60E070E096
:102A40008DE10E94F20A0E94340DC09AC0988FE076
:102A50000E9459011093900184E16ACE8FB7F894D7
:102A60009927109105018FBF123009F465C013300A
:102A700030F4112359F0113009F0DCC248C0133092
:102A800009F474C0143009F0D5C2A0C0C0988FB743
:102A9000F894082F112780911F019091200102972F
:102AA00009F0B9C083E090E09093200180931F016A
:102AB00068E170E08DE10E94F20A81E080938F016D
:102AC0001092210180B3992746E0969587954A9503
:102AD000E1F7817090708093900184E10E94590128
:102AE00081E00E9437026FE772E08CE10E94F20AF7
:102AF0000E94530B0E94190B66E57AE287E10E945F
:102B0000F20A6FEF70E885E10E94F20A84C0C09873
:102B100086E00E9437020E94530B0E94190B0E940C
:102B2000340DC09AC09883E00E943702C09A81E0B9
:102B30000E945E0A83E1FCCDC0988FB7F894082FFD
:102B4000112760E080E00E94EA00882311F00FBFA7
:102B50000AC00FBF83E50E94800180E00E948001CF
:102B600080E00E948001C09A82E02DC08FB7F89467
:102B70009927209124018FBF243039F0283041F06B
:102B8000223001F50E94640B55C20E94830D52C28F
:102B9000C09889E00E943702C09A83E00E945E0AD2
:102BA0008FB7F894992721E030E0309325012093E6
:102BB00024018FBF8FB7F894992710931E018FBF00
:102BC00081E1B6CD83E00E945E0A34C20E94A6096C
:102BD00031C20FB7F894112740912C0150912D016B
:102BE0006091C6017091C70180917B0290917C0237
:102BF0001092C7011092C60110927C0210927B02C3
:102C000010922D0110922C0110929C0110929B01A8
:102C100020E00E947C0F0FBF0DC20FB7F894112760
:102C200082E0809323010E9407010FBF8091080179
:102C3000882309F0FFC1B89AC09885E179CDA091A9
:102C40002A01B0912B011C919D01210F311DF90129
:102C50008081881F8827881FFD0183A7F901808153
:102C60008F77FD0181A721503040F9018081FD015E
:102C700080A7A0912A01B0912B01FD0132818FB76D
:102C8000F8949927209171018FBF222309F490C0F5
:102C9000832F992796958795969587958370907041
:102CA0008230910541F5878146812FB7F89433270B
:102CB00060918D0170918E012FBF9927982F8827E1
:102CC0005527842B952B8617970719F481E090E000
:102CD0006CC0FD018781268140E050E09927982F44
:102CE00088273327822B932B8F5F9F4F11F441E06E
:102CF00050E0CA015AC0039709F01AC19E012F5F24
:102D00003F4F46ED51E088E0FA010190AF01F90133
:102D100001929F018150C1F79E012F5D3F4FAE018F
:102D20004F5F5F4F88E0FA010190AF01F901019216
:102D30009F018150C1F79E01275F3F4FAE014F5D5C
:102D40005F4F88E0FA010190AF01F90101929F0104
:102D50008150C1F79E012F5E3F4FAE01475F5F4F2D
:102D600088E0FA010190AF01F90101929F018150C1
:102D7000C1F79E01275E3F4FAE014F5E5F4F88E077
:102D8000FA010190AF01F90101929F018150C1F751
:102D900048E050E0BE01675E7F4FCD0106960E947D
:102DA000441C892B09F0C4C003C0882309F4C0C0A7
:102DB0001D3008F4BDC0E0902A01F0902B01F7010E
:102DC0002281822F992716E0969587951A95E1F72B
:102DD000039719F468E070E002C062E070E0822FAF
:102DE0009927969587959695879583709070039708
:102DF00019F488E090E002C082E090E026E030E044
:102E0000E20EF31E40E050E020E030E0F701E80F72
:102E1000F91F8AEF9FEFE80EF91E05C08191480F58
:102E2000511D2F5F3F4F26173707C4F3F70163810A
:102E30008FEF809345028FB7F894782F20E030E031
:102E4000E3E3F1E0808191818417950729F4828181
:102E5000861731F1209345022F5F3F4F3396243080
:102E6000310581F77FBF909145023FB7F8949F3FAE
:102E700021F0809127018917A9F420912701822F41
:102E80009927FC01EE0FFF1FE80FF91FED5CFE4FC5
:102E90005183408362832F5F2370209327010EC0EC
:102EA0007FBF42C0892F9927FC01EE0FFF1FE80F5B
:102EB000F91FED5CFE4F518340836283832F992776
:102EC0008FBF0FB7F8941127C7010E948C00FC0137
:102ED00090810FBFF70183A5882331F19F3321F53E
:102EE000878146812FB7F89433276091090170914B
:102EF0000A012FBF9927982F88275527842B952BB8
:102F00008617970759F0878126819927982F882758
:102F10003327822B932B8F5F9F4F31F4F7018385EB
:102F2000893011F40E942202F0922B01E0922A01D2
:102F30008FB7F8949927109277018FBF0E94AC0A3F
:102F400079C09091830180910C01981709F472C0A7
:102F500090930C019923D1F400912801109129013B
:102F600060919601C8010E94AA0B482F552744235F
:102F700009F460C08FEF80930C016091280170917B
:102F80002901F80183850E94E40C54C08FEF8093DF
:102F90000C0150C0550F90914202852F8923B9F042
:102FA000E42FFF27EE0FFF1FE356FE4F20813181F4
:102FB00011821082852F809598239093420244239A
:102FC00031F42654324099F51092C80130C04F5F59
:102FD000483000F32FC080910F01E82FFF27EE0F3C
:102FE000FF1FE356FE4F6081718141E00E94A60CF5
:102FF00021C081E08093020110921101809312019F
:1030000085E0D0CA80911001E82EFF248701AFCA65
:1030100081E0809304011092190180931A018CE0E1
:10302000ECCB80911801E82EFF248701CBCB550F04
:1030300041E0B1CFA8960FB6F894DEBF0FBECDBF6A
:10304000DF91CF911F910F91FF90EF90DF90CF9084
:10305000BF90AF909F90089580913B028F3FB1F059
:10306000282F3327F901E85BFE4F808180933B02D4
:103070008F3F11F4809380028FEF80832F3F31F0D8
:10308000822F0E94881181E090E0089580E090E016
:10309000089578941F920F920FB60F9211241F93E8
:1030A0002F933F934F935F936F937F938F939F9350
:1030B000AF93BF93EF93FF9387B78F7E87BF1FB701
:1030C000F8948091840190918501A0918601B0913E
:1030D00087010097A105B10509F051C08091240135
:1030E000909125018530910561F18630910530F48C
:1030F0008330910549F0049781F51AC08730910516
:10310000F1F0089751F514C0869B0FC084E090E061
:1031100090932501809324010E94E10227E030E092
:1031200040E050E00E949E0318C00E944A0915C06A
:103130000E943B09882389F40E94830D0EC080E021
:103140000AC089E00E94370281E00E94B90383E04F
:103150000E945E0A87E00E946C0D80911F01909191
:103160002001019771F482E090E090932001809318
:103170001F01DE98DE9A80E00E94E90802C00E94EA
:10318000FE02812F99278FBFFF91EF91BF91AF91E1
:103190009F918F917F916F915F914F913F912F916F
:1031A0001F910F900FBE0F901F901895CFECD0E19C
:1031B000DEBFCDBF1FB7F8944CE150E06FEF70E079
:1031C00088E491E00E94511C8FEF80933B02809332
:1031D000800281E08EBD88E080BF83E083BF8CB534
:1031E0009DB54AE72CB53DB52817390708F441507D
:1031F000442311F0C901F6CF92B782B78917E9F3DA
:103200002CB53DB592B782B78917E9F38CB59DB55A
:10321000821B930B409605E0969587950A95E1F7FA
:1032200090933D0280933C0213BE83B78EBD8EB552
:1032300080BF12BE1DBC1CBC8FEF86BF86B78093BB
:103240007C0080B7992787709070892BD1F7D29A2C
:10325000D19AD09ADA9AD99AD89A15BA8FEF84BBB4
:10326000D498DC981DBC1CBC87B7846087BF8EB522
:10327000887F84608EBD16B80E942C188823E1F7E1
:103280008FEF80937301E3E3F1E08FEF9FEF918382
:1032900080831282339621E0EF33F207C1F70E9458
:1032A00061026093E101809100019091010101961A
:1032B000AA27BB2780937E0190937F01A093800172
:1032C000B093810186E092E090932B0180932A01D4
:1032D0008E98B89A8C988FEF809388011092D001C5
:1032E0001092D1011092D2011092D301B89AD69ABD
:1032F000D59A8FB7F89499272091090130910A0146
:103300008FBF30938E0120938D010E94070629A75D
:103310003AA74BA75CA76DA77EA78FA798ABDE0146
:103320009196FE01B99688E001900D928150E1F7E7
:10333000DE015196FE01B19688E001900D92815018
:10334000E1F7DE015996FE01719688E001900D9239
:103350008150E1F7A6EDB1E0FE01799688E0019099
:103360000D928150E1F780910B019927909379019B
:10337000809378018FE18093CB018AE18093DF0114
:103380000E94070629A73AA74BA75CA76DA77EA7AF
:103390008FA798ABDE019196FE01B99688E0019067
:1033A0000D928150E1F7DE011196FE01B19688E0A1
:1033B00001900D928150E1F7DE011996FE013196E0
:1033C00088E001900D928150E1F7A6EDB1E0FE0199
:1033D000399688E001900D928150E1F7A6EDB1E0B9
:1033E000FD0137969C9180818D939083319781E088
:1033F000E93DF807B9F781E08093710110927A02F4
:1034000080937B011092D5011092700110924601B9
:103410001092A10180B7886080BF8BE083BF86EEE9
:1034200081BF87B7826087BF0E946A050E942C18FF
:103430008823E1F7812F99278FBF789461E081E09D
:103440000E94D0008823E9F48FB7F894282F3327FF
:1034500080911F0190912001892B11F02FBF1BC07B
:1034600081E090E09093200180931F012FBFDD9AAF
:103470000E94E10224E130E040E050E00E949E031F
:103480000AC062E081E00E94EA00882321F461E042
:1034900081E00E94EA000E942F05AB01BC01EE24EE
:1034A00000E014E020E030E080E00E9410058FB7DB
:1034B000F894482F55274CC087B799278370907090
:1034C000892B19F4E5E0F0E013C080B799278770E5
:1034D0009070892BD1F781B792B7891B8C3030F06F
:1034E00082B7853F18F4E3E0F0E002C0E2E0F0E0EC
:1034F00087B7887BC1F480917D008B7FA1F46E99A2
:1035000012C08AB190919A00892B887161F48091E0
:10351000740082FD08C0379B03C081E090E005C0C5
:1035200085E090E002C080E090E025B78E1708F4B7
:10353000E82FFF27EC53FF4FC895E02D237E206234
:10354000E22BE5BF78948895F89485B78F7D85BF89
:1035500080913B028F3F09F4AFCF282F3327F90129
:10356000E85BFE4F808180933B028F3F11F4809394
:1035700080028FEF80832F3F09F49ECF4FBF822FB1
:103580000E94881194CFACE2B0E0E9ECFAE10C942F
:10359000AA1C222E332E442E552E662E772E882ED0
:1035A000992EFE013196A8E01192AA95E9F7298299
:1035B0003A824B825C826D827E828F829886FE0187
:1035C0003996B8E01192BA95E9F7A986BA86CB8602
:1035D000DC86ED86FE860F87188B89819A81AB8108
:1035E000BC8189A79AA7ABA7BCA77C018D018FEFEF
:1035F0009FEFA0E0B0E0E822F9220A231B2389A56F
:103600009AA5ABA5BCA51D014424552489859A859E
:10361000AB85BC858DA39EA3AFA3B8A75C016D014C
:103620008FEF9FEFA0E0B0E0A822B922CA22DB22F0
:103630008DA19EA1AFA1B8A53D0188249924C80100
:10364000B701A60195010E948B1C69A37AA38BA3E5
:103650009CA3C801B701A40193010E948B1C7B01AC
:103660008C01C201B101A60195010E948B1C5B0176
:103670006C01C201B101A40193010E948B1C3B01AA
:103680004C01EA0CFB1C0C1D1D1D89A19AA1ABA1CC
:10369000BCA19D01442755272E0D3F1D401F511FE2
:1036A0002A153B054C055D0540F480E090E0A1E063
:1036B000B0E0680E791E8A1E9B1ECA01AA27BB278E
:1036C000860D971DA81DB91D8D8F9E8FAF8FB8A336
:1036D000A9013327222789A19AA1ABA1BCA1A0707F
:1036E000B070280F391F4A1F5B1F298F3A8F4B8FED
:1036F0005C8FA98CBA8CCB8CDC8CED8CFE8C0F8D06
:1037000018A1FE01719698E011929A95E9F7ED8A59
:10371000FE8A0F8B188F2D813E814F8158856DA1B8
:103720007EA18FA198A50E948B1C3B014C012D8589
:103730003E854F85588969A57AA58BA59CA50E94D1
:103740008B1C2D893E894F89588D260F371F481FA6
:10375000591F260D371D481D591D2D8B3E8B4F8B34
:10376000588F6D887E888F88988C2A2D3B2D4C2D04
:103770005D2D662D772D882D992DE2E1AC960C9468
:10378000C61CA0E1B0E0E7ECFBE10C94AA1C222EE1
:10379000332E442E552E662E772E882E992E0023FA
:1037A00009F466C088E0FE01319611928A95E9F726
:1037B00029833A834B835C836D837E838F829887D2
:1037C000E0E2E01B1E16CCF52D813E814F8158852D
:1037D000602F772767FD7095DA01C901062E04C0B6
:1037E000B695A795979587950A94D2F78D879E876A
:1037F000AF87B88B04C0220F331F441F551FEA95B3
:10380000D2F789819A81AB81BC8104C0B695A79516
:10381000979587956A95D2F7282B392B4A2B5B2BE6
:1038200029873A874B875C8729843A844B845C8458
:103830006D847E848F8498881BC01D861E861F869B
:10384000188A2E2F332727FD3095309521953F4F2D
:103850008D819E81AF81B88504C0B695A795979557
:1038600087952A95D2F789879A87AB87BC87DCCF63
:10387000222D332D442D552D662D772D882D992DF4
:10388000E2E160960C94C61CFB01DC0104C08D9142
:103890000190801921F441505040C8F7881B990BC2
:1038A0000895DC0101C06D9341505040E0F7089548
:1038B000991B79E004C0991F961708F0961B881F82
:1038C0007A95C9F780950895AA1BBB1B51E107C0E3
:1038D000AA1FBB1FA617B70710F0A61BB70B881FA0
:1038E000991F5A95A9F780959095BC01CD0108952F
:1038F00097FB092E07260AD077FD04D0E5DF06D016
:1039000000201AF4709561957F4F0895F6F7909511
:1039100081959F4F0895629FD001739FF001829F10
:10392000E00DF11D649FE00DF11D929FF00D839F4E
:10393000F00D749FF00D659FF00D9927729FB00DEB
:10394000E11DF91F639FB00DE11DF91FBD01CF01FE
:10395000112408952F923F924F925F926F927F921F
:103960008F929F92AF92BF92CF92DF92EF92FF928F
:103970000F931F93CF93DF93CDB7DEB7CA1BDB0B3B
:103980000FB6F894DEBF0FBECDBF09942A883988E0
:1039900048885F846E847D848C849B84AA84B984E7
:1039A000C884DF80EE80FD800C811B81AA81B981F3
:1039B000CE0FD11D0FB6F894DEBF0FBECDBFED0107
:0439C0000895FFCF98
:1039C4000100010201FFFFFFFF010022FFFFFF01D1
:00000001FF
